{"contracts/MetisERC721.sol":{"MetisERC721":{"abi":[{"inputs":[{"internalType":"string","name":"name","type":"string"},{"internalType":"string","name":"symbol","type":"string"}],"stateMutability":"nonpayable","type":"constructor"},{"anonymous":false,"inputs":[{"indexed":true,"internalType":"address","name":"owner","type":"address"},{"indexed":true,"internalType":"address","name":"approved","type":"address"},{"indexed":true,"internalType":"uint256","name":"tokenId","type":"uint256"}],"name":"Approval","type":"event"},{"anonymous":false,"inputs":[{"indexed":true,"internalType":"address","name":"owner","type":"address"},{"indexed":true,"internalType":"address","name":"operator","type":"address"},{"indexed":false,"internalType":"bool","name":"approved","type":"bool"}],"name":"ApprovalForAll","type":"event"},{"anonymous":false,"inputs":[{"indexed":true,"internalType":"address","name":"from","type":"address"},{"indexed":true,"internalType":"address","name":"to","type":"address"},{"indexed":true,"internalType":"uint256","name":"tokenId","type":"uint256"}],"name":"Transfer","type":"event"},{"inputs":[{"internalType":"uint256","name":"BidId","type":"uint256"}],"name":"BidURI","outputs":[{"internalType":"string","name":"","type":"string"}],"stateMutability":"view","type":"function"},{"inputs":[],"name":"_EventTokenSearchIds","outputs":[{"internalType":"uint256","name":"","type":"uint256"}],"stateMutability":"view","type":"function"},{"inputs":[{"internalType":"uint256","name":"","type":"uint256"},{"internalType":"uint256","name":"","type":"uint256"}],"name":"_SearchedStore","outputs":[{"internalType":"string","name":"","type":"string"}],"stateMutability":"view","type":"function"},{"inputs":[{"internalType":"uint256","name":"_tokenId","type":"uint256"}],"name":"_getSearchedTokenURI","outputs":[{"internalType":"string","name":"","type":"string"}],"stateMutability":"view","type":"function"},{"inputs":[{"internalType":"uint256","name":"bidId","type":"uint256"},{"internalType":"string","name":"_bidURI","type":"string"}],"name":"_setBidURI","outputs":[],"stateMutability":"nonpayable","type":"function"},{"inputs":[{"internalType":"uint256","name":"eventId","type":"uint256"},{"internalType":"string","name":"_eventURI","type":"string"}],"name":"_setEventURI","outputs":[],"stateMutability":"nonpayable","type":"function"},{"inputs":[{"internalType":"uint256","name":"TokenBidId","type":"uint256"},{"internalType":"uint256","name":"TokenId","type":"uint256"},{"internalType":"string","name":"_BidURI","type":"string"}],"name":"_setTokenBid","outputs":[],"stateMutability":"nonpayable","type":"function"},{"inputs":[{"internalType":"uint256","name":"EventTokenId","type":"uint256"},{"internalType":"uint256","name":"EventId","type":"uint256"},{"internalType":"string","name":"_tokenURI","type":"string"}],"name":"_setTokenEvent","outputs":[],"stateMutability":"nonpayable","type":"function"},{"inputs":[{"internalType":"uint256","name":"tokenId","type":"uint256"},{"internalType":"string","name":"_tokenURI","type":"string"}],"name":"_setTokenURI","outputs":[],"stateMutability":"nonpayable","type":"function"},{"inputs":[{"internalType":"address","name":"to","type":"address"},{"internalType":"uint256","name":"tokenId","type":"uint256"}],"name":"approve","outputs":[],"stateMutability":"nonpayable","type":"function"},{"inputs":[{"internalType":"address","name":"owner","type":"address"}],"name":"balanceOf","outputs":[{"internalType":"uint256","name":"","type":"uint256"}],"stateMutability":"view","type":"function"},{"inputs":[{"internalType":"string","name":"_tokenURI","type":"string"},{"internalType":"uint256","name":"_eventid","type":"uint256"}],"name":"claimToken","outputs":[{"internalType":"uint256","name":"","type":"uint256"}],"stateMutability":"nonpayable","type":"function"},{"inputs":[{"internalType":"uint256","name":"_tokenId","type":"uint256"},{"internalType":"string","name":"_bidURI","type":"string"},{"internalType":"string","name":"_updatedURI","type":"string"},{"internalType":"uint256","name":"_eventid","type":"uint256"}],"name":"createBid","outputs":[],"stateMutability":"nonpayable","type":"function"},{"inputs":[{"internalType":"string","name":"_eventURI","type":"string"}],"name":"createEvent","outputs":[{"internalType":"uint256","name":"","type":"uint256"}],"stateMutability":"nonpayable","type":"function"},{"inputs":[{"internalType":"uint256","name":"eventId","type":"uint256"}],"name":"eventURI","outputs":[{"internalType":"string","name":"","type":"string"}],"stateMutability":"view","type":"function"},{"inputs":[{"internalType":"uint256","name":"tokenId","type":"uint256"}],"name":"getApproved","outputs":[{"internalType":"address","name":"","type":"address"}],"stateMutability":"view","type":"function"},{"inputs":[{"internalType":"string","name":"_bidURI","type":"string"}],"name":"getBidIdByUri","outputs":[{"internalType":"uint256","name":"","type":"uint256"}],"stateMutability":"view","type":"function"},{"inputs":[{"internalType":"uint256","name":"TokenID","type":"uint256"}],"name":"getBidsSearchToken","outputs":[{"internalType":"string[]","name":"","type":"string[]"}],"stateMutability":"view","type":"function"},{"inputs":[{"internalType":"uint256","name":"EventId","type":"uint256"},{"internalType":"string","name":"_tokenURI","type":"string"}],"name":"getGetEventsTokenID","outputs":[{"internalType":"uint256","name":"","type":"uint256"}],"stateMutability":"view","type":"function"},{"inputs":[{"internalType":"uint256","name":"TokenID","type":"uint256"}],"name":"getTotalBid","outputs":[{"internalType":"string[]","name":"","type":"string[]"}],"stateMutability":"view","type":"function"},{"inputs":[{"internalType":"string","name":"_tokenURI","type":"string"}],"name":"gettokenIdByUri","outputs":[{"internalType":"uint256","name":"","type":"uint256"}],"stateMutability":"view","type":"function"},{"inputs":[{"internalType":"uint256","name":"EventID","type":"uint256"}],"name":"gettokenSearchEventTotal","outputs":[{"internalType":"string[]","name":"","type":"string[]"}],"stateMutability":"view","type":"function"},{"inputs":[{"internalType":"address","name":"owner","type":"address"},{"internalType":"address","name":"operator","type":"address"}],"name":"isApprovedForAll","outputs":[{"internalType":"bool","name":"","type":"bool"}],"stateMutability":"view","type":"function"},{"inputs":[],"name":"name","outputs":[{"internalType":"string","name":"","type":"string"}],"stateMutability":"view","type":"function"},{"inputs":[{"internalType":"uint256","name":"tokenId","type":"uint256"}],"name":"ownerOf","outputs":[{"internalType":"address","name":"","type":"address"}],"stateMutability":"view","type":"function"},{"inputs":[{"internalType":"address","name":"from","type":"address"},{"internalType":"address","name":"to","type":"address"},{"internalType":"uint256","name":"tokenId","type":"uint256"}],"name":"safeTransferFrom","outputs":[],"stateMutability":"nonpayable","type":"function"},{"inputs":[{"internalType":"address","name":"from","type":"address"},{"internalType":"address","name":"to","type":"address"},{"internalType":"uint256","name":"tokenId","type":"uint256"},{"internalType":"bytes","name":"data","type":"bytes"}],"name":"safeTransferFrom","outputs":[],"stateMutability":"nonpayable","type":"function"},{"inputs":[{"internalType":"address","name":"operator","type":"address"},{"internalType":"bool","name":"approved","type":"bool"}],"name":"setApprovalForAll","outputs":[],"stateMutability":"nonpayable","type":"function"},{"inputs":[{"internalType":"bytes4","name":"interfaceId","type":"bytes4"}],"name":"supportsInterface","outputs":[{"internalType":"bool","name":"","type":"bool"}],"stateMutability":"view","type":"function"},{"inputs":[],"name":"symbol","outputs":[{"internalType":"string","name":"","type":"string"}],"stateMutability":"view","type":"function"},{"inputs":[{"internalType":"uint256","name":"tokenId","type":"uint256"}],"name":"tokenURI","outputs":[{"internalType":"string","name":"","type":"string"}],"stateMutability":"view","type":"function"},{"inputs":[],"name":"totalEvent","outputs":[{"internalType":"uint256","name":"","type":"uint256"}],"stateMutability":"view","type":"function"},{"inputs":[],"name":"totalSupply","outputs":[{"internalType":"uint256","name":"","type":"uint256"}],"stateMutability":"view","type":"function"},{"inputs":[{"internalType":"address","name":"from","type":"address"},{"internalType":"address","name":"to","type":"address"},{"internalType":"uint256","name":"tokenId","type":"uint256"}],"name":"transferFrom","outputs":[],"stateMutability":"nonpayable","type":"function"}],"devdoc":{"kind":"dev","methods":{"approve(address,uint256)":{"details":"See {IERC721-approve}."},"balanceOf(address)":{"details":"See {IERC721-balanceOf}."},"getApproved(uint256)":{"details":"See {IERC721-getApproved}."},"isApprovedForAll(address,address)":{"details":"See {IERC721-isApprovedForAll}."},"name()":{"details":"See {IERC721Metadata-name}."},"ownerOf(uint256)":{"details":"See {IERC721-ownerOf}."},"safeTransferFrom(address,address,uint256)":{"details":"See {IERC721-safeTransferFrom}."},"safeTransferFrom(address,address,uint256,bytes)":{"details":"See {IERC721-safeTransferFrom}."},"setApprovalForAll(address,bool)":{"details":"See {IERC721-setApprovalForAll}."},"supportsInterface(bytes4)":{"details":"See {IERC165-supportsInterface}."},"symbol()":{"details":"See {IERC721Metadata-symbol}."},"tokenURI(uint256)":{"details":"See {IERC721Metadata-tokenURI}."},"transferFrom(address,address,uint256)":{"details":"See {IERC721-transferFrom}."}},"version":1},"evm":{"bytecode":{"linkReferences":{},"object":"60806040523480156200001157600080fd5b5060405162003e0938038062003e098339818101604052810190620000379190620001a3565b818181600090805190602001906200005192919062000075565b5080600190805190602001906200006a92919062000075565b5050505050620003ac565b8280546200008390620002bd565b90600052602060002090601f016020900481019282620000a75760008555620000f3565b82601f10620000c257805160ff1916838001178555620000f3565b82800160010185558215620000f3579182015b82811115620000f2578251825591602001919060010190620000d5565b5b50905062000102919062000106565b5090565b5b808211156200012157600081600090555060010162000107565b5090565b60006200013c620001368462000251565b62000228565b9050828152602081018484840111156200015b576200015a6200038c565b5b6200016884828562000287565b509392505050565b600082601f83011262000188576200018762000387565b5b81516200019a84826020860162000125565b91505092915050565b60008060408385031215620001bd57620001bc62000396565b5b600083015167ffffffffffffffff811115620001de57620001dd62000391565b5b620001ec8582860162000170565b925050602083015167ffffffffffffffff81111562000210576200020f62000391565b5b6200021e8582860162000170565b9150509250929050565b60006200023462000247565b9050620002428282620002f3565b919050565b6000604051905090565b600067ffffffffffffffff8211156200026f576200026e62000358565b5b6200027a826200039b565b9050602081019050919050565b60005b83811015620002a75780820151818401526020810190506200028a565b83811115620002b7576000848401525b50505050565b60006002820490506001821680620002d657607f821691505b60208210811415620002ed57620002ec62000329565b5b50919050565b620002fe826200039b565b810181811067ffffffffffffffff8211171562000320576200031f62000358565b5b80604052505050565b7f4e487b7100000000000000000000000000000000000000000000000000000000600052602260045260246000fd5b7f4e487b7100000000000000000000000000000000000000000000000000000000600052604160045260246000fd5b600080fd5b600080fd5b600080fd5b600080fd5b6000601f19601f8301169050919050565b613a4d80620003bc6000396000f3fe608060405234801561001057600080fd5b50600436106102065760003560e01c806370a082311161011a578063aed47961116100ad578063d45fc5161161007c578063d45fc5161461066d578063d654e9931461069d578063e08033d3146106b9578063e985e9c5146106d5578063eb1d234d1461070557610206565b8063aed47961146105c1578063b10a5dfa146105f1578063b88d4fde14610621578063c87b56dd1461063d57610206565b806395d89b41116100e957806395d89b41146105275780639bc2bc7114610545578063a0fd0c6a14610575578063a22cb465146105a557610206565b806370a08231146104795780637cedbc1e146104a95780637eadfa6a146104d9578063932a196b146104f757610206565b80631cd043d61161019d57806342842e0e1161016c57806342842e0e1461039d578063446a92e3146103b957806344f659b7146103e95780635154380a146104195780636352211e1461044957610206565b80631cd043d61461031957806323b872dd1461033557806328520ab7146103515780633592dd801461038157610206565b8063095ea7b3116101d9578063095ea7b3146102a55780630da3c49c146102c1578063144cbca6146102dd57806318160ddd146102fb57610206565b8063015388681461020b57806301ffc9a71461022757806306fdde0314610257578063081812fc14610275575b600080fd5b61022560048036038101906102209190612c3e565b610735565b005b610241600480360381019061023c9190612b12565b610761565b60405161024e91906131a3565b60405180910390f35b61025f610843565b60405161026c91906131be565b60405180910390f35b61028f600480360381019061028a9190612c11565b6108d5565b60405161029c919061311a565b60405180910390f35b6102bf60048036038101906102ba9190612ad2565b61091b565b005b6102db60048036038101906102d69190612c9a565b610a33565b005b6102e5610b53565b6040516102f29190613300565b60405180910390f35b610303610b59565b6040516103109190613300565b60405180910390f35b610333600480360381019061032e9190612c3e565b610b63565b005b61034f600480360381019061034a91906129bc565b610b8f565b005b61036b60048036038101906103669190612c3e565b610bef565b6040516103789190613300565b60405180910390f35b61039b60048036038101906103969190612d79565b610cc8565b005b6103b760048036038101906103b291906129bc565b610d0c565b005b6103d360048036038101906103ce9190612c11565b610d2c565b6040516103e091906131be565b60405180910390f35b61040360048036038101906103fe9190612bb5565b610dd1565b6040516104109190613300565b60405180910390f35b610433600480360381019061042e9190612c11565b610e27565b6040516104409190613181565b60405180910390f35b610463600480360381019061045e9190612c11565b610fd7565b604051610470919061311a565b60405180910390f35b610493600480360381019061048e919061294f565b61105e565b6040516104a09190613300565b60405180910390f35b6104c360048036038101906104be9190612c11565b611116565b6040516104d091906131be565b60405180910390f35b6104e16111cf565b6040516104ee9190613300565b60405180910390f35b610511600480360381019061050c9190612b6c565b6111d9565b60405161051e9190613300565b60405180910390f35b61052f611248565b60405161053c91906131be565b60405180910390f35b61055f600480360381019061055a9190612b6c565b6112da565b60405161056c9190613300565b60405180910390f35b61058f600480360381019061058a9190612c11565b61130a565b60405161059c91906131be565b60405180910390f35b6105bf60048036038101906105ba9190612a92565b6113af565b005b6105db60048036038101906105d69190612c11565b6113c5565b6040516105e89190613181565b60405180910390f35b61060b60048036038101906106069190612d39565b611575565b60405161061891906131be565b60405180910390f35b61063b60048036038101906106369190612a0f565b611625565b005b61065760048036038101906106529190612c11565b611687565b60405161066491906131be565b60405180910390f35b61068760048036038101906106829190612b6c565b61172c565b6040516106949190613300565b60405180910390f35b6106b760048036038101906106b29190612d79565b61179b565b005b6106d360048036038101906106ce9190612c3e565b6117df565b005b6106ef60048036038101906106ea919061297c565b61180b565b6040516106fc91906131a3565b60405180910390f35b61071f600480360381019061071a9190612c11565b61189f565b60405161072c9190613181565b60405180910390f35b8060126000848152602001908152602001600020908051906020019061075c9291906126ac565b505050565b60007f80ac58cd000000000000000000000000000000000000000000000000000000007bffffffffffffffffffffffffffffffffffffffffffffffffffffffff1916827bffffffffffffffffffffffffffffffffffffffffffffffffffffffff1916148061082c57507f5b5e139f000000000000000000000000000000000000000000000000000000007bffffffffffffffffffffffffffffffffffffffffffffffffffffffff1916827bffffffffffffffffffffffffffffffffffffffffffffffffffffffff1916145b8061083c575061083b82611a4f565b5b9050919050565b60606000805461085290613584565b80601f016020809104026020016040519081016040528092919081815260200182805461087e90613584565b80156108cb5780601f106108a0576101008083540402835291602001916108cb565b820191906000526020600020905b8154815290600101906020018083116108ae57829003601f168201915b5050505050905090565b60006108e082611ab9565b6004600083815260200190815260200160002060009054906101000a900473ffffffffffffffffffffffffffffffffffffffff169050919050565b600061092682610fd7565b90508073ffffffffffffffffffffffffffffffffffffffff168373ffffffffffffffffffffffffffffffffffffffff161415610997576040517f08c379a000000000000000000000000000000000000000000000000000000000815260040161098e906132c0565b60405180910390fd5b8073ffffffffffffffffffffffffffffffffffffffff166109b6611b04565b73ffffffffffffffffffffffffffffffffffffffff1614806109e557506109e4816109df611b04565b61180b565b5b610a24576040517f08c379a0000000000000000000000000000000000000000000000000000000008152600401610a1b906132e0565b60405180910390fd5b610a2e8383611b0c565b505050565b6000610ada82601260008881526020019081526020016000208054610a5790613584565b80601f0160208091040260200160405190810160405280929190818152602001828054610a8390613584565b8015610ad05780601f10610aa557610100808354040283529160200191610ad0565b820191906000526020600020905b815481529060010190602001808311610ab357829003601f168201915b5050505050610bef565b905082601260008781526020019081526020016000209080519060200190610b039291906126ac565b50610b0f818385610cc8565b610b1c600a54868661179b565b600a6000815480929190610b2f906135e7565b919050555060076000815480929190610b47906135e7565b91905055505050505050565b600d5481565b6000600654905090565b80601360008481526020019081526020016000209080519060200190610b8a9291906126ac565b505050565b610ba0610b9a611b04565b82611bc5565b610bdf576040517f08c379a0000000000000000000000000000000000000000000000000000000008152600401610bd6906131e0565b60405180910390fd5b610bea838383611c5a565b505050565b600080600090505b600954811015610cbc57610c0a84611f54565b80519060200120600e6000838152602001908152602001600020600060028110610c3757610c366136bd565b5b01604051610c459190613103565b6040518091039020148015610c9b57508280519060200120600e6000838152602001908152602001600020600160028110610c8357610c826136bd565b5b01604051610c919190613103565b6040518091039020145b15610ca95780915050610cc2565b8080610cb4906135e7565b915050610bf7565b50600090505b92915050565b6040518060400160405280610cdc84611f54565b815260200182815250600e6000858152602001908152602001600020906002610d06929190612732565b50505050565b610d2783838360405180602001604052806000815250611625565b505050565b6060601160008381526020019081526020016000208054610d4c90613584565b80601f0160208091040260200160405190810160405280929190818152602001828054610d7890613584565b8015610dc55780601f10610d9a57610100808354040283529160200191610dc5565b820191906000526020600020905b815481529060010190602001808311610da857829003601f168201915b50505050509050919050565b6000610ddf60065484610735565b610dec6009548385610cc8565b60066000815480929190610dff906135e7565b919050555060096000815480929190610e17906135e7565b9190505550600654905092915050565b60606000600a67ffffffffffffffff811115610e4657610e456136ec565b5b604051908082528060200260200182016040528015610e7957816020015b6060815260200190600190039081610e645790505b5090506000805b600a54811015610fcc57610e9385611f54565b80519060200120600f6000838152602001908152602001600020600060028110610ec057610ebf6136bd565b5b01604051610ece9190613103565b60405180910390201415610fb957600f6000828152602001908152602001600020600160028110610f0257610f016136bd565b5b018054610f0e90613584565b80601f0160208091040260200160405190810160405280929190818152602001828054610f3a90613584565b8015610f875780601f10610f5c57610100808354040283529160200191610f87565b820191906000526020600020905b815481529060010190602001808311610f6a57829003601f168201915b5050505050838381518110610f9f57610f9e6136bd565b5b60200260200101819052508180610fb5906135e7565b9250505b8080610fc4906135e7565b915050610e80565b508192505050919050565b600080610fe38361202c565b9050600073ffffffffffffffffffffffffffffffffffffffff168173ffffffffffffffffffffffffffffffffffffffff161415611055576040517f08c379a000000000000000000000000000000000000000000000000000000000815260040161104c906132a0565b60405180910390fd5b80915050919050565b60008073ffffffffffffffffffffffffffffffffffffffff168273ffffffffffffffffffffffffffffffffffffffff1614156110cf576040517f08c379a00000000000000000000000000000000000000000000000000000000081526004016110c690613280565b60405180910390fd5b600360008373ffffffffffffffffffffffffffffffffffffffff1673ffffffffffffffffffffffffffffffffffffffff168152602001908152602001600020549050919050565b60606010600083815260200190815260200160002060006002811061113e5761113d6136bd565b5b01805461114a90613584565b80601f016020809104026020016040519081016040528092919081815260200182805461117690613584565b80156111c35780601f10611198576101008083540402835291602001916111c3565b820191906000526020600020905b8154815290600101906020018083116111a657829003601f168201915b50505050509050919050565b6000600854905090565b600080600090505b60065481101561123d578280519060200120601260008381526020019081526020016000206040516112139190613103565b6040518091039020141561122a5780915050611243565b8080611235906135e7565b9150506111e1565b50600090505b919050565b60606001805461125790613584565b80601f016020809104026020016040519081016040528092919081815260200182805461128390613584565b80156112d05780601f106112a5576101008083540402835291602001916112d0565b820191906000526020600020905b8154815290600101906020018083116112b357829003601f168201915b5050505050905090565b60006112e860085483610b63565b600860008154809291906112fb906135e7565b91905055506008549050919050565b606060136000838152602001908152602001600020805461132a90613584565b80601f016020809104026020016040519081016040528092919081815260200182805461135690613584565b80156113a35780601f10611378576101008083540402835291602001916113a3565b820191906000526020600020905b81548152906001019060200180831161138657829003601f168201915b50505050509050919050565b6113c16113ba611b04565b8383612069565b5050565b60606000600a67ffffffffffffffff8111156113e4576113e36136ec565b5b60405190808252806020026020018201604052801561141757816020015b60608152602001906001900390816114025790505b5090506000805b600a5481101561156a5761143185611f54565b80519060200120600f600083815260200190815260200160002060006002811061145e5761145d6136bd565b5b0160405161146c9190613103565b6040518091039020141561155757600f60008281526020019081526020016000206001600281106114a05761149f6136bd565b5b0180546114ac90613584565b80601f01602080910402602001604051908101604052809291908181526020018280546114d890613584565b80156115255780601f106114fa57610100808354040283529160200191611525565b820191906000526020600020905b81548152906001019060200180831161150857829003601f168201915b505050505083838151811061153d5761153c6136bd565b5b60200260200101819052508180611553906135e7565b9250505b8080611562906135e7565b91505061141e565b508192505050919050565b6010602052816000526040600020816002811061159157600080fd5b016000915091505080546115a490613584565b80601f01602080910402602001604051908101604052809291908181526020018280546115d090613584565b801561161d5780601f106115f25761010080835404028352916020019161161d565b820191906000526020600020905b81548152906001019060200180831161160057829003601f168201915b505050505081565b611636611630611b04565b83611bc5565b611675576040517f08c379a000000000000000000000000000000000000000000000000000000000815260040161166c906131e0565b60405180910390fd5b611681848484846121d6565b50505050565b60606012600083815260200190815260200160002080546116a790613584565b80601f01602080910402602001604051908101604052809291908181526020018280546116d390613584565b80156117205780601f106116f557610100808354040283529160200191611720565b820191906000526020600020905b81548152906001019060200180831161170357829003601f168201915b50505050509050919050565b600080600090505b600754811015611790578280519060200120601160008381526020019081526020016000206040516117669190613103565b6040518091039020141561177d5780915050611796565b8080611788906135e7565b915050611734565b50600090505b919050565b60405180604001604052806117af84611f54565b815260200182815250600f60008581526020019081526020016000209060026117d9929190612732565b50505050565b806011600084815260200190815260200160002090805190602001906118069291906126ac565b505050565b6000600560008473ffffffffffffffffffffffffffffffffffffffff1673ffffffffffffffffffffffffffffffffffffffff16815260200190815260200160002060008373ffffffffffffffffffffffffffffffffffffffff1673ffffffffffffffffffffffffffffffffffffffff16815260200190815260200160002060009054906101000a900460ff16905092915050565b60606000600a67ffffffffffffffff8111156118be576118bd6136ec565b5b6040519080825280602002602001820160405280156118f157816020015b60608152602001906001900390816118dc5790505b5090506000805b600954811015611a445761190b85611f54565b80519060200120600e6000838152602001908152602001600020600060028110611938576119376136bd565b5b016040516119469190613103565b60405180910390201415611a3157600e600082815260200190815260200160002060016002811061197a576119796136bd565b5b01805461198690613584565b80601f01602080910402602001604051908101604052809291908181526020018280546119b290613584565b80156119ff5780601f106119d4576101008083540402835291602001916119ff565b820191906000526020600020905b8154815290600101906020018083116119e257829003601f168201915b5050505050838381518110611a1757611a166136bd565b5b60200260200101819052508180611a2d906135e7565b9250505b8080611a3c906135e7565b9150506118f8565b508192505050919050565b60007f01ffc9a7000000000000000000000000000000000000000000000000000000007bffffffffffffffffffffffffffffffffffffffffffffffffffffffff1916827bffffffffffffffffffffffffffffffffffffffffffffffffffffffff1916149050919050565b611ac281612232565b611b01576040517f08c379a0000000000000000000000000000000000000000000000000000000008152600401611af8906132a0565b60405180910390fd5b50565b600033905090565b816004600083815260200190815260200160002060006101000a81548173ffffffffffffffffffffffffffffffffffffffff021916908373ffffffffffffffffffffffffffffffffffffffff160217905550808273ffffffffffffffffffffffffffffffffffffffff16611b7f83610fd7565b73ffffffffffffffffffffffffffffffffffffffff167f8c5be1e5ebec7d5bd14f71427d1e84f3dd0314c0f7b2291e5b200ac8c7c3b92560405160405180910390a45050565b600080611bd183610fd7565b90508073ffffffffffffffffffffffffffffffffffffffff168473ffffffffffffffffffffffffffffffffffffffff161480611c135750611c12818561180b565b5b80611c5157508373ffffffffffffffffffffffffffffffffffffffff16611c39846108d5565b73ffffffffffffffffffffffffffffffffffffffff16145b91505092915050565b8273ffffffffffffffffffffffffffffffffffffffff16611c7a82610fd7565b73ffffffffffffffffffffffffffffffffffffffff1614611cd0576040517f08c379a0000000000000000000000000000000000000000000000000000000008152600401611cc790613220565b60405180910390fd5b600073ffffffffffffffffffffffffffffffffffffffff168273ffffffffffffffffffffffffffffffffffffffff161415611d40576040517f08c379a0000000000000000000000000000000000000000000000000000000008152600401611d3790613240565b60405180910390fd5b611d4d8383836001612273565b8273ffffffffffffffffffffffffffffffffffffffff16611d6d82610fd7565b73ffffffffffffffffffffffffffffffffffffffff1614611dc3576040517f08c379a0000000000000000000000000000000000000000000000000000000008152600401611dba90613220565b60405180910390fd5b6004600082815260200190815260200160002060006101000a81549073ffffffffffffffffffffffffffffffffffffffff02191690556001600360008573ffffffffffffffffffffffffffffffffffffffff1673ffffffffffffffffffffffffffffffffffffffff168152602001908152602001600020600082825403925050819055506001600360008473ffffffffffffffffffffffffffffffffffffffff1673ffffffffffffffffffffffffffffffffffffffff16815260200190815260200160002060008282540192505081905550816002600083815260200190815260200160002060006101000a81548173ffffffffffffffffffffffffffffffffffffffff021916908373ffffffffffffffffffffffffffffffffffffffff160217905550808273ffffffffffffffffffffffffffffffffffffffff168473ffffffffffffffffffffffffffffffffffffffff167fddf252ad1be2c89b69c2b068fc378daa952ba7f163c4a11628f55a4df523b3ef60405160405180910390a4611f4f8383836001612399565b505050565b606060006001611f638461239f565b01905060008167ffffffffffffffff811115611f8257611f816136ec565b5b6040519080825280601f01601f191660200182016040528015611fb45781602001600182028036833780820191505090505b509050600082602001820190505b600115612021578080600190039150507f3031323334353637383961626364656600000000000000000000000000000000600a86061a8153600a858161200b5761200a61365f565b5b049450600085141561201c57612021565b611fc2565b819350505050919050565b60006002600083815260200190815260200160002060009054906101000a900473ffffffffffffffffffffffffffffffffffffffff169050919050565b8173ffffffffffffffffffffffffffffffffffffffff168373ffffffffffffffffffffffffffffffffffffffff1614156120d8576040517f08c379a00000000000000000000000000000000000000000000000000000000081526004016120cf90613260565b60405180910390fd5b80600560008573ffffffffffffffffffffffffffffffffffffffff1673ffffffffffffffffffffffffffffffffffffffff16815260200190815260200160002060008473ffffffffffffffffffffffffffffffffffffffff1673ffffffffffffffffffffffffffffffffffffffff16815260200190815260200160002060006101000a81548160ff0219169083151502179055508173ffffffffffffffffffffffffffffffffffffffff168373ffffffffffffffffffffffffffffffffffffffff167f17307eab39ab6107e8899845ad3d59bd9653f200f220920489ca2b5937696c31836040516121c991906131a3565b60405180910390a3505050565b6121e1848484611c5a565b6121ed848484846124f2565b61222c576040517f08c379a000000000000000000000000000000000000000000000000000000000815260040161222390613200565b60405180910390fd5b50505050565b60008073ffffffffffffffffffffffffffffffffffffffff166122548361202c565b73ffffffffffffffffffffffffffffffffffffffff1614159050919050565b600181111561239357600073ffffffffffffffffffffffffffffffffffffffff168473ffffffffffffffffffffffffffffffffffffffff16146123075780600360008673ffffffffffffffffffffffffffffffffffffffff1673ffffffffffffffffffffffffffffffffffffffff16815260200190815260200160002060008282546122ff919061349a565b925050819055505b600073ffffffffffffffffffffffffffffffffffffffff168373ffffffffffffffffffffffffffffffffffffffff16146123925780600360008573ffffffffffffffffffffffffffffffffffffffff1673ffffffffffffffffffffffffffffffffffffffff168152602001908152602001600020600082825461238a9190613444565b925050819055505b5b50505050565b50505050565b600080600090507a184f03e93ff9f4daa797ed6e38ed64bf6a1f01000000000000000083106123fd577a184f03e93ff9f4daa797ed6e38ed64bf6a1f01000000000000000083816123f3576123f261365f565b5b0492506040810190505b6d04ee2d6d415b85acef8100000000831061243a576d04ee2d6d415b85acef810000000083816124305761242f61365f565b5b0492506020810190505b662386f26fc10000831061246957662386f26fc10000838161245f5761245e61365f565b5b0492506010810190505b6305f5e1008310612492576305f5e10083816124885761248761365f565b5b0492506008810190505b61271083106124b75761271083816124ad576124ac61365f565b5b0492506004810190505b606483106124da57606483816124d0576124cf61365f565b5b0492506002810190505b600a83106124e9576001810190505b80915050919050565b60006125138473ffffffffffffffffffffffffffffffffffffffff16612689565b1561267c578373ffffffffffffffffffffffffffffffffffffffff1663150b7a0261253c611b04565b8786866040518563ffffffff1660e01b815260040161255e9493929190613135565b602060405180830381600087803b15801561257857600080fd5b505af19250505080156125a957506040513d601f19601f820116820180604052508101906125a69190612b3f565b60015b61262c573d80600081146125d9576040519150601f19603f3d011682016040523d82523d6000602084013e6125de565b606091505b50600081511415612624576040517f08c379a000000000000000000000000000000000000000000000000000000000815260040161261b90613200565b60405180910390fd5b805181602001fd5b63150b7a0260e01b7bffffffffffffffffffffffffffffffffffffffffffffffffffffffff1916817bffffffffffffffffffffffffffffffffffffffffffffffffffffffff191614915050612681565b600190505b949350505050565b6000808273ffffffffffffffffffffffffffffffffffffffff163b119050919050565b8280546126b890613584565b90600052602060002090601f0160209004810192826126da5760008555612721565b82601f106126f357805160ff1916838001178555612721565b82800160010185558215612721579182015b82811115612720578251825591602001919060010190612705565b5b50905061272e9190612785565b5090565b8260028101928215612774579160200282015b828111156127735782518290805190602001906127639291906126ac565b5091602001919060010190612745565b5b50905061278191906127a2565b5090565b5b8082111561279e576000816000905550600101612786565b5090565b5b808211156127c257600081816127b991906127c6565b506001016127a3565b5090565b5080546127d290613584565b6000825580601f106127e45750612803565b601f0160209004906000526020600020908101906128029190612785565b5b50565b600061281961281484613340565b61331b565b90508281526020810184848401111561283557612834613720565b5b612840848285613542565b509392505050565b600061285b61285684613371565b61331b565b90508281526020810184848401111561287757612876613720565b5b612882848285613542565b509392505050565b600081359050612899816139bb565b92915050565b6000813590506128ae816139d2565b92915050565b6000813590506128c3816139e9565b92915050565b6000815190506128d8816139e9565b92915050565b600082601f8301126128f3576128f261371b565b5b8135612903848260208601612806565b91505092915050565b600082601f8301126129215761292061371b565b5b8135612931848260208601612848565b91505092915050565b60008135905061294981613a00565b92915050565b6000602082840312156129655761296461372a565b5b60006129738482850161288a565b91505092915050565b600080604083850312156129935761299261372a565b5b60006129a18582860161288a565b92505060206129b28582860161288a565b9150509250929050565b6000806000606084860312156129d5576129d461372a565b5b60006129e38682870161288a565b93505060206129f48682870161288a565b9250506040612a058682870161293a565b9150509250925092565b60008060008060808587031215612a2957612a2861372a565b5b6000612a378782880161288a565b9450506020612a488782880161288a565b9350506040612a598782880161293a565b925050606085013567ffffffffffffffff811115612a7a57612a79613725565b5b612a86878288016128de565b91505092959194509250565b60008060408385031215612aa957612aa861372a565b5b6000612ab78582860161288a565b9250506020612ac88582860161289f565b9150509250929050565b60008060408385031215612ae957612ae861372a565b5b6000612af78582860161288a565b9250506020612b088582860161293a565b9150509250929050565b600060208284031215612b2857612b2761372a565b5b6000612b36848285016128b4565b91505092915050565b600060208284031215612b5557612b5461372a565b5b6000612b63848285016128c9565b91505092915050565b600060208284031215612b8257612b8161372a565b5b600082013567ffffffffffffffff811115612ba057612b9f613725565b5b612bac8482850161290c565b91505092915050565b60008060408385031215612bcc57612bcb61372a565b5b600083013567ffffffffffffffff811115612bea57612be9613725565b5b612bf68582860161290c565b9250506020612c078582860161293a565b9150509250929050565b600060208284031215612c2757612c2661372a565b5b6000612c358482850161293a565b91505092915050565b60008060408385031215612c5557612c5461372a565b5b6000612c638582860161293a565b925050602083013567ffffffffffffffff811115612c8457612c83613725565b5b612c908582860161290c565b9150509250929050565b60008060008060808587031215612cb457612cb361372a565b5b6000612cc28782880161293a565b945050602085013567ffffffffffffffff811115612ce357612ce2613725565b5b612cef8782880161290c565b935050604085013567ffffffffffffffff811115612d1057612d0f613725565b5b612d1c8782880161290c565b9250506060612d2d8782880161293a565b91505092959194509250565b60008060408385031215612d5057612d4f61372a565b5b6000612d5e8582860161293a565b9250506020612d6f8582860161293a565b9150509250929050565b600080600060608486031215612d9257612d9161372a565b5b6000612da08682870161293a565b9350506020612db18682870161293a565b925050604084013567ffffffffffffffff811115612dd257612dd1613725565b5b612dde8682870161290c565b9150509250925092565b6000612df48383612f47565b905092915050565b612e05816134ce565b82525050565b6000612e16826133c7565b612e2081856133f5565b935083602082028501612e32856133a2565b8060005b85811015612e6e5784840389528151612e4f8582612de8565b9450612e5a836133e8565b925060208a01995050600181019050612e36565b50829750879550505050505092915050565b612e89816134e0565b82525050565b6000612e9a826133d2565b612ea48185613406565b9350612eb4818560208601613551565b612ebd8161372f565b840191505092915050565b60008154612ed581613584565b612edf8186613417565b94506001821660008114612efa5760018114612f0b57612f3e565b60ff19831686528186019350612f3e565b612f14856133b2565b60005b83811015612f3657815481890152600182019150602081019050612f17565b838801955050505b50505092915050565b6000612f52826133dd565b612f5c8185613422565b9350612f6c818560208601613551565b612f758161372f565b840191505092915050565b6000612f8b826133dd565b612f958185613433565b9350612fa5818560208601613551565b612fae8161372f565b840191505092915050565b6000612fc6602d83613433565b9150612fd182613740565b604082019050919050565b6000612fe9603283613433565b9150612ff48261378f565b604082019050919050565b600061300c602583613433565b9150613017826137de565b604082019050919050565b600061302f602483613433565b915061303a8261382d565b604082019050919050565b6000613052601983613433565b915061305d8261387c565b602082019050919050565b6000613075602983613433565b9150613080826138a5565b604082019050919050565b6000613098601883613433565b91506130a3826138f4565b602082019050919050565b60006130bb602183613433565b91506130c68261391d565b604082019050919050565b60006130de603d83613433565b91506130e98261396c565b604082019050919050565b6130fd81613538565b82525050565b600061310f8284612ec8565b915081905092915050565b600060208201905061312f6000830184612dfc565b92915050565b600060808201905061314a6000830187612dfc565b6131576020830186612dfc565b61316460408301856130f4565b81810360608301526131768184612e8f565b905095945050505050565b6000602082019050818103600083015261319b8184612e0b565b905092915050565b60006020820190506131b86000830184612e80565b92915050565b600060208201905081810360008301526131d88184612f80565b905092915050565b600060208201905081810360008301526131f981612fb9565b9050919050565b6000602082019050818103600083015261321981612fdc565b9050919050565b6000602082019050818103600083015261323981612fff565b9050919050565b6000602082019050818103600083015261325981613022565b9050919050565b6000602082019050818103600083015261327981613045565b9050919050565b6000602082019050818103600083015261329981613068565b9050919050565b600060208201905081810360008301526132b98161308b565b9050919050565b600060208201905081810360008301526132d9816130ae565b9050919050565b600060208201905081810360008301526132f9816130d1565b9050919050565b600060208201905061331560008301846130f4565b92915050565b6000613325613336565b905061333182826135b6565b919050565b6000604051905090565b600067ffffffffffffffff82111561335b5761335a6136ec565b5b6133648261372f565b9050602081019050919050565b600067ffffffffffffffff82111561338c5761338b6136ec565b5b6133958261372f565b9050602081019050919050565b6000819050602082019050919050565b60008190508160005260206000209050919050565b600081519050919050565b600081519050919050565b600081519050919050565b6000602082019050919050565b600082825260208201905092915050565b600082825260208201905092915050565b600081905092915050565b600082825260208201905092915050565b600082825260208201905092915050565b600061344f82613538565b915061345a83613538565b9250827fffffffffffffffffffffffffffffffffffffffffffffffffffffffffffffffff0382111561348f5761348e613630565b5b828201905092915050565b60006134a582613538565b91506134b083613538565b9250828210156134c3576134c2613630565b5b828203905092915050565b60006134d982613518565b9050919050565b60008115159050919050565b60007fffffffff0000000000000000000000000000000000000000000000000000000082169050919050565b600073ffffffffffffffffffffffffffffffffffffffff82169050919050565b6000819050919050565b82818337600083830152505050565b60005b8381101561356f578082015181840152602081019050613554565b8381111561357e576000848401525b50505050565b6000600282049050600182168061359c57607f821691505b602082108114156135b0576135af61368e565b5b50919050565b6135bf8261372f565b810181811067ffffffffffffffff821117156135de576135dd6136ec565b5b80604052505050565b60006135f282613538565b91507fffffffffffffffffffffffffffffffffffffffffffffffffffffffffffffffff82141561362557613624613630565b5b600182019050919050565b7f4e487b7100000000000000000000000000000000000000000000000000000000600052601160045260246000fd5b7f4e487b7100000000000000000000000000000000000000000000000000000000600052601260045260246000fd5b7f4e487b7100000000000000000000000000000000000000000000000000000000600052602260045260246000fd5b7f4e487b7100000000000000000000000000000000000000000000000000000000600052603260045260246000fd5b7f4e487b7100000000000000000000000000000000000000000000000000000000600052604160045260246000fd5b600080fd5b600080fd5b600080fd5b600080fd5b6000601f19601f8301169050919050565b7f4552433732313a2063616c6c6572206973206e6f7420746f6b656e206f776e6560008201527f72206f7220617070726f76656400000000000000000000000000000000000000602082015250565b7f4552433732313a207472616e7366657220746f206e6f6e20455243373231526560008201527f63656976657220696d706c656d656e7465720000000000000000000000000000602082015250565b7f4552433732313a207472616e736665722066726f6d20696e636f72726563742060008201527f6f776e6572000000000000000000000000000000000000000000000000000000602082015250565b7f4552433732313a207472616e7366657220746f20746865207a65726f2061646460008201527f7265737300000000000000000000000000000000000000000000000000000000602082015250565b7f4552433732313a20617070726f766520746f2063616c6c657200000000000000600082015250565b7f4552433732313a2061646472657373207a65726f206973206e6f74206120766160008201527f6c6964206f776e65720000000000000000000000000000000000000000000000602082015250565b7f4552433732313a20696e76616c696420746f6b656e2049440000000000000000600082015250565b7f4552433732313a20617070726f76616c20746f2063757272656e74206f776e6560008201527f7200000000000000000000000000000000000000000000000000000000000000602082015250565b7f4552433732313a20617070726f76652063616c6c6572206973206e6f7420746f60008201527f6b656e206f776e6572206f7220617070726f76656420666f7220616c6c000000602082015250565b6139c4816134ce565b81146139cf57600080fd5b50565b6139db816134e0565b81146139e657600080fd5b50565b6139f2816134ec565b81146139fd57600080fd5b50565b613a0981613538565b8114613a1457600080fd5b5056fea26469706673582212207fcbcf4769c835b8c0da4b5f118130608369a7d53707b2476c1468261ff7d6f964736f6c63430008060033","opcodes":"PUSH1 0x80 PUSH1 0x40 MSTORE CALLVALUE DUP1 ISZERO PUSH3 0x11 JUMPI PUSH1 0x0 DUP1 REVERT JUMPDEST POP PUSH1 0x40 MLOAD PUSH3 0x3E09 CODESIZE SUB DUP1 PUSH3 0x3E09 DUP4 CODECOPY DUP2 DUP2 ADD PUSH1 0x40 MSTORE DUP2 ADD SWAP1 PUSH3 0x37 SWAP2 SWAP1 PUSH3 0x1A3 JUMP JUMPDEST DUP2 DUP2 DUP2 PUSH1 0x0 SWAP1 DUP1 MLOAD SWAP1 PUSH1 0x20 ADD SWAP1 PUSH3 0x51 SWAP3 SWAP2 SWAP1 PUSH3 0x75 JUMP JUMPDEST POP DUP1 PUSH1 0x1 SWAP1 DUP1 MLOAD SWAP1 PUSH1 0x20 ADD SWAP1 PUSH3 0x6A SWAP3 SWAP2 SWAP1 PUSH3 0x75 JUMP JUMPDEST POP POP POP POP POP PUSH3 0x3AC JUMP JUMPDEST DUP3 DUP1 SLOAD PUSH3 0x83 SWAP1 PUSH3 0x2BD JUMP JUMPDEST SWAP1 PUSH1 0x0 MSTORE PUSH1 0x20 PUSH1 0x0 KECCAK256 SWAP1 PUSH1 0x1F ADD PUSH1 0x20 SWAP1 DIV DUP2 ADD SWAP3 DUP3 PUSH3 0xA7 JUMPI PUSH1 0x0 DUP6 SSTORE PUSH3 0xF3 JUMP JUMPDEST DUP3 PUSH1 0x1F LT PUSH3 0xC2 JUMPI DUP1 MLOAD PUSH1 0xFF NOT AND DUP4 DUP1 ADD OR DUP6 SSTORE PUSH3 0xF3 JUMP JUMPDEST DUP3 DUP1 ADD PUSH1 0x1 ADD DUP6 SSTORE DUP3 ISZERO PUSH3 0xF3 JUMPI SWAP2 DUP3 ADD JUMPDEST DUP3 DUP2 GT ISZERO PUSH3 0xF2 JUMPI DUP3 MLOAD DUP3 SSTORE SWAP2 PUSH1 0x20 ADD SWAP2 SWAP1 PUSH1 0x1 ADD SWAP1 PUSH3 0xD5 JUMP JUMPDEST JUMPDEST POP SWAP1 POP PUSH3 0x102 SWAP2 SWAP1 PUSH3 0x106 JUMP JUMPDEST POP SWAP1 JUMP JUMPDEST JUMPDEST DUP1 DUP3 GT ISZERO PUSH3 0x121 JUMPI PUSH1 0x0 DUP2 PUSH1 0x0 SWAP1 SSTORE POP PUSH1 0x1 ADD PUSH3 0x107 JUMP JUMPDEST POP SWAP1 JUMP JUMPDEST PUSH1 0x0 PUSH3 0x13C PUSH3 0x136 DUP5 PUSH3 0x251 JUMP JUMPDEST PUSH3 0x228 JUMP JUMPDEST SWAP1 POP DUP3 DUP2 MSTORE PUSH1 0x20 DUP2 ADD DUP5 DUP5 DUP5 ADD GT ISZERO PUSH3 0x15B JUMPI PUSH3 0x15A PUSH3 0x38C JUMP JUMPDEST JUMPDEST PUSH3 0x168 DUP5 DUP3 DUP6 PUSH3 0x287 JUMP JUMPDEST POP SWAP4 SWAP3 POP POP POP JUMP JUMPDEST PUSH1 0x0 DUP3 PUSH1 0x1F DUP4 ADD SLT PUSH3 0x188 JUMPI PUSH3 0x187 PUSH3 0x387 JUMP JUMPDEST JUMPDEST DUP2 MLOAD PUSH3 0x19A DUP5 DUP3 PUSH1 0x20 DUP7 ADD PUSH3 0x125 JUMP JUMPDEST SWAP2 POP POP SWAP3 SWAP2 POP POP JUMP JUMPDEST PUSH1 0x0 DUP1 PUSH1 0x40 DUP4 DUP6 SUB SLT ISZERO PUSH3 0x1BD JUMPI PUSH3 0x1BC PUSH3 0x396 JUMP JUMPDEST JUMPDEST PUSH1 0x0 DUP4 ADD MLOAD PUSH8 0xFFFFFFFFFFFFFFFF DUP2 GT ISZERO PUSH3 0x1DE JUMPI PUSH3 0x1DD PUSH3 0x391 JUMP JUMPDEST JUMPDEST PUSH3 0x1EC DUP6 DUP3 DUP7 ADD PUSH3 0x170 JUMP JUMPDEST SWAP3 POP POP PUSH1 0x20 DUP4 ADD MLOAD PUSH8 0xFFFFFFFFFFFFFFFF DUP2 GT ISZERO PUSH3 0x210 JUMPI PUSH3 0x20F PUSH3 0x391 JUMP JUMPDEST JUMPDEST PUSH3 0x21E DUP6 DUP3 DUP7 ADD PUSH3 0x170 JUMP JUMPDEST SWAP2 POP POP SWAP3 POP SWAP3 SWAP1 POP JUMP JUMPDEST PUSH1 0x0 PUSH3 0x234 PUSH3 0x247 JUMP JUMPDEST SWAP1 POP PUSH3 0x242 DUP3 DUP3 PUSH3 0x2F3 JUMP JUMPDEST SWAP2 SWAP1 POP JUMP JUMPDEST PUSH1 0x0 PUSH1 0x40 MLOAD SWAP1 POP SWAP1 JUMP JUMPDEST PUSH1 0x0 PUSH8 0xFFFFFFFFFFFFFFFF DUP3 GT ISZERO PUSH3 0x26F JUMPI PUSH3 0x26E PUSH3 0x358 JUMP JUMPDEST JUMPDEST PUSH3 0x27A DUP3 PUSH3 0x39B JUMP JUMPDEST SWAP1 POP PUSH1 0x20 DUP2 ADD SWAP1 POP SWAP2 SWAP1 POP JUMP JUMPDEST PUSH1 0x0 JUMPDEST DUP4 DUP2 LT ISZERO PUSH3 0x2A7 JUMPI DUP1 DUP3 ADD MLOAD DUP2 DUP5 ADD MSTORE PUSH1 0x20 DUP2 ADD SWAP1 POP PUSH3 0x28A JUMP JUMPDEST DUP4 DUP2 GT ISZERO PUSH3 0x2B7 JUMPI PUSH1 0x0 DUP5 DUP5 ADD MSTORE JUMPDEST POP POP POP POP JUMP JUMPDEST PUSH1 0x0 PUSH1 0x2 DUP3 DIV SWAP1 POP PUSH1 0x1 DUP3 AND DUP1 PUSH3 0x2D6 JUMPI PUSH1 0x7F DUP3 AND SWAP2 POP JUMPDEST PUSH1 0x20 DUP3 LT DUP2 EQ ISZERO PUSH3 0x2ED JUMPI PUSH3 0x2EC PUSH3 0x329 JUMP JUMPDEST JUMPDEST POP SWAP2 SWAP1 POP JUMP JUMPDEST PUSH3 0x2FE DUP3 PUSH3 0x39B JUMP JUMPDEST DUP2 ADD DUP2 DUP2 LT PUSH8 0xFFFFFFFFFFFFFFFF DUP3 GT OR ISZERO PUSH3 0x320 JUMPI PUSH3 0x31F PUSH3 0x358 JUMP JUMPDEST JUMPDEST DUP1 PUSH1 0x40 MSTORE POP POP POP JUMP JUMPDEST PUSH32 0x4E487B7100000000000000000000000000000000000000000000000000000000 PUSH1 0x0 MSTORE PUSH1 0x22 PUSH1 0x4 MSTORE PUSH1 0x24 PUSH1 0x0 REVERT JUMPDEST PUSH32 0x4E487B7100000000000000000000000000000000000000000000000000000000 PUSH1 0x0 MSTORE PUSH1 0x41 PUSH1 0x4 MSTORE PUSH1 0x24 PUSH1 0x0 REVERT JUMPDEST PUSH1 0x0 DUP1 REVERT JUMPDEST PUSH1 0x0 DUP1 REVERT JUMPDEST PUSH1 0x0 DUP1 REVERT JUMPDEST PUSH1 0x0 DUP1 REVERT JUMPDEST PUSH1 0x0 PUSH1 0x1F NOT PUSH1 0x1F DUP4 ADD AND SWAP1 POP SWAP2 SWAP1 POP JUMP JUMPDEST PUSH2 0x3A4D DUP1 PUSH3 0x3BC PUSH1 0x0 CODECOPY PUSH1 0x0 RETURN INVALID PUSH1 0x80 PUSH1 0x40 MSTORE CALLVALUE DUP1 ISZERO PUSH2 0x10 JUMPI PUSH1 0x0 DUP1 REVERT JUMPDEST POP PUSH1 0x4 CALLDATASIZE LT PUSH2 0x206 JUMPI PUSH1 0x0 CALLDATALOAD PUSH1 0xE0 SHR DUP1 PUSH4 0x70A08231 GT PUSH2 0x11A JUMPI DUP1 PUSH4 0xAED47961 GT PUSH2 0xAD JUMPI DUP1 PUSH4 0xD45FC516 GT PUSH2 0x7C JUMPI DUP1 PUSH4 0xD45FC516 EQ PUSH2 0x66D JUMPI DUP1 PUSH4 0xD654E993 EQ PUSH2 0x69D JUMPI DUP1 PUSH4 0xE08033D3 EQ PUSH2 0x6B9 JUMPI DUP1 PUSH4 0xE985E9C5 EQ PUSH2 0x6D5 JUMPI DUP1 PUSH4 0xEB1D234D EQ PUSH2 0x705 JUMPI PUSH2 0x206 JUMP JUMPDEST DUP1 PUSH4 0xAED47961 EQ PUSH2 0x5C1 JUMPI DUP1 PUSH4 0xB10A5DFA EQ PUSH2 0x5F1 JUMPI DUP1 PUSH4 0xB88D4FDE EQ PUSH2 0x621 JUMPI DUP1 PUSH4 0xC87B56DD EQ PUSH2 0x63D JUMPI PUSH2 0x206 JUMP JUMPDEST DUP1 PUSH4 0x95D89B41 GT PUSH2 0xE9 JUMPI DUP1 PUSH4 0x95D89B41 EQ PUSH2 0x527 JUMPI DUP1 PUSH4 0x9BC2BC71 EQ PUSH2 0x545 JUMPI DUP1 PUSH4 0xA0FD0C6A EQ PUSH2 0x575 JUMPI DUP1 PUSH4 0xA22CB465 EQ PUSH2 0x5A5 JUMPI PUSH2 0x206 JUMP JUMPDEST DUP1 PUSH4 0x70A08231 EQ PUSH2 0x479 JUMPI DUP1 PUSH4 0x7CEDBC1E EQ PUSH2 0x4A9 JUMPI DUP1 PUSH4 0x7EADFA6A EQ PUSH2 0x4D9 JUMPI DUP1 PUSH4 0x932A196B EQ PUSH2 0x4F7 JUMPI PUSH2 0x206 JUMP JUMPDEST DUP1 PUSH4 0x1CD043D6 GT PUSH2 0x19D JUMPI DUP1 PUSH4 0x42842E0E GT PUSH2 0x16C JUMPI DUP1 PUSH4 0x42842E0E EQ PUSH2 0x39D JUMPI DUP1 PUSH4 0x446A92E3 EQ PUSH2 0x3B9 JUMPI DUP1 PUSH4 0x44F659B7 EQ PUSH2 0x3E9 JUMPI DUP1 PUSH4 0x5154380A EQ PUSH2 0x419 JUMPI DUP1 PUSH4 0x6352211E EQ PUSH2 0x449 JUMPI PUSH2 0x206 JUMP JUMPDEST DUP1 PUSH4 0x1CD043D6 EQ PUSH2 0x319 JUMPI DUP1 PUSH4 0x23B872DD EQ PUSH2 0x335 JUMPI DUP1 PUSH4 0x28520AB7 EQ PUSH2 0x351 JUMPI DUP1 PUSH4 0x3592DD80 EQ PUSH2 0x381 JUMPI PUSH2 0x206 JUMP JUMPDEST DUP1 PUSH4 0x95EA7B3 GT PUSH2 0x1D9 JUMPI DUP1 PUSH4 0x95EA7B3 EQ PUSH2 0x2A5 JUMPI DUP1 PUSH4 0xDA3C49C EQ PUSH2 0x2C1 JUMPI DUP1 PUSH4 0x144CBCA6 EQ PUSH2 0x2DD JUMPI DUP1 PUSH4 0x18160DDD EQ PUSH2 0x2FB JUMPI PUSH2 0x206 JUMP JUMPDEST DUP1 PUSH4 0x1538868 EQ PUSH2 0x20B JUMPI DUP1 PUSH4 0x1FFC9A7 EQ PUSH2 0x227 JUMPI DUP1 PUSH4 0x6FDDE03 EQ PUSH2 0x257 JUMPI DUP1 PUSH4 0x81812FC EQ PUSH2 0x275 JUMPI JUMPDEST PUSH1 0x0 DUP1 REVERT JUMPDEST PUSH2 0x225 PUSH1 0x4 DUP1 CALLDATASIZE SUB DUP2 ADD SWAP1 PUSH2 0x220 SWAP2 SWAP1 PUSH2 0x2C3E JUMP JUMPDEST PUSH2 0x735 JUMP JUMPDEST STOP JUMPDEST PUSH2 0x241 PUSH1 0x4 DUP1 CALLDATASIZE SUB DUP2 ADD SWAP1 PUSH2 0x23C SWAP2 SWAP1 PUSH2 0x2B12 JUMP JUMPDEST PUSH2 0x761 JUMP JUMPDEST PUSH1 0x40 MLOAD PUSH2 0x24E SWAP2 SWAP1 PUSH2 0x31A3 JUMP JUMPDEST PUSH1 0x40 MLOAD DUP1 SWAP2 SUB SWAP1 RETURN JUMPDEST PUSH2 0x25F PUSH2 0x843 JUMP JUMPDEST PUSH1 0x40 MLOAD PUSH2 0x26C SWAP2 SWAP1 PUSH2 0x31BE JUMP JUMPDEST PUSH1 0x40 MLOAD DUP1 SWAP2 SUB SWAP1 RETURN JUMPDEST PUSH2 0x28F PUSH1 0x4 DUP1 CALLDATASIZE SUB DUP2 ADD SWAP1 PUSH2 0x28A SWAP2 SWAP1 PUSH2 0x2C11 JUMP JUMPDEST PUSH2 0x8D5 JUMP JUMPDEST PUSH1 0x40 MLOAD PUSH2 0x29C SWAP2 SWAP1 PUSH2 0x311A JUMP JUMPDEST PUSH1 0x40 MLOAD DUP1 SWAP2 SUB SWAP1 RETURN JUMPDEST PUSH2 0x2BF PUSH1 0x4 DUP1 CALLDATASIZE SUB DUP2 ADD SWAP1 PUSH2 0x2BA SWAP2 SWAP1 PUSH2 0x2AD2 JUMP JUMPDEST PUSH2 0x91B JUMP JUMPDEST STOP JUMPDEST PUSH2 0x2DB PUSH1 0x4 DUP1 CALLDATASIZE SUB DUP2 ADD SWAP1 PUSH2 0x2D6 SWAP2 SWAP1 PUSH2 0x2C9A JUMP JUMPDEST PUSH2 0xA33 JUMP JUMPDEST STOP JUMPDEST PUSH2 0x2E5 PUSH2 0xB53 JUMP JUMPDEST PUSH1 0x40 MLOAD PUSH2 0x2F2 SWAP2 SWAP1 PUSH2 0x3300 JUMP JUMPDEST PUSH1 0x40 MLOAD DUP1 SWAP2 SUB SWAP1 RETURN JUMPDEST PUSH2 0x303 PUSH2 0xB59 JUMP JUMPDEST PUSH1 0x40 MLOAD PUSH2 0x310 SWAP2 SWAP1 PUSH2 0x3300 JUMP JUMPDEST PUSH1 0x40 MLOAD DUP1 SWAP2 SUB SWAP1 RETURN JUMPDEST PUSH2 0x333 PUSH1 0x4 DUP1 CALLDATASIZE SUB DUP2 ADD SWAP1 PUSH2 0x32E SWAP2 SWAP1 PUSH2 0x2C3E JUMP JUMPDEST PUSH2 0xB63 JUMP JUMPDEST STOP JUMPDEST PUSH2 0x34F PUSH1 0x4 DUP1 CALLDATASIZE SUB DUP2 ADD SWAP1 PUSH2 0x34A SWAP2 SWAP1 PUSH2 0x29BC JUMP JUMPDEST PUSH2 0xB8F JUMP JUMPDEST STOP JUMPDEST PUSH2 0x36B PUSH1 0x4 DUP1 CALLDATASIZE SUB DUP2 ADD SWAP1 PUSH2 0x366 SWAP2 SWAP1 PUSH2 0x2C3E JUMP JUMPDEST PUSH2 0xBEF JUMP JUMPDEST PUSH1 0x40 MLOAD PUSH2 0x378 SWAP2 SWAP1 PUSH2 0x3300 JUMP JUMPDEST PUSH1 0x40 MLOAD DUP1 SWAP2 SUB SWAP1 RETURN JUMPDEST PUSH2 0x39B PUSH1 0x4 DUP1 CALLDATASIZE SUB DUP2 ADD SWAP1 PUSH2 0x396 SWAP2 SWAP1 PUSH2 0x2D79 JUMP JUMPDEST PUSH2 0xCC8 JUMP JUMPDEST STOP JUMPDEST PUSH2 0x3B7 PUSH1 0x4 DUP1 CALLDATASIZE SUB DUP2 ADD SWAP1 PUSH2 0x3B2 SWAP2 SWAP1 PUSH2 0x29BC JUMP JUMPDEST PUSH2 0xD0C JUMP JUMPDEST STOP JUMPDEST PUSH2 0x3D3 PUSH1 0x4 DUP1 CALLDATASIZE SUB DUP2 ADD SWAP1 PUSH2 0x3CE SWAP2 SWAP1 PUSH2 0x2C11 JUMP JUMPDEST PUSH2 0xD2C JUMP JUMPDEST PUSH1 0x40 MLOAD PUSH2 0x3E0 SWAP2 SWAP1 PUSH2 0x31BE JUMP JUMPDEST PUSH1 0x40 MLOAD DUP1 SWAP2 SUB SWAP1 RETURN JUMPDEST PUSH2 0x403 PUSH1 0x4 DUP1 CALLDATASIZE SUB DUP2 ADD SWAP1 PUSH2 0x3FE SWAP2 SWAP1 PUSH2 0x2BB5 JUMP JUMPDEST PUSH2 0xDD1 JUMP JUMPDEST PUSH1 0x40 MLOAD PUSH2 0x410 SWAP2 SWAP1 PUSH2 0x3300 JUMP JUMPDEST PUSH1 0x40 MLOAD DUP1 SWAP2 SUB SWAP1 RETURN JUMPDEST PUSH2 0x433 PUSH1 0x4 DUP1 CALLDATASIZE SUB DUP2 ADD SWAP1 PUSH2 0x42E SWAP2 SWAP1 PUSH2 0x2C11 JUMP JUMPDEST PUSH2 0xE27 JUMP JUMPDEST PUSH1 0x40 MLOAD PUSH2 0x440 SWAP2 SWAP1 PUSH2 0x3181 JUMP JUMPDEST PUSH1 0x40 MLOAD DUP1 SWAP2 SUB SWAP1 RETURN JUMPDEST PUSH2 0x463 PUSH1 0x4 DUP1 CALLDATASIZE SUB DUP2 ADD SWAP1 PUSH2 0x45E SWAP2 SWAP1 PUSH2 0x2C11 JUMP JUMPDEST PUSH2 0xFD7 JUMP JUMPDEST PUSH1 0x40 MLOAD PUSH2 0x470 SWAP2 SWAP1 PUSH2 0x311A JUMP JUMPDEST PUSH1 0x40 MLOAD DUP1 SWAP2 SUB SWAP1 RETURN JUMPDEST PUSH2 0x493 PUSH1 0x4 DUP1 CALLDATASIZE SUB DUP2 ADD SWAP1 PUSH2 0x48E SWAP2 SWAP1 PUSH2 0x294F JUMP JUMPDEST PUSH2 0x105E JUMP JUMPDEST PUSH1 0x40 MLOAD PUSH2 0x4A0 SWAP2 SWAP1 PUSH2 0x3300 JUMP JUMPDEST PUSH1 0x40 MLOAD DUP1 SWAP2 SUB SWAP1 RETURN JUMPDEST PUSH2 0x4C3 PUSH1 0x4 DUP1 CALLDATASIZE SUB DUP2 ADD SWAP1 PUSH2 0x4BE SWAP2 SWAP1 PUSH2 0x2C11 JUMP JUMPDEST PUSH2 0x1116 JUMP JUMPDEST PUSH1 0x40 MLOAD PUSH2 0x4D0 SWAP2 SWAP1 PUSH2 0x31BE JUMP JUMPDEST PUSH1 0x40 MLOAD DUP1 SWAP2 SUB SWAP1 RETURN JUMPDEST PUSH2 0x4E1 PUSH2 0x11CF JUMP JUMPDEST PUSH1 0x40 MLOAD PUSH2 0x4EE SWAP2 SWAP1 PUSH2 0x3300 JUMP JUMPDEST PUSH1 0x40 MLOAD DUP1 SWAP2 SUB SWAP1 RETURN JUMPDEST PUSH2 0x511 PUSH1 0x4 DUP1 CALLDATASIZE SUB DUP2 ADD SWAP1 PUSH2 0x50C SWAP2 SWAP1 PUSH2 0x2B6C JUMP JUMPDEST PUSH2 0x11D9 JUMP JUMPDEST PUSH1 0x40 MLOAD PUSH2 0x51E SWAP2 SWAP1 PUSH2 0x3300 JUMP JUMPDEST PUSH1 0x40 MLOAD DUP1 SWAP2 SUB SWAP1 RETURN JUMPDEST PUSH2 0x52F PUSH2 0x1248 JUMP JUMPDEST PUSH1 0x40 MLOAD PUSH2 0x53C SWAP2 SWAP1 PUSH2 0x31BE JUMP JUMPDEST PUSH1 0x40 MLOAD DUP1 SWAP2 SUB SWAP1 RETURN JUMPDEST PUSH2 0x55F PUSH1 0x4 DUP1 CALLDATASIZE SUB DUP2 ADD SWAP1 PUSH2 0x55A SWAP2 SWAP1 PUSH2 0x2B6C JUMP JUMPDEST PUSH2 0x12DA JUMP JUMPDEST PUSH1 0x40 MLOAD PUSH2 0x56C SWAP2 SWAP1 PUSH2 0x3300 JUMP JUMPDEST PUSH1 0x40 MLOAD DUP1 SWAP2 SUB SWAP1 RETURN JUMPDEST PUSH2 0x58F PUSH1 0x4 DUP1 CALLDATASIZE SUB DUP2 ADD SWAP1 PUSH2 0x58A SWAP2 SWAP1 PUSH2 0x2C11 JUMP JUMPDEST PUSH2 0x130A JUMP JUMPDEST PUSH1 0x40 MLOAD PUSH2 0x59C SWAP2 SWAP1 PUSH2 0x31BE JUMP JUMPDEST PUSH1 0x40 MLOAD DUP1 SWAP2 SUB SWAP1 RETURN JUMPDEST PUSH2 0x5BF PUSH1 0x4 DUP1 CALLDATASIZE SUB DUP2 ADD SWAP1 PUSH2 0x5BA SWAP2 SWAP1 PUSH2 0x2A92 JUMP JUMPDEST PUSH2 0x13AF JUMP JUMPDEST STOP JUMPDEST PUSH2 0x5DB PUSH1 0x4 DUP1 CALLDATASIZE SUB DUP2 ADD SWAP1 PUSH2 0x5D6 SWAP2 SWAP1 PUSH2 0x2C11 JUMP JUMPDEST PUSH2 0x13C5 JUMP JUMPDEST PUSH1 0x40 MLOAD PUSH2 0x5E8 SWAP2 SWAP1 PUSH2 0x3181 JUMP JUMPDEST PUSH1 0x40 MLOAD DUP1 SWAP2 SUB SWAP1 RETURN JUMPDEST PUSH2 0x60B PUSH1 0x4 DUP1 CALLDATASIZE SUB DUP2 ADD SWAP1 PUSH2 0x606 SWAP2 SWAP1 PUSH2 0x2D39 JUMP JUMPDEST PUSH2 0x1575 JUMP JUMPDEST PUSH1 0x40 MLOAD PUSH2 0x618 SWAP2 SWAP1 PUSH2 0x31BE JUMP JUMPDEST PUSH1 0x40 MLOAD DUP1 SWAP2 SUB SWAP1 RETURN JUMPDEST PUSH2 0x63B PUSH1 0x4 DUP1 CALLDATASIZE SUB DUP2 ADD SWAP1 PUSH2 0x636 SWAP2 SWAP1 PUSH2 0x2A0F JUMP JUMPDEST PUSH2 0x1625 JUMP JUMPDEST STOP JUMPDEST PUSH2 0x657 PUSH1 0x4 DUP1 CALLDATASIZE SUB DUP2 ADD SWAP1 PUSH2 0x652 SWAP2 SWAP1 PUSH2 0x2C11 JUMP JUMPDEST PUSH2 0x1687 JUMP JUMPDEST PUSH1 0x40 MLOAD PUSH2 0x664 SWAP2 SWAP1 PUSH2 0x31BE JUMP JUMPDEST PUSH1 0x40 MLOAD DUP1 SWAP2 SUB SWAP1 RETURN JUMPDEST PUSH2 0x687 PUSH1 0x4 DUP1 CALLDATASIZE SUB DUP2 ADD SWAP1 PUSH2 0x682 SWAP2 SWAP1 PUSH2 0x2B6C JUMP JUMPDEST PUSH2 0x172C JUMP JUMPDEST PUSH1 0x40 MLOAD PUSH2 0x694 SWAP2 SWAP1 PUSH2 0x3300 JUMP JUMPDEST PUSH1 0x40 MLOAD DUP1 SWAP2 SUB SWAP1 RETURN JUMPDEST PUSH2 0x6B7 PUSH1 0x4 DUP1 CALLDATASIZE SUB DUP2 ADD SWAP1 PUSH2 0x6B2 SWAP2 SWAP1 PUSH2 0x2D79 JUMP JUMPDEST PUSH2 0x179B JUMP JUMPDEST STOP JUMPDEST PUSH2 0x6D3 PUSH1 0x4 DUP1 CALLDATASIZE SUB DUP2 ADD SWAP1 PUSH2 0x6CE SWAP2 SWAP1 PUSH2 0x2C3E JUMP JUMPDEST PUSH2 0x17DF JUMP JUMPDEST STOP JUMPDEST PUSH2 0x6EF PUSH1 0x4 DUP1 CALLDATASIZE SUB DUP2 ADD SWAP1 PUSH2 0x6EA SWAP2 SWAP1 PUSH2 0x297C JUMP JUMPDEST PUSH2 0x180B JUMP JUMPDEST PUSH1 0x40 MLOAD PUSH2 0x6FC SWAP2 SWAP1 PUSH2 0x31A3 JUMP JUMPDEST PUSH1 0x40 MLOAD DUP1 SWAP2 SUB SWAP1 RETURN JUMPDEST PUSH2 0x71F PUSH1 0x4 DUP1 CALLDATASIZE SUB DUP2 ADD SWAP1 PUSH2 0x71A SWAP2 SWAP1 PUSH2 0x2C11 JUMP JUMPDEST PUSH2 0x189F JUMP JUMPDEST PUSH1 0x40 MLOAD PUSH2 0x72C SWAP2 SWAP1 PUSH2 0x3181 JUMP JUMPDEST PUSH1 0x40 MLOAD DUP1 SWAP2 SUB SWAP1 RETURN JUMPDEST DUP1 PUSH1 0x12 PUSH1 0x0 DUP5 DUP2 MSTORE PUSH1 0x20 ADD SWAP1 DUP2 MSTORE PUSH1 0x20 ADD PUSH1 0x0 KECCAK256 SWAP1 DUP1 MLOAD SWAP1 PUSH1 0x20 ADD SWAP1 PUSH2 0x75C SWAP3 SWAP2 SWAP1 PUSH2 0x26AC JUMP JUMPDEST POP POP POP JUMP JUMPDEST PUSH1 0x0 PUSH32 0x80AC58CD00000000000000000000000000000000000000000000000000000000 PUSH28 0xFFFFFFFFFFFFFFFFFFFFFFFFFFFFFFFFFFFFFFFFFFFFFFFFFFFFFFFF NOT AND DUP3 PUSH28 0xFFFFFFFFFFFFFFFFFFFFFFFFFFFFFFFFFFFFFFFFFFFFFFFFFFFFFFFF NOT AND EQ DUP1 PUSH2 0x82C JUMPI POP PUSH32 0x5B5E139F00000000000000000000000000000000000000000000000000000000 PUSH28 0xFFFFFFFFFFFFFFFFFFFFFFFFFFFFFFFFFFFFFFFFFFFFFFFFFFFFFFFF NOT AND DUP3 PUSH28 0xFFFFFFFFFFFFFFFFFFFFFFFFFFFFFFFFFFFFFFFFFFFFFFFFFFFFFFFF NOT AND EQ JUMPDEST DUP1 PUSH2 0x83C JUMPI POP PUSH2 0x83B DUP3 PUSH2 0x1A4F JUMP JUMPDEST JUMPDEST SWAP1 POP SWAP2 SWAP1 POP JUMP JUMPDEST PUSH1 0x60 PUSH1 0x0 DUP1 SLOAD PUSH2 0x852 SWAP1 PUSH2 0x3584 JUMP JUMPDEST DUP1 PUSH1 0x1F ADD PUSH1 0x20 DUP1 SWAP2 DIV MUL PUSH1 0x20 ADD PUSH1 0x40 MLOAD SWAP1 DUP2 ADD PUSH1 0x40 MSTORE DUP1 SWAP3 SWAP2 SWAP1 DUP2 DUP2 MSTORE PUSH1 0x20 ADD DUP3 DUP1 SLOAD PUSH2 0x87E SWAP1 PUSH2 0x3584 JUMP JUMPDEST DUP1 ISZERO PUSH2 0x8CB JUMPI DUP1 PUSH1 0x1F LT PUSH2 0x8A0 JUMPI PUSH2 0x100 DUP1 DUP4 SLOAD DIV MUL DUP4 MSTORE SWAP2 PUSH1 0x20 ADD SWAP2 PUSH2 0x8CB JUMP JUMPDEST DUP3 ADD SWAP2 SWAP1 PUSH1 0x0 MSTORE PUSH1 0x20 PUSH1 0x0 KECCAK256 SWAP1 JUMPDEST DUP2 SLOAD DUP2 MSTORE SWAP1 PUSH1 0x1 ADD SWAP1 PUSH1 0x20 ADD DUP1 DUP4 GT PUSH2 0x8AE JUMPI DUP3 SWAP1 SUB PUSH1 0x1F AND DUP3 ADD SWAP2 JUMPDEST POP POP POP POP POP SWAP1 POP SWAP1 JUMP JUMPDEST PUSH1 0x0 PUSH2 0x8E0 DUP3 PUSH2 0x1AB9 JUMP JUMPDEST PUSH1 0x4 PUSH1 0x0 DUP4 DUP2 MSTORE PUSH1 0x20 ADD SWAP1 DUP2 MSTORE PUSH1 0x20 ADD PUSH1 0x0 KECCAK256 PUSH1 0x0 SWAP1 SLOAD SWAP1 PUSH2 0x100 EXP SWAP1 DIV PUSH20 0xFFFFFFFFFFFFFFFFFFFFFFFFFFFFFFFFFFFFFFFF AND SWAP1 POP SWAP2 SWAP1 POP JUMP JUMPDEST PUSH1 0x0 PUSH2 0x926 DUP3 PUSH2 0xFD7 JUMP JUMPDEST SWAP1 POP DUP1 PUSH20 0xFFFFFFFFFFFFFFFFFFFFFFFFFFFFFFFFFFFFFFFF AND DUP4 PUSH20 0xFFFFFFFFFFFFFFFFFFFFFFFFFFFFFFFFFFFFFFFF AND EQ ISZERO PUSH2 0x997 JUMPI PUSH1 0x40 MLOAD PUSH32 0x8C379A000000000000000000000000000000000000000000000000000000000 DUP2 MSTORE PUSH1 0x4 ADD PUSH2 0x98E SWAP1 PUSH2 0x32C0 JUMP JUMPDEST PUSH1 0x40 MLOAD DUP1 SWAP2 SUB SWAP1 REVERT JUMPDEST DUP1 PUSH20 0xFFFFFFFFFFFFFFFFFFFFFFFFFFFFFFFFFFFFFFFF AND PUSH2 0x9B6 PUSH2 0x1B04 JUMP JUMPDEST PUSH20 0xFFFFFFFFFFFFFFFFFFFFFFFFFFFFFFFFFFFFFFFF AND EQ DUP1 PUSH2 0x9E5 JUMPI POP PUSH2 0x9E4 DUP2 PUSH2 0x9DF PUSH2 0x1B04 JUMP JUMPDEST PUSH2 0x180B JUMP JUMPDEST JUMPDEST PUSH2 0xA24 JUMPI PUSH1 0x40 MLOAD PUSH32 0x8C379A000000000000000000000000000000000000000000000000000000000 DUP2 MSTORE PUSH1 0x4 ADD PUSH2 0xA1B SWAP1 PUSH2 0x32E0 JUMP JUMPDEST PUSH1 0x40 MLOAD DUP1 SWAP2 SUB SWAP1 REVERT JUMPDEST PUSH2 0xA2E DUP4 DUP4 PUSH2 0x1B0C JUMP JUMPDEST POP POP POP JUMP JUMPDEST PUSH1 0x0 PUSH2 0xADA DUP3 PUSH1 0x12 PUSH1 0x0 DUP9 DUP2 MSTORE PUSH1 0x20 ADD SWAP1 DUP2 MSTORE PUSH1 0x20 ADD PUSH1 0x0 KECCAK256 DUP1 SLOAD PUSH2 0xA57 SWAP1 PUSH2 0x3584 JUMP JUMPDEST DUP1 PUSH1 0x1F ADD PUSH1 0x20 DUP1 SWAP2 DIV MUL PUSH1 0x20 ADD PUSH1 0x40 MLOAD SWAP1 DUP2 ADD PUSH1 0x40 MSTORE DUP1 SWAP3 SWAP2 SWAP1 DUP2 DUP2 MSTORE PUSH1 0x20 ADD DUP3 DUP1 SLOAD PUSH2 0xA83 SWAP1 PUSH2 0x3584 JUMP JUMPDEST DUP1 ISZERO PUSH2 0xAD0 JUMPI DUP1 PUSH1 0x1F LT PUSH2 0xAA5 JUMPI PUSH2 0x100 DUP1 DUP4 SLOAD DIV MUL DUP4 MSTORE SWAP2 PUSH1 0x20 ADD SWAP2 PUSH2 0xAD0 JUMP JUMPDEST DUP3 ADD SWAP2 SWAP1 PUSH1 0x0 MSTORE PUSH1 0x20 PUSH1 0x0 KECCAK256 SWAP1 JUMPDEST DUP2 SLOAD DUP2 MSTORE SWAP1 PUSH1 0x1 ADD SWAP1 PUSH1 0x20 ADD DUP1 DUP4 GT PUSH2 0xAB3 JUMPI DUP3 SWAP1 SUB PUSH1 0x1F AND DUP3 ADD SWAP2 JUMPDEST POP POP POP POP POP PUSH2 0xBEF JUMP JUMPDEST SWAP1 POP DUP3 PUSH1 0x12 PUSH1 0x0 DUP8 DUP2 MSTORE PUSH1 0x20 ADD SWAP1 DUP2 MSTORE PUSH1 0x20 ADD PUSH1 0x0 KECCAK256 SWAP1 DUP1 MLOAD SWAP1 PUSH1 0x20 ADD SWAP1 PUSH2 0xB03 SWAP3 SWAP2 SWAP1 PUSH2 0x26AC JUMP JUMPDEST POP PUSH2 0xB0F DUP2 DUP4 DUP6 PUSH2 0xCC8 JUMP JUMPDEST PUSH2 0xB1C PUSH1 0xA SLOAD DUP7 DUP7 PUSH2 0x179B JUMP JUMPDEST PUSH1 0xA PUSH1 0x0 DUP2 SLOAD DUP1 SWAP3 SWAP2 SWAP1 PUSH2 0xB2F SWAP1 PUSH2 0x35E7 JUMP JUMPDEST SWAP2 SWAP1 POP SSTORE POP PUSH1 0x7 PUSH1 0x0 DUP2 SLOAD DUP1 SWAP3 SWAP2 SWAP1 PUSH2 0xB47 SWAP1 PUSH2 0x35E7 JUMP JUMPDEST SWAP2 SWAP1 POP SSTORE POP POP POP POP POP POP JUMP JUMPDEST PUSH1 0xD SLOAD DUP2 JUMP JUMPDEST PUSH1 0x0 PUSH1 0x6 SLOAD SWAP1 POP SWAP1 JUMP JUMPDEST DUP1 PUSH1 0x13 PUSH1 0x0 DUP5 DUP2 MSTORE PUSH1 0x20 ADD SWAP1 DUP2 MSTORE PUSH1 0x20 ADD PUSH1 0x0 KECCAK256 SWAP1 DUP1 MLOAD SWAP1 PUSH1 0x20 ADD SWAP1 PUSH2 0xB8A SWAP3 SWAP2 SWAP1 PUSH2 0x26AC JUMP JUMPDEST POP POP POP JUMP JUMPDEST PUSH2 0xBA0 PUSH2 0xB9A PUSH2 0x1B04 JUMP JUMPDEST DUP3 PUSH2 0x1BC5 JUMP JUMPDEST PUSH2 0xBDF JUMPI PUSH1 0x40 MLOAD PUSH32 0x8C379A000000000000000000000000000000000000000000000000000000000 DUP2 MSTORE PUSH1 0x4 ADD PUSH2 0xBD6 SWAP1 PUSH2 0x31E0 JUMP JUMPDEST PUSH1 0x40 MLOAD DUP1 SWAP2 SUB SWAP1 REVERT JUMPDEST PUSH2 0xBEA DUP4 DUP4 DUP4 PUSH2 0x1C5A JUMP JUMPDEST POP POP POP JUMP JUMPDEST PUSH1 0x0 DUP1 PUSH1 0x0 SWAP1 POP JUMPDEST PUSH1 0x9 SLOAD DUP2 LT ISZERO PUSH2 0xCBC JUMPI PUSH2 0xC0A DUP5 PUSH2 0x1F54 JUMP JUMPDEST DUP1 MLOAD SWAP1 PUSH1 0x20 ADD KECCAK256 PUSH1 0xE PUSH1 0x0 DUP4 DUP2 MSTORE PUSH1 0x20 ADD SWAP1 DUP2 MSTORE PUSH1 0x20 ADD PUSH1 0x0 KECCAK256 PUSH1 0x0 PUSH1 0x2 DUP2 LT PUSH2 0xC37 JUMPI PUSH2 0xC36 PUSH2 0x36BD JUMP JUMPDEST JUMPDEST ADD PUSH1 0x40 MLOAD PUSH2 0xC45 SWAP2 SWAP1 PUSH2 0x3103 JUMP JUMPDEST PUSH1 0x40 MLOAD DUP1 SWAP2 SUB SWAP1 KECCAK256 EQ DUP1 ISZERO PUSH2 0xC9B JUMPI POP DUP3 DUP1 MLOAD SWAP1 PUSH1 0x20 ADD KECCAK256 PUSH1 0xE PUSH1 0x0 DUP4 DUP2 MSTORE PUSH1 0x20 ADD SWAP1 DUP2 MSTORE PUSH1 0x20 ADD PUSH1 0x0 KECCAK256 PUSH1 0x1 PUSH1 0x2 DUP2 LT PUSH2 0xC83 JUMPI PUSH2 0xC82 PUSH2 0x36BD JUMP JUMPDEST JUMPDEST ADD PUSH1 0x40 MLOAD PUSH2 0xC91 SWAP2 SWAP1 PUSH2 0x3103 JUMP JUMPDEST PUSH1 0x40 MLOAD DUP1 SWAP2 SUB SWAP1 KECCAK256 EQ JUMPDEST ISZERO PUSH2 0xCA9 JUMPI DUP1 SWAP2 POP POP PUSH2 0xCC2 JUMP JUMPDEST DUP1 DUP1 PUSH2 0xCB4 SWAP1 PUSH2 0x35E7 JUMP JUMPDEST SWAP2 POP POP PUSH2 0xBF7 JUMP JUMPDEST POP PUSH1 0x0 SWAP1 POP JUMPDEST SWAP3 SWAP2 POP POP JUMP JUMPDEST PUSH1 0x40 MLOAD DUP1 PUSH1 0x40 ADD PUSH1 0x40 MSTORE DUP1 PUSH2 0xCDC DUP5 PUSH2 0x1F54 JUMP JUMPDEST DUP2 MSTORE PUSH1 0x20 ADD DUP3 DUP2 MSTORE POP PUSH1 0xE PUSH1 0x0 DUP6 DUP2 MSTORE PUSH1 0x20 ADD SWAP1 DUP2 MSTORE PUSH1 0x20 ADD PUSH1 0x0 KECCAK256 SWAP1 PUSH1 0x2 PUSH2 0xD06 SWAP3 SWAP2 SWAP1 PUSH2 0x2732 JUMP JUMPDEST POP POP POP POP JUMP JUMPDEST PUSH2 0xD27 DUP4 DUP4 DUP4 PUSH1 0x40 MLOAD DUP1 PUSH1 0x20 ADD PUSH1 0x40 MSTORE DUP1 PUSH1 0x0 DUP2 MSTORE POP PUSH2 0x1625 JUMP JUMPDEST POP POP POP JUMP JUMPDEST PUSH1 0x60 PUSH1 0x11 PUSH1 0x0 DUP4 DUP2 MSTORE PUSH1 0x20 ADD SWAP1 DUP2 MSTORE PUSH1 0x20 ADD PUSH1 0x0 KECCAK256 DUP1 SLOAD PUSH2 0xD4C SWAP1 PUSH2 0x3584 JUMP JUMPDEST DUP1 PUSH1 0x1F ADD PUSH1 0x20 DUP1 SWAP2 DIV MUL PUSH1 0x20 ADD PUSH1 0x40 MLOAD SWAP1 DUP2 ADD PUSH1 0x40 MSTORE DUP1 SWAP3 SWAP2 SWAP1 DUP2 DUP2 MSTORE PUSH1 0x20 ADD DUP3 DUP1 SLOAD PUSH2 0xD78 SWAP1 PUSH2 0x3584 JUMP JUMPDEST DUP1 ISZERO PUSH2 0xDC5 JUMPI DUP1 PUSH1 0x1F LT PUSH2 0xD9A JUMPI PUSH2 0x100 DUP1 DUP4 SLOAD DIV MUL DUP4 MSTORE SWAP2 PUSH1 0x20 ADD SWAP2 PUSH2 0xDC5 JUMP JUMPDEST DUP3 ADD SWAP2 SWAP1 PUSH1 0x0 MSTORE PUSH1 0x20 PUSH1 0x0 KECCAK256 SWAP1 JUMPDEST DUP2 SLOAD DUP2 MSTORE SWAP1 PUSH1 0x1 ADD SWAP1 PUSH1 0x20 ADD DUP1 DUP4 GT PUSH2 0xDA8 JUMPI DUP3 SWAP1 SUB PUSH1 0x1F AND DUP3 ADD SWAP2 JUMPDEST POP POP POP POP POP SWAP1 POP SWAP2 SWAP1 POP JUMP JUMPDEST PUSH1 0x0 PUSH2 0xDDF PUSH1 0x6 SLOAD DUP5 PUSH2 0x735 JUMP JUMPDEST PUSH2 0xDEC PUSH1 0x9 SLOAD DUP4 DUP6 PUSH2 0xCC8 JUMP JUMPDEST PUSH1 0x6 PUSH1 0x0 DUP2 SLOAD DUP1 SWAP3 SWAP2 SWAP1 PUSH2 0xDFF SWAP1 PUSH2 0x35E7 JUMP JUMPDEST SWAP2 SWAP1 POP SSTORE POP PUSH1 0x9 PUSH1 0x0 DUP2 SLOAD DUP1 SWAP3 SWAP2 SWAP1 PUSH2 0xE17 SWAP1 PUSH2 0x35E7 JUMP JUMPDEST SWAP2 SWAP1 POP SSTORE POP PUSH1 0x6 SLOAD SWAP1 POP SWAP3 SWAP2 POP POP JUMP JUMPDEST PUSH1 0x60 PUSH1 0x0 PUSH1 0xA PUSH8 0xFFFFFFFFFFFFFFFF DUP2 GT ISZERO PUSH2 0xE46 JUMPI PUSH2 0xE45 PUSH2 0x36EC JUMP JUMPDEST JUMPDEST PUSH1 0x40 MLOAD SWAP1 DUP1 DUP3 MSTORE DUP1 PUSH1 0x20 MUL PUSH1 0x20 ADD DUP3 ADD PUSH1 0x40 MSTORE DUP1 ISZERO PUSH2 0xE79 JUMPI DUP2 PUSH1 0x20 ADD JUMPDEST PUSH1 0x60 DUP2 MSTORE PUSH1 0x20 ADD SWAP1 PUSH1 0x1 SWAP1 SUB SWAP1 DUP2 PUSH2 0xE64 JUMPI SWAP1 POP JUMPDEST POP SWAP1 POP PUSH1 0x0 DUP1 JUMPDEST PUSH1 0xA SLOAD DUP2 LT ISZERO PUSH2 0xFCC JUMPI PUSH2 0xE93 DUP6 PUSH2 0x1F54 JUMP JUMPDEST DUP1 MLOAD SWAP1 PUSH1 0x20 ADD KECCAK256 PUSH1 0xF PUSH1 0x0 DUP4 DUP2 MSTORE PUSH1 0x20 ADD SWAP1 DUP2 MSTORE PUSH1 0x20 ADD PUSH1 0x0 KECCAK256 PUSH1 0x0 PUSH1 0x2 DUP2 LT PUSH2 0xEC0 JUMPI PUSH2 0xEBF PUSH2 0x36BD JUMP JUMPDEST JUMPDEST ADD PUSH1 0x40 MLOAD PUSH2 0xECE SWAP2 SWAP1 PUSH2 0x3103 JUMP JUMPDEST PUSH1 0x40 MLOAD DUP1 SWAP2 SUB SWAP1 KECCAK256 EQ ISZERO PUSH2 0xFB9 JUMPI PUSH1 0xF PUSH1 0x0 DUP3 DUP2 MSTORE PUSH1 0x20 ADD SWAP1 DUP2 MSTORE PUSH1 0x20 ADD PUSH1 0x0 KECCAK256 PUSH1 0x1 PUSH1 0x2 DUP2 LT PUSH2 0xF02 JUMPI PUSH2 0xF01 PUSH2 0x36BD JUMP JUMPDEST JUMPDEST ADD DUP1 SLOAD PUSH2 0xF0E SWAP1 PUSH2 0x3584 JUMP JUMPDEST DUP1 PUSH1 0x1F ADD PUSH1 0x20 DUP1 SWAP2 DIV MUL PUSH1 0x20 ADD PUSH1 0x40 MLOAD SWAP1 DUP2 ADD PUSH1 0x40 MSTORE DUP1 SWAP3 SWAP2 SWAP1 DUP2 DUP2 MSTORE PUSH1 0x20 ADD DUP3 DUP1 SLOAD PUSH2 0xF3A SWAP1 PUSH2 0x3584 JUMP JUMPDEST DUP1 ISZERO PUSH2 0xF87 JUMPI DUP1 PUSH1 0x1F LT PUSH2 0xF5C JUMPI PUSH2 0x100 DUP1 DUP4 SLOAD DIV MUL DUP4 MSTORE SWAP2 PUSH1 0x20 ADD SWAP2 PUSH2 0xF87 JUMP JUMPDEST DUP3 ADD SWAP2 SWAP1 PUSH1 0x0 MSTORE PUSH1 0x20 PUSH1 0x0 KECCAK256 SWAP1 JUMPDEST DUP2 SLOAD DUP2 MSTORE SWAP1 PUSH1 0x1 ADD SWAP1 PUSH1 0x20 ADD DUP1 DUP4 GT PUSH2 0xF6A JUMPI DUP3 SWAP1 SUB PUSH1 0x1F AND DUP3 ADD SWAP2 JUMPDEST POP POP POP POP POP DUP4 DUP4 DUP2 MLOAD DUP2 LT PUSH2 0xF9F JUMPI PUSH2 0xF9E PUSH2 0x36BD JUMP JUMPDEST JUMPDEST PUSH1 0x20 MUL PUSH1 0x20 ADD ADD DUP2 SWAP1 MSTORE POP DUP2 DUP1 PUSH2 0xFB5 SWAP1 PUSH2 0x35E7 JUMP JUMPDEST SWAP3 POP POP JUMPDEST DUP1 DUP1 PUSH2 0xFC4 SWAP1 PUSH2 0x35E7 JUMP JUMPDEST SWAP2 POP POP PUSH2 0xE80 JUMP JUMPDEST POP DUP2 SWAP3 POP POP POP SWAP2 SWAP1 POP JUMP JUMPDEST PUSH1 0x0 DUP1 PUSH2 0xFE3 DUP4 PUSH2 0x202C JUMP JUMPDEST SWAP1 POP PUSH1 0x0 PUSH20 0xFFFFFFFFFFFFFFFFFFFFFFFFFFFFFFFFFFFFFFFF AND DUP2 PUSH20 0xFFFFFFFFFFFFFFFFFFFFFFFFFFFFFFFFFFFFFFFF AND EQ ISZERO PUSH2 0x1055 JUMPI PUSH1 0x40 MLOAD PUSH32 0x8C379A000000000000000000000000000000000000000000000000000000000 DUP2 MSTORE PUSH1 0x4 ADD PUSH2 0x104C SWAP1 PUSH2 0x32A0 JUMP JUMPDEST PUSH1 0x40 MLOAD DUP1 SWAP2 SUB SWAP1 REVERT JUMPDEST DUP1 SWAP2 POP POP SWAP2 SWAP1 POP JUMP JUMPDEST PUSH1 0x0 DUP1 PUSH20 0xFFFFFFFFFFFFFFFFFFFFFFFFFFFFFFFFFFFFFFFF AND DUP3 PUSH20 0xFFFFFFFFFFFFFFFFFFFFFFFFFFFFFFFFFFFFFFFF AND EQ ISZERO PUSH2 0x10CF JUMPI PUSH1 0x40 MLOAD PUSH32 0x8C379A000000000000000000000000000000000000000000000000000000000 DUP2 MSTORE PUSH1 0x4 ADD PUSH2 0x10C6 SWAP1 PUSH2 0x3280 JUMP JUMPDEST PUSH1 0x40 MLOAD DUP1 SWAP2 SUB SWAP1 REVERT JUMPDEST PUSH1 0x3 PUSH1 0x0 DUP4 PUSH20 0xFFFFFFFFFFFFFFFFFFFFFFFFFFFFFFFFFFFFFFFF AND PUSH20 0xFFFFFFFFFFFFFFFFFFFFFFFFFFFFFFFFFFFFFFFF AND DUP2 MSTORE PUSH1 0x20 ADD SWAP1 DUP2 MSTORE PUSH1 0x20 ADD PUSH1 0x0 KECCAK256 SLOAD SWAP1 POP SWAP2 SWAP1 POP JUMP JUMPDEST PUSH1 0x60 PUSH1 0x10 PUSH1 0x0 DUP4 DUP2 MSTORE PUSH1 0x20 ADD SWAP1 DUP2 MSTORE PUSH1 0x20 ADD PUSH1 0x0 KECCAK256 PUSH1 0x0 PUSH1 0x2 DUP2 LT PUSH2 0x113E JUMPI PUSH2 0x113D PUSH2 0x36BD JUMP JUMPDEST JUMPDEST ADD DUP1 SLOAD PUSH2 0x114A SWAP1 PUSH2 0x3584 JUMP JUMPDEST DUP1 PUSH1 0x1F ADD PUSH1 0x20 DUP1 SWAP2 DIV MUL PUSH1 0x20 ADD PUSH1 0x40 MLOAD SWAP1 DUP2 ADD PUSH1 0x40 MSTORE DUP1 SWAP3 SWAP2 SWAP1 DUP2 DUP2 MSTORE PUSH1 0x20 ADD DUP3 DUP1 SLOAD PUSH2 0x1176 SWAP1 PUSH2 0x3584 JUMP JUMPDEST DUP1 ISZERO PUSH2 0x11C3 JUMPI DUP1 PUSH1 0x1F LT PUSH2 0x1198 JUMPI PUSH2 0x100 DUP1 DUP4 SLOAD DIV MUL DUP4 MSTORE SWAP2 PUSH1 0x20 ADD SWAP2 PUSH2 0x11C3 JUMP JUMPDEST DUP3 ADD SWAP2 SWAP1 PUSH1 0x0 MSTORE PUSH1 0x20 PUSH1 0x0 KECCAK256 SWAP1 JUMPDEST DUP2 SLOAD DUP2 MSTORE SWAP1 PUSH1 0x1 ADD SWAP1 PUSH1 0x20 ADD DUP1 DUP4 GT PUSH2 0x11A6 JUMPI DUP3 SWAP1 SUB PUSH1 0x1F AND DUP3 ADD SWAP2 JUMPDEST POP POP POP POP POP SWAP1 POP SWAP2 SWAP1 POP JUMP JUMPDEST PUSH1 0x0 PUSH1 0x8 SLOAD SWAP1 POP SWAP1 JUMP JUMPDEST PUSH1 0x0 DUP1 PUSH1 0x0 SWAP1 POP JUMPDEST PUSH1 0x6 SLOAD DUP2 LT ISZERO PUSH2 0x123D JUMPI DUP3 DUP1 MLOAD SWAP1 PUSH1 0x20 ADD KECCAK256 PUSH1 0x12 PUSH1 0x0 DUP4 DUP2 MSTORE PUSH1 0x20 ADD SWAP1 DUP2 MSTORE PUSH1 0x20 ADD PUSH1 0x0 KECCAK256 PUSH1 0x40 MLOAD PUSH2 0x1213 SWAP2 SWAP1 PUSH2 0x3103 JUMP JUMPDEST PUSH1 0x40 MLOAD DUP1 SWAP2 SUB SWAP1 KECCAK256 EQ ISZERO PUSH2 0x122A JUMPI DUP1 SWAP2 POP POP PUSH2 0x1243 JUMP JUMPDEST DUP1 DUP1 PUSH2 0x1235 SWAP1 PUSH2 0x35E7 JUMP JUMPDEST SWAP2 POP POP PUSH2 0x11E1 JUMP JUMPDEST POP PUSH1 0x0 SWAP1 POP JUMPDEST SWAP2 SWAP1 POP JUMP JUMPDEST PUSH1 0x60 PUSH1 0x1 DUP1 SLOAD PUSH2 0x1257 SWAP1 PUSH2 0x3584 JUMP JUMPDEST DUP1 PUSH1 0x1F ADD PUSH1 0x20 DUP1 SWAP2 DIV MUL PUSH1 0x20 ADD PUSH1 0x40 MLOAD SWAP1 DUP2 ADD PUSH1 0x40 MSTORE DUP1 SWAP3 SWAP2 SWAP1 DUP2 DUP2 MSTORE PUSH1 0x20 ADD DUP3 DUP1 SLOAD PUSH2 0x1283 SWAP1 PUSH2 0x3584 JUMP JUMPDEST DUP1 ISZERO PUSH2 0x12D0 JUMPI DUP1 PUSH1 0x1F LT PUSH2 0x12A5 JUMPI PUSH2 0x100 DUP1 DUP4 SLOAD DIV MUL DUP4 MSTORE SWAP2 PUSH1 0x20 ADD SWAP2 PUSH2 0x12D0 JUMP JUMPDEST DUP3 ADD SWAP2 SWAP1 PUSH1 0x0 MSTORE PUSH1 0x20 PUSH1 0x0 KECCAK256 SWAP1 JUMPDEST DUP2 SLOAD DUP2 MSTORE SWAP1 PUSH1 0x1 ADD SWAP1 PUSH1 0x20 ADD DUP1 DUP4 GT PUSH2 0x12B3 JUMPI DUP3 SWAP1 SUB PUSH1 0x1F AND DUP3 ADD SWAP2 JUMPDEST POP POP POP POP POP SWAP1 POP SWAP1 JUMP JUMPDEST PUSH1 0x0 PUSH2 0x12E8 PUSH1 0x8 SLOAD DUP4 PUSH2 0xB63 JUMP JUMPDEST PUSH1 0x8 PUSH1 0x0 DUP2 SLOAD DUP1 SWAP3 SWAP2 SWAP1 PUSH2 0x12FB SWAP1 PUSH2 0x35E7 JUMP JUMPDEST SWAP2 SWAP1 POP SSTORE POP PUSH1 0x8 SLOAD SWAP1 POP SWAP2 SWAP1 POP JUMP JUMPDEST PUSH1 0x60 PUSH1 0x13 PUSH1 0x0 DUP4 DUP2 MSTORE PUSH1 0x20 ADD SWAP1 DUP2 MSTORE PUSH1 0x20 ADD PUSH1 0x0 KECCAK256 DUP1 SLOAD PUSH2 0x132A SWAP1 PUSH2 0x3584 JUMP JUMPDEST DUP1 PUSH1 0x1F ADD PUSH1 0x20 DUP1 SWAP2 DIV MUL PUSH1 0x20 ADD PUSH1 0x40 MLOAD SWAP1 DUP2 ADD PUSH1 0x40 MSTORE DUP1 SWAP3 SWAP2 SWAP1 DUP2 DUP2 MSTORE PUSH1 0x20 ADD DUP3 DUP1 SLOAD PUSH2 0x1356 SWAP1 PUSH2 0x3584 JUMP JUMPDEST DUP1 ISZERO PUSH2 0x13A3 JUMPI DUP1 PUSH1 0x1F LT PUSH2 0x1378 JUMPI PUSH2 0x100 DUP1 DUP4 SLOAD DIV MUL DUP4 MSTORE SWAP2 PUSH1 0x20 ADD SWAP2 PUSH2 0x13A3 JUMP JUMPDEST DUP3 ADD SWAP2 SWAP1 PUSH1 0x0 MSTORE PUSH1 0x20 PUSH1 0x0 KECCAK256 SWAP1 JUMPDEST DUP2 SLOAD DUP2 MSTORE SWAP1 PUSH1 0x1 ADD SWAP1 PUSH1 0x20 ADD DUP1 DUP4 GT PUSH2 0x1386 JUMPI DUP3 SWAP1 SUB PUSH1 0x1F AND DUP3 ADD SWAP2 JUMPDEST POP POP POP POP POP SWAP1 POP SWAP2 SWAP1 POP JUMP JUMPDEST PUSH2 0x13C1 PUSH2 0x13BA PUSH2 0x1B04 JUMP JUMPDEST DUP4 DUP4 PUSH2 0x2069 JUMP JUMPDEST POP POP JUMP JUMPDEST PUSH1 0x60 PUSH1 0x0 PUSH1 0xA PUSH8 0xFFFFFFFFFFFFFFFF DUP2 GT ISZERO PUSH2 0x13E4 JUMPI PUSH2 0x13E3 PUSH2 0x36EC JUMP JUMPDEST JUMPDEST PUSH1 0x40 MLOAD SWAP1 DUP1 DUP3 MSTORE DUP1 PUSH1 0x20 MUL PUSH1 0x20 ADD DUP3 ADD PUSH1 0x40 MSTORE DUP1 ISZERO PUSH2 0x1417 JUMPI DUP2 PUSH1 0x20 ADD JUMPDEST PUSH1 0x60 DUP2 MSTORE PUSH1 0x20 ADD SWAP1 PUSH1 0x1 SWAP1 SUB SWAP1 DUP2 PUSH2 0x1402 JUMPI SWAP1 POP JUMPDEST POP SWAP1 POP PUSH1 0x0 DUP1 JUMPDEST PUSH1 0xA SLOAD DUP2 LT ISZERO PUSH2 0x156A JUMPI PUSH2 0x1431 DUP6 PUSH2 0x1F54 JUMP JUMPDEST DUP1 MLOAD SWAP1 PUSH1 0x20 ADD KECCAK256 PUSH1 0xF PUSH1 0x0 DUP4 DUP2 MSTORE PUSH1 0x20 ADD SWAP1 DUP2 MSTORE PUSH1 0x20 ADD PUSH1 0x0 KECCAK256 PUSH1 0x0 PUSH1 0x2 DUP2 LT PUSH2 0x145E JUMPI PUSH2 0x145D PUSH2 0x36BD JUMP JUMPDEST JUMPDEST ADD PUSH1 0x40 MLOAD PUSH2 0x146C SWAP2 SWAP1 PUSH2 0x3103 JUMP JUMPDEST PUSH1 0x40 MLOAD DUP1 SWAP2 SUB SWAP1 KECCAK256 EQ ISZERO PUSH2 0x1557 JUMPI PUSH1 0xF PUSH1 0x0 DUP3 DUP2 MSTORE PUSH1 0x20 ADD SWAP1 DUP2 MSTORE PUSH1 0x20 ADD PUSH1 0x0 KECCAK256 PUSH1 0x1 PUSH1 0x2 DUP2 LT PUSH2 0x14A0 JUMPI PUSH2 0x149F PUSH2 0x36BD JUMP JUMPDEST JUMPDEST ADD DUP1 SLOAD PUSH2 0x14AC SWAP1 PUSH2 0x3584 JUMP JUMPDEST DUP1 PUSH1 0x1F ADD PUSH1 0x20 DUP1 SWAP2 DIV MUL PUSH1 0x20 ADD PUSH1 0x40 MLOAD SWAP1 DUP2 ADD PUSH1 0x40 MSTORE DUP1 SWAP3 SWAP2 SWAP1 DUP2 DUP2 MSTORE PUSH1 0x20 ADD DUP3 DUP1 SLOAD PUSH2 0x14D8 SWAP1 PUSH2 0x3584 JUMP JUMPDEST DUP1 ISZERO PUSH2 0x1525 JUMPI DUP1 PUSH1 0x1F LT PUSH2 0x14FA JUMPI PUSH2 0x100 DUP1 DUP4 SLOAD DIV MUL DUP4 MSTORE SWAP2 PUSH1 0x20 ADD SWAP2 PUSH2 0x1525 JUMP JUMPDEST DUP3 ADD SWAP2 SWAP1 PUSH1 0x0 MSTORE PUSH1 0x20 PUSH1 0x0 KECCAK256 SWAP1 JUMPDEST DUP2 SLOAD DUP2 MSTORE SWAP1 PUSH1 0x1 ADD SWAP1 PUSH1 0x20 ADD DUP1 DUP4 GT PUSH2 0x1508 JUMPI DUP3 SWAP1 SUB PUSH1 0x1F AND DUP3 ADD SWAP2 JUMPDEST POP POP POP POP POP DUP4 DUP4 DUP2 MLOAD DUP2 LT PUSH2 0x153D JUMPI PUSH2 0x153C PUSH2 0x36BD JUMP JUMPDEST JUMPDEST PUSH1 0x20 MUL PUSH1 0x20 ADD ADD DUP2 SWAP1 MSTORE POP DUP2 DUP1 PUSH2 0x1553 SWAP1 PUSH2 0x35E7 JUMP JUMPDEST SWAP3 POP POP JUMPDEST DUP1 DUP1 PUSH2 0x1562 SWAP1 PUSH2 0x35E7 JUMP JUMPDEST SWAP2 POP POP PUSH2 0x141E JUMP JUMPDEST POP DUP2 SWAP3 POP POP POP SWAP2 SWAP1 POP JUMP JUMPDEST PUSH1 0x10 PUSH1 0x20 MSTORE DUP2 PUSH1 0x0 MSTORE PUSH1 0x40 PUSH1 0x0 KECCAK256 DUP2 PUSH1 0x2 DUP2 LT PUSH2 0x1591 JUMPI PUSH1 0x0 DUP1 REVERT JUMPDEST ADD PUSH1 0x0 SWAP2 POP SWAP2 POP POP DUP1 SLOAD PUSH2 0x15A4 SWAP1 PUSH2 0x3584 JUMP JUMPDEST DUP1 PUSH1 0x1F ADD PUSH1 0x20 DUP1 SWAP2 DIV MUL PUSH1 0x20 ADD PUSH1 0x40 MLOAD SWAP1 DUP2 ADD PUSH1 0x40 MSTORE DUP1 SWAP3 SWAP2 SWAP1 DUP2 DUP2 MSTORE PUSH1 0x20 ADD DUP3 DUP1 SLOAD PUSH2 0x15D0 SWAP1 PUSH2 0x3584 JUMP JUMPDEST DUP1 ISZERO PUSH2 0x161D JUMPI DUP1 PUSH1 0x1F LT PUSH2 0x15F2 JUMPI PUSH2 0x100 DUP1 DUP4 SLOAD DIV MUL DUP4 MSTORE SWAP2 PUSH1 0x20 ADD SWAP2 PUSH2 0x161D JUMP JUMPDEST DUP3 ADD SWAP2 SWAP1 PUSH1 0x0 MSTORE PUSH1 0x20 PUSH1 0x0 KECCAK256 SWAP1 JUMPDEST DUP2 SLOAD DUP2 MSTORE SWAP1 PUSH1 0x1 ADD SWAP1 PUSH1 0x20 ADD DUP1 DUP4 GT PUSH2 0x1600 JUMPI DUP3 SWAP1 SUB PUSH1 0x1F AND DUP3 ADD SWAP2 JUMPDEST POP POP POP POP POP DUP2 JUMP JUMPDEST PUSH2 0x1636 PUSH2 0x1630 PUSH2 0x1B04 JUMP JUMPDEST DUP4 PUSH2 0x1BC5 JUMP JUMPDEST PUSH2 0x1675 JUMPI PUSH1 0x40 MLOAD PUSH32 0x8C379A000000000000000000000000000000000000000000000000000000000 DUP2 MSTORE PUSH1 0x4 ADD PUSH2 0x166C SWAP1 PUSH2 0x31E0 JUMP JUMPDEST PUSH1 0x40 MLOAD DUP1 SWAP2 SUB SWAP1 REVERT JUMPDEST PUSH2 0x1681 DUP5 DUP5 DUP5 DUP5 PUSH2 0x21D6 JUMP JUMPDEST POP POP POP POP JUMP JUMPDEST PUSH1 0x60 PUSH1 0x12 PUSH1 0x0 DUP4 DUP2 MSTORE PUSH1 0x20 ADD SWAP1 DUP2 MSTORE PUSH1 0x20 ADD PUSH1 0x0 KECCAK256 DUP1 SLOAD PUSH2 0x16A7 SWAP1 PUSH2 0x3584 JUMP JUMPDEST DUP1 PUSH1 0x1F ADD PUSH1 0x20 DUP1 SWAP2 DIV MUL PUSH1 0x20 ADD PUSH1 0x40 MLOAD SWAP1 DUP2 ADD PUSH1 0x40 MSTORE DUP1 SWAP3 SWAP2 SWAP1 DUP2 DUP2 MSTORE PUSH1 0x20 ADD DUP3 DUP1 SLOAD PUSH2 0x16D3 SWAP1 PUSH2 0x3584 JUMP JUMPDEST DUP1 ISZERO PUSH2 0x1720 JUMPI DUP1 PUSH1 0x1F LT PUSH2 0x16F5 JUMPI PUSH2 0x100 DUP1 DUP4 SLOAD DIV MUL DUP4 MSTORE SWAP2 PUSH1 0x20 ADD SWAP2 PUSH2 0x1720 JUMP JUMPDEST DUP3 ADD SWAP2 SWAP1 PUSH1 0x0 MSTORE PUSH1 0x20 PUSH1 0x0 KECCAK256 SWAP1 JUMPDEST DUP2 SLOAD DUP2 MSTORE SWAP1 PUSH1 0x1 ADD SWAP1 PUSH1 0x20 ADD DUP1 DUP4 GT PUSH2 0x1703 JUMPI DUP3 SWAP1 SUB PUSH1 0x1F AND DUP3 ADD SWAP2 JUMPDEST POP POP POP POP POP SWAP1 POP SWAP2 SWAP1 POP JUMP JUMPDEST PUSH1 0x0 DUP1 PUSH1 0x0 SWAP1 POP JUMPDEST PUSH1 0x7 SLOAD DUP2 LT ISZERO PUSH2 0x1790 JUMPI DUP3 DUP1 MLOAD SWAP1 PUSH1 0x20 ADD KECCAK256 PUSH1 0x11 PUSH1 0x0 DUP4 DUP2 MSTORE PUSH1 0x20 ADD SWAP1 DUP2 MSTORE PUSH1 0x20 ADD PUSH1 0x0 KECCAK256 PUSH1 0x40 MLOAD PUSH2 0x1766 SWAP2 SWAP1 PUSH2 0x3103 JUMP JUMPDEST PUSH1 0x40 MLOAD DUP1 SWAP2 SUB SWAP1 KECCAK256 EQ ISZERO PUSH2 0x177D JUMPI DUP1 SWAP2 POP POP PUSH2 0x1796 JUMP JUMPDEST DUP1 DUP1 PUSH2 0x1788 SWAP1 PUSH2 0x35E7 JUMP JUMPDEST SWAP2 POP POP PUSH2 0x1734 JUMP JUMPDEST POP PUSH1 0x0 SWAP1 POP JUMPDEST SWAP2 SWAP1 POP JUMP JUMPDEST PUSH1 0x40 MLOAD DUP1 PUSH1 0x40 ADD PUSH1 0x40 MSTORE DUP1 PUSH2 0x17AF DUP5 PUSH2 0x1F54 JUMP JUMPDEST DUP2 MSTORE PUSH1 0x20 ADD DUP3 DUP2 MSTORE POP PUSH1 0xF PUSH1 0x0 DUP6 DUP2 MSTORE PUSH1 0x20 ADD SWAP1 DUP2 MSTORE PUSH1 0x20 ADD PUSH1 0x0 KECCAK256 SWAP1 PUSH1 0x2 PUSH2 0x17D9 SWAP3 SWAP2 SWAP1 PUSH2 0x2732 JUMP JUMPDEST POP POP POP POP JUMP JUMPDEST DUP1 PUSH1 0x11 PUSH1 0x0 DUP5 DUP2 MSTORE PUSH1 0x20 ADD SWAP1 DUP2 MSTORE PUSH1 0x20 ADD PUSH1 0x0 KECCAK256 SWAP1 DUP1 MLOAD SWAP1 PUSH1 0x20 ADD SWAP1 PUSH2 0x1806 SWAP3 SWAP2 SWAP1 PUSH2 0x26AC JUMP JUMPDEST POP POP POP JUMP JUMPDEST PUSH1 0x0 PUSH1 0x5 PUSH1 0x0 DUP5 PUSH20 0xFFFFFFFFFFFFFFFFFFFFFFFFFFFFFFFFFFFFFFFF AND PUSH20 0xFFFFFFFFFFFFFFFFFFFFFFFFFFFFFFFFFFFFFFFF AND DUP2 MSTORE PUSH1 0x20 ADD SWAP1 DUP2 MSTORE PUSH1 0x20 ADD PUSH1 0x0 KECCAK256 PUSH1 0x0 DUP4 PUSH20 0xFFFFFFFFFFFFFFFFFFFFFFFFFFFFFFFFFFFFFFFF AND PUSH20 0xFFFFFFFFFFFFFFFFFFFFFFFFFFFFFFFFFFFFFFFF AND DUP2 MSTORE PUSH1 0x20 ADD SWAP1 DUP2 MSTORE PUSH1 0x20 ADD PUSH1 0x0 KECCAK256 PUSH1 0x0 SWAP1 SLOAD SWAP1 PUSH2 0x100 EXP SWAP1 DIV PUSH1 0xFF AND SWAP1 POP SWAP3 SWAP2 POP POP JUMP JUMPDEST PUSH1 0x60 PUSH1 0x0 PUSH1 0xA PUSH8 0xFFFFFFFFFFFFFFFF DUP2 GT ISZERO PUSH2 0x18BE JUMPI PUSH2 0x18BD PUSH2 0x36EC JUMP JUMPDEST JUMPDEST PUSH1 0x40 MLOAD SWAP1 DUP1 DUP3 MSTORE DUP1 PUSH1 0x20 MUL PUSH1 0x20 ADD DUP3 ADD PUSH1 0x40 MSTORE DUP1 ISZERO PUSH2 0x18F1 JUMPI DUP2 PUSH1 0x20 ADD JUMPDEST PUSH1 0x60 DUP2 MSTORE PUSH1 0x20 ADD SWAP1 PUSH1 0x1 SWAP1 SUB SWAP1 DUP2 PUSH2 0x18DC JUMPI SWAP1 POP JUMPDEST POP SWAP1 POP PUSH1 0x0 DUP1 JUMPDEST PUSH1 0x9 SLOAD DUP2 LT ISZERO PUSH2 0x1A44 JUMPI PUSH2 0x190B DUP6 PUSH2 0x1F54 JUMP JUMPDEST DUP1 MLOAD SWAP1 PUSH1 0x20 ADD KECCAK256 PUSH1 0xE PUSH1 0x0 DUP4 DUP2 MSTORE PUSH1 0x20 ADD SWAP1 DUP2 MSTORE PUSH1 0x20 ADD PUSH1 0x0 KECCAK256 PUSH1 0x0 PUSH1 0x2 DUP2 LT PUSH2 0x1938 JUMPI PUSH2 0x1937 PUSH2 0x36BD JUMP JUMPDEST JUMPDEST ADD PUSH1 0x40 MLOAD PUSH2 0x1946 SWAP2 SWAP1 PUSH2 0x3103 JUMP JUMPDEST PUSH1 0x40 MLOAD DUP1 SWAP2 SUB SWAP1 KECCAK256 EQ ISZERO PUSH2 0x1A31 JUMPI PUSH1 0xE PUSH1 0x0 DUP3 DUP2 MSTORE PUSH1 0x20 ADD SWAP1 DUP2 MSTORE PUSH1 0x20 ADD PUSH1 0x0 KECCAK256 PUSH1 0x1 PUSH1 0x2 DUP2 LT PUSH2 0x197A JUMPI PUSH2 0x1979 PUSH2 0x36BD JUMP JUMPDEST JUMPDEST ADD DUP1 SLOAD PUSH2 0x1986 SWAP1 PUSH2 0x3584 JUMP JUMPDEST DUP1 PUSH1 0x1F ADD PUSH1 0x20 DUP1 SWAP2 DIV MUL PUSH1 0x20 ADD PUSH1 0x40 MLOAD SWAP1 DUP2 ADD PUSH1 0x40 MSTORE DUP1 SWAP3 SWAP2 SWAP1 DUP2 DUP2 MSTORE PUSH1 0x20 ADD DUP3 DUP1 SLOAD PUSH2 0x19B2 SWAP1 PUSH2 0x3584 JUMP JUMPDEST DUP1 ISZERO PUSH2 0x19FF JUMPI DUP1 PUSH1 0x1F LT PUSH2 0x19D4 JUMPI PUSH2 0x100 DUP1 DUP4 SLOAD DIV MUL DUP4 MSTORE SWAP2 PUSH1 0x20 ADD SWAP2 PUSH2 0x19FF JUMP JUMPDEST DUP3 ADD SWAP2 SWAP1 PUSH1 0x0 MSTORE PUSH1 0x20 PUSH1 0x0 KECCAK256 SWAP1 JUMPDEST DUP2 SLOAD DUP2 MSTORE SWAP1 PUSH1 0x1 ADD SWAP1 PUSH1 0x20 ADD DUP1 DUP4 GT PUSH2 0x19E2 JUMPI DUP3 SWAP1 SUB PUSH1 0x1F AND DUP3 ADD SWAP2 JUMPDEST POP POP POP POP POP DUP4 DUP4 DUP2 MLOAD DUP2 LT PUSH2 0x1A17 JUMPI PUSH2 0x1A16 PUSH2 0x36BD JUMP JUMPDEST JUMPDEST PUSH1 0x20 MUL PUSH1 0x20 ADD ADD DUP2 SWAP1 MSTORE POP DUP2 DUP1 PUSH2 0x1A2D SWAP1 PUSH2 0x35E7 JUMP JUMPDEST SWAP3 POP POP JUMPDEST DUP1 DUP1 PUSH2 0x1A3C SWAP1 PUSH2 0x35E7 JUMP JUMPDEST SWAP2 POP POP PUSH2 0x18F8 JUMP JUMPDEST POP DUP2 SWAP3 POP POP POP SWAP2 SWAP1 POP JUMP JUMPDEST PUSH1 0x0 PUSH32 0x1FFC9A700000000000000000000000000000000000000000000000000000000 PUSH28 0xFFFFFFFFFFFFFFFFFFFFFFFFFFFFFFFFFFFFFFFFFFFFFFFFFFFFFFFF NOT AND DUP3 PUSH28 0xFFFFFFFFFFFFFFFFFFFFFFFFFFFFFFFFFFFFFFFFFFFFFFFFFFFFFFFF NOT AND EQ SWAP1 POP SWAP2 SWAP1 POP JUMP JUMPDEST PUSH2 0x1AC2 DUP2 PUSH2 0x2232 JUMP JUMPDEST PUSH2 0x1B01 JUMPI PUSH1 0x40 MLOAD PUSH32 0x8C379A000000000000000000000000000000000000000000000000000000000 DUP2 MSTORE PUSH1 0x4 ADD PUSH2 0x1AF8 SWAP1 PUSH2 0x32A0 JUMP JUMPDEST PUSH1 0x40 MLOAD DUP1 SWAP2 SUB SWAP1 REVERT JUMPDEST POP JUMP JUMPDEST PUSH1 0x0 CALLER SWAP1 POP SWAP1 JUMP JUMPDEST DUP2 PUSH1 0x4 PUSH1 0x0 DUP4 DUP2 MSTORE PUSH1 0x20 ADD SWAP1 DUP2 MSTORE PUSH1 0x20 ADD PUSH1 0x0 KECCAK256 PUSH1 0x0 PUSH2 0x100 EXP DUP2 SLOAD DUP2 PUSH20 0xFFFFFFFFFFFFFFFFFFFFFFFFFFFFFFFFFFFFFFFF MUL NOT AND SWAP1 DUP4 PUSH20 0xFFFFFFFFFFFFFFFFFFFFFFFFFFFFFFFFFFFFFFFF AND MUL OR SWAP1 SSTORE POP DUP1 DUP3 PUSH20 0xFFFFFFFFFFFFFFFFFFFFFFFFFFFFFFFFFFFFFFFF AND PUSH2 0x1B7F DUP4 PUSH2 0xFD7 JUMP JUMPDEST PUSH20 0xFFFFFFFFFFFFFFFFFFFFFFFFFFFFFFFFFFFFFFFF AND PUSH32 0x8C5BE1E5EBEC7D5BD14F71427D1E84F3DD0314C0F7B2291E5B200AC8C7C3B925 PUSH1 0x40 MLOAD PUSH1 0x40 MLOAD DUP1 SWAP2 SUB SWAP1 LOG4 POP POP JUMP JUMPDEST PUSH1 0x0 DUP1 PUSH2 0x1BD1 DUP4 PUSH2 0xFD7 JUMP JUMPDEST SWAP1 POP DUP1 PUSH20 0xFFFFFFFFFFFFFFFFFFFFFFFFFFFFFFFFFFFFFFFF AND DUP5 PUSH20 0xFFFFFFFFFFFFFFFFFFFFFFFFFFFFFFFFFFFFFFFF AND EQ DUP1 PUSH2 0x1C13 JUMPI POP PUSH2 0x1C12 DUP2 DUP6 PUSH2 0x180B JUMP JUMPDEST JUMPDEST DUP1 PUSH2 0x1C51 JUMPI POP DUP4 PUSH20 0xFFFFFFFFFFFFFFFFFFFFFFFFFFFFFFFFFFFFFFFF AND PUSH2 0x1C39 DUP5 PUSH2 0x8D5 JUMP JUMPDEST PUSH20 0xFFFFFFFFFFFFFFFFFFFFFFFFFFFFFFFFFFFFFFFF AND EQ JUMPDEST SWAP2 POP POP SWAP3 SWAP2 POP POP JUMP JUMPDEST DUP3 PUSH20 0xFFFFFFFFFFFFFFFFFFFFFFFFFFFFFFFFFFFFFFFF AND PUSH2 0x1C7A DUP3 PUSH2 0xFD7 JUMP JUMPDEST PUSH20 0xFFFFFFFFFFFFFFFFFFFFFFFFFFFFFFFFFFFFFFFF AND EQ PUSH2 0x1CD0 JUMPI PUSH1 0x40 MLOAD PUSH32 0x8C379A000000000000000000000000000000000000000000000000000000000 DUP2 MSTORE PUSH1 0x4 ADD PUSH2 0x1CC7 SWAP1 PUSH2 0x3220 JUMP JUMPDEST PUSH1 0x40 MLOAD DUP1 SWAP2 SUB SWAP1 REVERT JUMPDEST PUSH1 0x0 PUSH20 0xFFFFFFFFFFFFFFFFFFFFFFFFFFFFFFFFFFFFFFFF AND DUP3 PUSH20 0xFFFFFFFFFFFFFFFFFFFFFFFFFFFFFFFFFFFFFFFF AND EQ ISZERO PUSH2 0x1D40 JUMPI PUSH1 0x40 MLOAD PUSH32 0x8C379A000000000000000000000000000000000000000000000000000000000 DUP2 MSTORE PUSH1 0x4 ADD PUSH2 0x1D37 SWAP1 PUSH2 0x3240 JUMP JUMPDEST PUSH1 0x40 MLOAD DUP1 SWAP2 SUB SWAP1 REVERT JUMPDEST PUSH2 0x1D4D DUP4 DUP4 DUP4 PUSH1 0x1 PUSH2 0x2273 JUMP JUMPDEST DUP3 PUSH20 0xFFFFFFFFFFFFFFFFFFFFFFFFFFFFFFFFFFFFFFFF AND PUSH2 0x1D6D DUP3 PUSH2 0xFD7 JUMP JUMPDEST PUSH20 0xFFFFFFFFFFFFFFFFFFFFFFFFFFFFFFFFFFFFFFFF AND EQ PUSH2 0x1DC3 JUMPI PUSH1 0x40 MLOAD PUSH32 0x8C379A000000000000000000000000000000000000000000000000000000000 DUP2 MSTORE PUSH1 0x4 ADD PUSH2 0x1DBA SWAP1 PUSH2 0x3220 JUMP JUMPDEST PUSH1 0x40 MLOAD DUP1 SWAP2 SUB SWAP1 REVERT JUMPDEST PUSH1 0x4 PUSH1 0x0 DUP3 DUP2 MSTORE PUSH1 0x20 ADD SWAP1 DUP2 MSTORE PUSH1 0x20 ADD PUSH1 0x0 KECCAK256 PUSH1 0x0 PUSH2 0x100 EXP DUP2 SLOAD SWAP1 PUSH20 0xFFFFFFFFFFFFFFFFFFFFFFFFFFFFFFFFFFFFFFFF MUL NOT AND SWAP1 SSTORE PUSH1 0x1 PUSH1 0x3 PUSH1 0x0 DUP6 PUSH20 0xFFFFFFFFFFFFFFFFFFFFFFFFFFFFFFFFFFFFFFFF AND PUSH20 0xFFFFFFFFFFFFFFFFFFFFFFFFFFFFFFFFFFFFFFFF AND DUP2 MSTORE PUSH1 0x20 ADD SWAP1 DUP2 MSTORE PUSH1 0x20 ADD PUSH1 0x0 KECCAK256 PUSH1 0x0 DUP3 DUP3 SLOAD SUB SWAP3 POP POP DUP2 SWAP1 SSTORE POP PUSH1 0x1 PUSH1 0x3 PUSH1 0x0 DUP5 PUSH20 0xFFFFFFFFFFFFFFFFFFFFFFFFFFFFFFFFFFFFFFFF AND PUSH20 0xFFFFFFFFFFFFFFFFFFFFFFFFFFFFFFFFFFFFFFFF AND DUP2 MSTORE PUSH1 0x20 ADD SWAP1 DUP2 MSTORE PUSH1 0x20 ADD PUSH1 0x0 KECCAK256 PUSH1 0x0 DUP3 DUP3 SLOAD ADD SWAP3 POP POP DUP2 SWAP1 SSTORE POP DUP2 PUSH1 0x2 PUSH1 0x0 DUP4 DUP2 MSTORE PUSH1 0x20 ADD SWAP1 DUP2 MSTORE PUSH1 0x20 ADD PUSH1 0x0 KECCAK256 PUSH1 0x0 PUSH2 0x100 EXP DUP2 SLOAD DUP2 PUSH20 0xFFFFFFFFFFFFFFFFFFFFFFFFFFFFFFFFFFFFFFFF MUL NOT AND SWAP1 DUP4 PUSH20 0xFFFFFFFFFFFFFFFFFFFFFFFFFFFFFFFFFFFFFFFF AND MUL OR SWAP1 SSTORE POP DUP1 DUP3 PUSH20 0xFFFFFFFFFFFFFFFFFFFFFFFFFFFFFFFFFFFFFFFF AND DUP5 PUSH20 0xFFFFFFFFFFFFFFFFFFFFFFFFFFFFFFFFFFFFFFFF AND PUSH32 0xDDF252AD1BE2C89B69C2B068FC378DAA952BA7F163C4A11628F55A4DF523B3EF PUSH1 0x40 MLOAD PUSH1 0x40 MLOAD DUP1 SWAP2 SUB SWAP1 LOG4 PUSH2 0x1F4F DUP4 DUP4 DUP4 PUSH1 0x1 PUSH2 0x2399 JUMP JUMPDEST POP POP POP JUMP JUMPDEST PUSH1 0x60 PUSH1 0x0 PUSH1 0x1 PUSH2 0x1F63 DUP5 PUSH2 0x239F JUMP JUMPDEST ADD SWAP1 POP PUSH1 0x0 DUP2 PUSH8 0xFFFFFFFFFFFFFFFF DUP2 GT ISZERO PUSH2 0x1F82 JUMPI PUSH2 0x1F81 PUSH2 0x36EC JUMP JUMPDEST JUMPDEST PUSH1 0x40 MLOAD SWAP1 DUP1 DUP3 MSTORE DUP1 PUSH1 0x1F ADD PUSH1 0x1F NOT AND PUSH1 0x20 ADD DUP3 ADD PUSH1 0x40 MSTORE DUP1 ISZERO PUSH2 0x1FB4 JUMPI DUP2 PUSH1 0x20 ADD PUSH1 0x1 DUP3 MUL DUP1 CALLDATASIZE DUP4 CALLDATACOPY DUP1 DUP3 ADD SWAP2 POP POP SWAP1 POP JUMPDEST POP SWAP1 POP PUSH1 0x0 DUP3 PUSH1 0x20 ADD DUP3 ADD SWAP1 POP JUMPDEST PUSH1 0x1 ISZERO PUSH2 0x2021 JUMPI DUP1 DUP1 PUSH1 0x1 SWAP1 SUB SWAP2 POP POP PUSH32 0x3031323334353637383961626364656600000000000000000000000000000000 PUSH1 0xA DUP7 MOD BYTE DUP2 MSTORE8 PUSH1 0xA DUP6 DUP2 PUSH2 0x200B JUMPI PUSH2 0x200A PUSH2 0x365F JUMP JUMPDEST JUMPDEST DIV SWAP5 POP PUSH1 0x0 DUP6 EQ ISZERO PUSH2 0x201C JUMPI PUSH2 0x2021 JUMP JUMPDEST PUSH2 0x1FC2 JUMP JUMPDEST DUP2 SWAP4 POP POP POP POP SWAP2 SWAP1 POP JUMP JUMPDEST PUSH1 0x0 PUSH1 0x2 PUSH1 0x0 DUP4 DUP2 MSTORE PUSH1 0x20 ADD SWAP1 DUP2 MSTORE PUSH1 0x20 ADD PUSH1 0x0 KECCAK256 PUSH1 0x0 SWAP1 SLOAD SWAP1 PUSH2 0x100 EXP SWAP1 DIV PUSH20 0xFFFFFFFFFFFFFFFFFFFFFFFFFFFFFFFFFFFFFFFF AND SWAP1 POP SWAP2 SWAP1 POP JUMP JUMPDEST DUP2 PUSH20 0xFFFFFFFFFFFFFFFFFFFFFFFFFFFFFFFFFFFFFFFF AND DUP4 PUSH20 0xFFFFFFFFFFFFFFFFFFFFFFFFFFFFFFFFFFFFFFFF AND EQ ISZERO PUSH2 0x20D8 JUMPI PUSH1 0x40 MLOAD PUSH32 0x8C379A000000000000000000000000000000000000000000000000000000000 DUP2 MSTORE PUSH1 0x4 ADD PUSH2 0x20CF SWAP1 PUSH2 0x3260 JUMP JUMPDEST PUSH1 0x40 MLOAD DUP1 SWAP2 SUB SWAP1 REVERT JUMPDEST DUP1 PUSH1 0x5 PUSH1 0x0 DUP6 PUSH20 0xFFFFFFFFFFFFFFFFFFFFFFFFFFFFFFFFFFFFFFFF AND PUSH20 0xFFFFFFFFFFFFFFFFFFFFFFFFFFFFFFFFFFFFFFFF AND DUP2 MSTORE PUSH1 0x20 ADD SWAP1 DUP2 MSTORE PUSH1 0x20 ADD PUSH1 0x0 KECCAK256 PUSH1 0x0 DUP5 PUSH20 0xFFFFFFFFFFFFFFFFFFFFFFFFFFFFFFFFFFFFFFFF AND PUSH20 0xFFFFFFFFFFFFFFFFFFFFFFFFFFFFFFFFFFFFFFFF AND DUP2 MSTORE PUSH1 0x20 ADD SWAP1 DUP2 MSTORE PUSH1 0x20 ADD PUSH1 0x0 KECCAK256 PUSH1 0x0 PUSH2 0x100 EXP DUP2 SLOAD DUP2 PUSH1 0xFF MUL NOT AND SWAP1 DUP4 ISZERO ISZERO MUL OR SWAP1 SSTORE POP DUP2 PUSH20 0xFFFFFFFFFFFFFFFFFFFFFFFFFFFFFFFFFFFFFFFF AND DUP4 PUSH20 0xFFFFFFFFFFFFFFFFFFFFFFFFFFFFFFFFFFFFFFFF AND PUSH32 0x17307EAB39AB6107E8899845AD3D59BD9653F200F220920489CA2B5937696C31 DUP4 PUSH1 0x40 MLOAD PUSH2 0x21C9 SWAP2 SWAP1 PUSH2 0x31A3 JUMP JUMPDEST PUSH1 0x40 MLOAD DUP1 SWAP2 SUB SWAP1 LOG3 POP POP POP JUMP JUMPDEST PUSH2 0x21E1 DUP5 DUP5 DUP5 PUSH2 0x1C5A JUMP JUMPDEST PUSH2 0x21ED DUP5 DUP5 DUP5 DUP5 PUSH2 0x24F2 JUMP JUMPDEST PUSH2 0x222C JUMPI PUSH1 0x40 MLOAD PUSH32 0x8C379A000000000000000000000000000000000000000000000000000000000 DUP2 MSTORE PUSH1 0x4 ADD PUSH2 0x2223 SWAP1 PUSH2 0x3200 JUMP JUMPDEST PUSH1 0x40 MLOAD DUP1 SWAP2 SUB SWAP1 REVERT JUMPDEST POP POP POP POP JUMP JUMPDEST PUSH1 0x0 DUP1 PUSH20 0xFFFFFFFFFFFFFFFFFFFFFFFFFFFFFFFFFFFFFFFF AND PUSH2 0x2254 DUP4 PUSH2 0x202C JUMP JUMPDEST PUSH20 0xFFFFFFFFFFFFFFFFFFFFFFFFFFFFFFFFFFFFFFFF AND EQ ISZERO SWAP1 POP SWAP2 SWAP1 POP JUMP JUMPDEST PUSH1 0x1 DUP2 GT ISZERO PUSH2 0x2393 JUMPI PUSH1 0x0 PUSH20 0xFFFFFFFFFFFFFFFFFFFFFFFFFFFFFFFFFFFFFFFF AND DUP5 PUSH20 0xFFFFFFFFFFFFFFFFFFFFFFFFFFFFFFFFFFFFFFFF AND EQ PUSH2 0x2307 JUMPI DUP1 PUSH1 0x3 PUSH1 0x0 DUP7 PUSH20 0xFFFFFFFFFFFFFFFFFFFFFFFFFFFFFFFFFFFFFFFF AND PUSH20 0xFFFFFFFFFFFFFFFFFFFFFFFFFFFFFFFFFFFFFFFF AND DUP2 MSTORE PUSH1 0x20 ADD SWAP1 DUP2 MSTORE PUSH1 0x20 ADD PUSH1 0x0 KECCAK256 PUSH1 0x0 DUP3 DUP3 SLOAD PUSH2 0x22FF SWAP2 SWAP1 PUSH2 0x349A JUMP JUMPDEST SWAP3 POP POP DUP2 SWAP1 SSTORE POP JUMPDEST PUSH1 0x0 PUSH20 0xFFFFFFFFFFFFFFFFFFFFFFFFFFFFFFFFFFFFFFFF AND DUP4 PUSH20 0xFFFFFFFFFFFFFFFFFFFFFFFFFFFFFFFFFFFFFFFF AND EQ PUSH2 0x2392 JUMPI DUP1 PUSH1 0x3 PUSH1 0x0 DUP6 PUSH20 0xFFFFFFFFFFFFFFFFFFFFFFFFFFFFFFFFFFFFFFFF AND PUSH20 0xFFFFFFFFFFFFFFFFFFFFFFFFFFFFFFFFFFFFFFFF AND DUP2 MSTORE PUSH1 0x20 ADD SWAP1 DUP2 MSTORE PUSH1 0x20 ADD PUSH1 0x0 KECCAK256 PUSH1 0x0 DUP3 DUP3 SLOAD PUSH2 0x238A SWAP2 SWAP1 PUSH2 0x3444 JUMP JUMPDEST SWAP3 POP POP DUP2 SWAP1 SSTORE POP JUMPDEST JUMPDEST POP POP POP POP JUMP JUMPDEST POP POP POP POP JUMP JUMPDEST PUSH1 0x0 DUP1 PUSH1 0x0 SWAP1 POP PUSH27 0x184F03E93FF9F4DAA797ED6E38ED64BF6A1F010000000000000000 DUP4 LT PUSH2 0x23FD JUMPI PUSH27 0x184F03E93FF9F4DAA797ED6E38ED64BF6A1F010000000000000000 DUP4 DUP2 PUSH2 0x23F3 JUMPI PUSH2 0x23F2 PUSH2 0x365F JUMP JUMPDEST JUMPDEST DIV SWAP3 POP PUSH1 0x40 DUP2 ADD SWAP1 POP JUMPDEST PUSH14 0x4EE2D6D415B85ACEF8100000000 DUP4 LT PUSH2 0x243A JUMPI PUSH14 0x4EE2D6D415B85ACEF8100000000 DUP4 DUP2 PUSH2 0x2430 JUMPI PUSH2 0x242F PUSH2 0x365F JUMP JUMPDEST JUMPDEST DIV SWAP3 POP PUSH1 0x20 DUP2 ADD SWAP1 POP JUMPDEST PUSH7 0x2386F26FC10000 DUP4 LT PUSH2 0x2469 JUMPI PUSH7 0x2386F26FC10000 DUP4 DUP2 PUSH2 0x245F JUMPI PUSH2 0x245E PUSH2 0x365F JUMP JUMPDEST JUMPDEST DIV SWAP3 POP PUSH1 0x10 DUP2 ADD SWAP1 POP JUMPDEST PUSH4 0x5F5E100 DUP4 LT PUSH2 0x2492 JUMPI PUSH4 0x5F5E100 DUP4 DUP2 PUSH2 0x2488 JUMPI PUSH2 0x2487 PUSH2 0x365F JUMP JUMPDEST JUMPDEST DIV SWAP3 POP PUSH1 0x8 DUP2 ADD SWAP1 POP JUMPDEST PUSH2 0x2710 DUP4 LT PUSH2 0x24B7 JUMPI PUSH2 0x2710 DUP4 DUP2 PUSH2 0x24AD JUMPI PUSH2 0x24AC PUSH2 0x365F JUMP JUMPDEST JUMPDEST DIV SWAP3 POP PUSH1 0x4 DUP2 ADD SWAP1 POP JUMPDEST PUSH1 0x64 DUP4 LT PUSH2 0x24DA JUMPI PUSH1 0x64 DUP4 DUP2 PUSH2 0x24D0 JUMPI PUSH2 0x24CF PUSH2 0x365F JUMP JUMPDEST JUMPDEST DIV SWAP3 POP PUSH1 0x2 DUP2 ADD SWAP1 POP JUMPDEST PUSH1 0xA DUP4 LT PUSH2 0x24E9 JUMPI PUSH1 0x1 DUP2 ADD SWAP1 POP JUMPDEST DUP1 SWAP2 POP POP SWAP2 SWAP1 POP JUMP JUMPDEST PUSH1 0x0 PUSH2 0x2513 DUP5 PUSH20 0xFFFFFFFFFFFFFFFFFFFFFFFFFFFFFFFFFFFFFFFF AND PUSH2 0x2689 JUMP JUMPDEST ISZERO PUSH2 0x267C JUMPI DUP4 PUSH20 0xFFFFFFFFFFFFFFFFFFFFFFFFFFFFFFFFFFFFFFFF AND PUSH4 0x150B7A02 PUSH2 0x253C PUSH2 0x1B04 JUMP JUMPDEST DUP8 DUP7 DUP7 PUSH1 0x40 MLOAD DUP6 PUSH4 0xFFFFFFFF AND PUSH1 0xE0 SHL DUP2 MSTORE PUSH1 0x4 ADD PUSH2 0x255E SWAP5 SWAP4 SWAP3 SWAP2 SWAP1 PUSH2 0x3135 JUMP JUMPDEST PUSH1 0x20 PUSH1 0x40 MLOAD DUP1 DUP4 SUB DUP2 PUSH1 0x0 DUP8 DUP1 EXTCODESIZE ISZERO DUP1 ISZERO PUSH2 0x2578 JUMPI PUSH1 0x0 DUP1 REVERT JUMPDEST POP GAS CALL SWAP3 POP POP POP DUP1 ISZERO PUSH2 0x25A9 JUMPI POP PUSH1 0x40 MLOAD RETURNDATASIZE PUSH1 0x1F NOT PUSH1 0x1F DUP3 ADD AND DUP3 ADD DUP1 PUSH1 0x40 MSTORE POP DUP2 ADD SWAP1 PUSH2 0x25A6 SWAP2 SWAP1 PUSH2 0x2B3F JUMP JUMPDEST PUSH1 0x1 JUMPDEST PUSH2 0x262C JUMPI RETURNDATASIZE DUP1 PUSH1 0x0 DUP2 EQ PUSH2 0x25D9 JUMPI PUSH1 0x40 MLOAD SWAP2 POP PUSH1 0x1F NOT PUSH1 0x3F RETURNDATASIZE ADD AND DUP3 ADD PUSH1 0x40 MSTORE RETURNDATASIZE DUP3 MSTORE RETURNDATASIZE PUSH1 0x0 PUSH1 0x20 DUP5 ADD RETURNDATACOPY PUSH2 0x25DE JUMP JUMPDEST PUSH1 0x60 SWAP2 POP JUMPDEST POP PUSH1 0x0 DUP2 MLOAD EQ ISZERO PUSH2 0x2624 JUMPI PUSH1 0x40 MLOAD PUSH32 0x8C379A000000000000000000000000000000000000000000000000000000000 DUP2 MSTORE PUSH1 0x4 ADD PUSH2 0x261B SWAP1 PUSH2 0x3200 JUMP JUMPDEST PUSH1 0x40 MLOAD DUP1 SWAP2 SUB SWAP1 REVERT JUMPDEST DUP1 MLOAD DUP2 PUSH1 0x20 ADD REVERT JUMPDEST PUSH4 0x150B7A02 PUSH1 0xE0 SHL PUSH28 0xFFFFFFFFFFFFFFFFFFFFFFFFFFFFFFFFFFFFFFFFFFFFFFFFFFFFFFFF NOT AND DUP2 PUSH28 0xFFFFFFFFFFFFFFFFFFFFFFFFFFFFFFFFFFFFFFFFFFFFFFFFFFFFFFFF NOT AND EQ SWAP2 POP POP PUSH2 0x2681 JUMP JUMPDEST PUSH1 0x1 SWAP1 POP JUMPDEST SWAP5 SWAP4 POP POP POP POP JUMP JUMPDEST PUSH1 0x0 DUP1 DUP3 PUSH20 0xFFFFFFFFFFFFFFFFFFFFFFFFFFFFFFFFFFFFFFFF AND EXTCODESIZE GT SWAP1 POP SWAP2 SWAP1 POP JUMP JUMPDEST DUP3 DUP1 SLOAD PUSH2 0x26B8 SWAP1 PUSH2 0x3584 JUMP JUMPDEST SWAP1 PUSH1 0x0 MSTORE PUSH1 0x20 PUSH1 0x0 KECCAK256 SWAP1 PUSH1 0x1F ADD PUSH1 0x20 SWAP1 DIV DUP2 ADD SWAP3 DUP3 PUSH2 0x26DA JUMPI PUSH1 0x0 DUP6 SSTORE PUSH2 0x2721 JUMP JUMPDEST DUP3 PUSH1 0x1F LT PUSH2 0x26F3 JUMPI DUP1 MLOAD PUSH1 0xFF NOT AND DUP4 DUP1 ADD OR DUP6 SSTORE PUSH2 0x2721 JUMP JUMPDEST DUP3 DUP1 ADD PUSH1 0x1 ADD DUP6 SSTORE DUP3 ISZERO PUSH2 0x2721 JUMPI SWAP2 DUP3 ADD JUMPDEST DUP3 DUP2 GT ISZERO PUSH2 0x2720 JUMPI DUP3 MLOAD DUP3 SSTORE SWAP2 PUSH1 0x20 ADD SWAP2 SWAP1 PUSH1 0x1 ADD SWAP1 PUSH2 0x2705 JUMP JUMPDEST JUMPDEST POP SWAP1 POP PUSH2 0x272E SWAP2 SWAP1 PUSH2 0x2785 JUMP JUMPDEST POP SWAP1 JUMP JUMPDEST DUP3 PUSH1 0x2 DUP2 ADD SWAP3 DUP3 ISZERO PUSH2 0x2774 JUMPI SWAP2 PUSH1 0x20 MUL DUP3 ADD JUMPDEST DUP3 DUP2 GT ISZERO PUSH2 0x2773 JUMPI DUP3 MLOAD DUP3 SWAP1 DUP1 MLOAD SWAP1 PUSH1 0x20 ADD SWAP1 PUSH2 0x2763 SWAP3 SWAP2 SWAP1 PUSH2 0x26AC JUMP JUMPDEST POP SWAP2 PUSH1 0x20 ADD SWAP2 SWAP1 PUSH1 0x1 ADD SWAP1 PUSH2 0x2745 JUMP JUMPDEST JUMPDEST POP SWAP1 POP PUSH2 0x2781 SWAP2 SWAP1 PUSH2 0x27A2 JUMP JUMPDEST POP SWAP1 JUMP JUMPDEST JUMPDEST DUP1 DUP3 GT ISZERO PUSH2 0x279E JUMPI PUSH1 0x0 DUP2 PUSH1 0x0 SWAP1 SSTORE POP PUSH1 0x1 ADD PUSH2 0x2786 JUMP JUMPDEST POP SWAP1 JUMP JUMPDEST JUMPDEST DUP1 DUP3 GT ISZERO PUSH2 0x27C2 JUMPI PUSH1 0x0 DUP2 DUP2 PUSH2 0x27B9 SWAP2 SWAP1 PUSH2 0x27C6 JUMP JUMPDEST POP PUSH1 0x1 ADD PUSH2 0x27A3 JUMP JUMPDEST POP SWAP1 JUMP JUMPDEST POP DUP1 SLOAD PUSH2 0x27D2 SWAP1 PUSH2 0x3584 JUMP JUMPDEST PUSH1 0x0 DUP3 SSTORE DUP1 PUSH1 0x1F LT PUSH2 0x27E4 JUMPI POP PUSH2 0x2803 JUMP JUMPDEST PUSH1 0x1F ADD PUSH1 0x20 SWAP1 DIV SWAP1 PUSH1 0x0 MSTORE PUSH1 0x20 PUSH1 0x0 KECCAK256 SWAP1 DUP2 ADD SWAP1 PUSH2 0x2802 SWAP2 SWAP1 PUSH2 0x2785 JUMP JUMPDEST JUMPDEST POP JUMP JUMPDEST PUSH1 0x0 PUSH2 0x2819 PUSH2 0x2814 DUP5 PUSH2 0x3340 JUMP JUMPDEST PUSH2 0x331B JUMP JUMPDEST SWAP1 POP DUP3 DUP2 MSTORE PUSH1 0x20 DUP2 ADD DUP5 DUP5 DUP5 ADD GT ISZERO PUSH2 0x2835 JUMPI PUSH2 0x2834 PUSH2 0x3720 JUMP JUMPDEST JUMPDEST PUSH2 0x2840 DUP5 DUP3 DUP6 PUSH2 0x3542 JUMP JUMPDEST POP SWAP4 SWAP3 POP POP POP JUMP JUMPDEST PUSH1 0x0 PUSH2 0x285B PUSH2 0x2856 DUP5 PUSH2 0x3371 JUMP JUMPDEST PUSH2 0x331B JUMP JUMPDEST SWAP1 POP DUP3 DUP2 MSTORE PUSH1 0x20 DUP2 ADD DUP5 DUP5 DUP5 ADD GT ISZERO PUSH2 0x2877 JUMPI PUSH2 0x2876 PUSH2 0x3720 JUMP JUMPDEST JUMPDEST PUSH2 0x2882 DUP5 DUP3 DUP6 PUSH2 0x3542 JUMP JUMPDEST POP SWAP4 SWAP3 POP POP POP JUMP JUMPDEST PUSH1 0x0 DUP2 CALLDATALOAD SWAP1 POP PUSH2 0x2899 DUP2 PUSH2 0x39BB JUMP JUMPDEST SWAP3 SWAP2 POP POP JUMP JUMPDEST PUSH1 0x0 DUP2 CALLDATALOAD SWAP1 POP PUSH2 0x28AE DUP2 PUSH2 0x39D2 JUMP JUMPDEST SWAP3 SWAP2 POP POP JUMP JUMPDEST PUSH1 0x0 DUP2 CALLDATALOAD SWAP1 POP PUSH2 0x28C3 DUP2 PUSH2 0x39E9 JUMP JUMPDEST SWAP3 SWAP2 POP POP JUMP JUMPDEST PUSH1 0x0 DUP2 MLOAD SWAP1 POP PUSH2 0x28D8 DUP2 PUSH2 0x39E9 JUMP JUMPDEST SWAP3 SWAP2 POP POP JUMP JUMPDEST PUSH1 0x0 DUP3 PUSH1 0x1F DUP4 ADD SLT PUSH2 0x28F3 JUMPI PUSH2 0x28F2 PUSH2 0x371B JUMP JUMPDEST JUMPDEST DUP2 CALLDATALOAD PUSH2 0x2903 DUP5 DUP3 PUSH1 0x20 DUP7 ADD PUSH2 0x2806 JUMP JUMPDEST SWAP2 POP POP SWAP3 SWAP2 POP POP JUMP JUMPDEST PUSH1 0x0 DUP3 PUSH1 0x1F DUP4 ADD SLT PUSH2 0x2921 JUMPI PUSH2 0x2920 PUSH2 0x371B JUMP JUMPDEST JUMPDEST DUP2 CALLDATALOAD PUSH2 0x2931 DUP5 DUP3 PUSH1 0x20 DUP7 ADD PUSH2 0x2848 JUMP JUMPDEST SWAP2 POP POP SWAP3 SWAP2 POP POP JUMP JUMPDEST PUSH1 0x0 DUP2 CALLDATALOAD SWAP1 POP PUSH2 0x2949 DUP2 PUSH2 0x3A00 JUMP JUMPDEST SWAP3 SWAP2 POP POP JUMP JUMPDEST PUSH1 0x0 PUSH1 0x20 DUP3 DUP5 SUB SLT ISZERO PUSH2 0x2965 JUMPI PUSH2 0x2964 PUSH2 0x372A JUMP JUMPDEST JUMPDEST PUSH1 0x0 PUSH2 0x2973 DUP5 DUP3 DUP6 ADD PUSH2 0x288A JUMP JUMPDEST SWAP2 POP POP SWAP3 SWAP2 POP POP JUMP JUMPDEST PUSH1 0x0 DUP1 PUSH1 0x40 DUP4 DUP6 SUB SLT ISZERO PUSH2 0x2993 JUMPI PUSH2 0x2992 PUSH2 0x372A JUMP JUMPDEST JUMPDEST PUSH1 0x0 PUSH2 0x29A1 DUP6 DUP3 DUP7 ADD PUSH2 0x288A JUMP JUMPDEST SWAP3 POP POP PUSH1 0x20 PUSH2 0x29B2 DUP6 DUP3 DUP7 ADD PUSH2 0x288A JUMP JUMPDEST SWAP2 POP POP SWAP3 POP SWAP3 SWAP1 POP JUMP JUMPDEST PUSH1 0x0 DUP1 PUSH1 0x0 PUSH1 0x60 DUP5 DUP7 SUB SLT ISZERO PUSH2 0x29D5 JUMPI PUSH2 0x29D4 PUSH2 0x372A JUMP JUMPDEST JUMPDEST PUSH1 0x0 PUSH2 0x29E3 DUP7 DUP3 DUP8 ADD PUSH2 0x288A JUMP JUMPDEST SWAP4 POP POP PUSH1 0x20 PUSH2 0x29F4 DUP7 DUP3 DUP8 ADD PUSH2 0x288A JUMP JUMPDEST SWAP3 POP POP PUSH1 0x40 PUSH2 0x2A05 DUP7 DUP3 DUP8 ADD PUSH2 0x293A JUMP JUMPDEST SWAP2 POP POP SWAP3 POP SWAP3 POP SWAP3 JUMP JUMPDEST PUSH1 0x0 DUP1 PUSH1 0x0 DUP1 PUSH1 0x80 DUP6 DUP8 SUB SLT ISZERO PUSH2 0x2A29 JUMPI PUSH2 0x2A28 PUSH2 0x372A JUMP JUMPDEST JUMPDEST PUSH1 0x0 PUSH2 0x2A37 DUP8 DUP3 DUP9 ADD PUSH2 0x288A JUMP JUMPDEST SWAP5 POP POP PUSH1 0x20 PUSH2 0x2A48 DUP8 DUP3 DUP9 ADD PUSH2 0x288A JUMP JUMPDEST SWAP4 POP POP PUSH1 0x40 PUSH2 0x2A59 DUP8 DUP3 DUP9 ADD PUSH2 0x293A JUMP JUMPDEST SWAP3 POP POP PUSH1 0x60 DUP6 ADD CALLDATALOAD PUSH8 0xFFFFFFFFFFFFFFFF DUP2 GT ISZERO PUSH2 0x2A7A JUMPI PUSH2 0x2A79 PUSH2 0x3725 JUMP JUMPDEST JUMPDEST PUSH2 0x2A86 DUP8 DUP3 DUP9 ADD PUSH2 0x28DE JUMP JUMPDEST SWAP2 POP POP SWAP3 SWAP6 SWAP2 SWAP5 POP SWAP3 POP JUMP JUMPDEST PUSH1 0x0 DUP1 PUSH1 0x40 DUP4 DUP6 SUB SLT ISZERO PUSH2 0x2AA9 JUMPI PUSH2 0x2AA8 PUSH2 0x372A JUMP JUMPDEST JUMPDEST PUSH1 0x0 PUSH2 0x2AB7 DUP6 DUP3 DUP7 ADD PUSH2 0x288A JUMP JUMPDEST SWAP3 POP POP PUSH1 0x20 PUSH2 0x2AC8 DUP6 DUP3 DUP7 ADD PUSH2 0x289F JUMP JUMPDEST SWAP2 POP POP SWAP3 POP SWAP3 SWAP1 POP JUMP JUMPDEST PUSH1 0x0 DUP1 PUSH1 0x40 DUP4 DUP6 SUB SLT ISZERO PUSH2 0x2AE9 JUMPI PUSH2 0x2AE8 PUSH2 0x372A JUMP JUMPDEST JUMPDEST PUSH1 0x0 PUSH2 0x2AF7 DUP6 DUP3 DUP7 ADD PUSH2 0x288A JUMP JUMPDEST SWAP3 POP POP PUSH1 0x20 PUSH2 0x2B08 DUP6 DUP3 DUP7 ADD PUSH2 0x293A JUMP JUMPDEST SWAP2 POP POP SWAP3 POP SWAP3 SWAP1 POP JUMP JUMPDEST PUSH1 0x0 PUSH1 0x20 DUP3 DUP5 SUB SLT ISZERO PUSH2 0x2B28 JUMPI PUSH2 0x2B27 PUSH2 0x372A JUMP JUMPDEST JUMPDEST PUSH1 0x0 PUSH2 0x2B36 DUP5 DUP3 DUP6 ADD PUSH2 0x28B4 JUMP JUMPDEST SWAP2 POP POP SWAP3 SWAP2 POP POP JUMP JUMPDEST PUSH1 0x0 PUSH1 0x20 DUP3 DUP5 SUB SLT ISZERO PUSH2 0x2B55 JUMPI PUSH2 0x2B54 PUSH2 0x372A JUMP JUMPDEST JUMPDEST PUSH1 0x0 PUSH2 0x2B63 DUP5 DUP3 DUP6 ADD PUSH2 0x28C9 JUMP JUMPDEST SWAP2 POP POP SWAP3 SWAP2 POP POP JUMP JUMPDEST PUSH1 0x0 PUSH1 0x20 DUP3 DUP5 SUB SLT ISZERO PUSH2 0x2B82 JUMPI PUSH2 0x2B81 PUSH2 0x372A JUMP JUMPDEST JUMPDEST PUSH1 0x0 DUP3 ADD CALLDATALOAD PUSH8 0xFFFFFFFFFFFFFFFF DUP2 GT ISZERO PUSH2 0x2BA0 JUMPI PUSH2 0x2B9F PUSH2 0x3725 JUMP JUMPDEST JUMPDEST PUSH2 0x2BAC DUP5 DUP3 DUP6 ADD PUSH2 0x290C JUMP JUMPDEST SWAP2 POP POP SWAP3 SWAP2 POP POP JUMP JUMPDEST PUSH1 0x0 DUP1 PUSH1 0x40 DUP4 DUP6 SUB SLT ISZERO PUSH2 0x2BCC JUMPI PUSH2 0x2BCB PUSH2 0x372A JUMP JUMPDEST JUMPDEST PUSH1 0x0 DUP4 ADD CALLDATALOAD PUSH8 0xFFFFFFFFFFFFFFFF DUP2 GT ISZERO PUSH2 0x2BEA JUMPI PUSH2 0x2BE9 PUSH2 0x3725 JUMP JUMPDEST JUMPDEST PUSH2 0x2BF6 DUP6 DUP3 DUP7 ADD PUSH2 0x290C JUMP JUMPDEST SWAP3 POP POP PUSH1 0x20 PUSH2 0x2C07 DUP6 DUP3 DUP7 ADD PUSH2 0x293A JUMP JUMPDEST SWAP2 POP POP SWAP3 POP SWAP3 SWAP1 POP JUMP JUMPDEST PUSH1 0x0 PUSH1 0x20 DUP3 DUP5 SUB SLT ISZERO PUSH2 0x2C27 JUMPI PUSH2 0x2C26 PUSH2 0x372A JUMP JUMPDEST JUMPDEST PUSH1 0x0 PUSH2 0x2C35 DUP5 DUP3 DUP6 ADD PUSH2 0x293A JUMP JUMPDEST SWAP2 POP POP SWAP3 SWAP2 POP POP JUMP JUMPDEST PUSH1 0x0 DUP1 PUSH1 0x40 DUP4 DUP6 SUB SLT ISZERO PUSH2 0x2C55 JUMPI PUSH2 0x2C54 PUSH2 0x372A JUMP JUMPDEST JUMPDEST PUSH1 0x0 PUSH2 0x2C63 DUP6 DUP3 DUP7 ADD PUSH2 0x293A JUMP JUMPDEST SWAP3 POP POP PUSH1 0x20 DUP4 ADD CALLDATALOAD PUSH8 0xFFFFFFFFFFFFFFFF DUP2 GT ISZERO PUSH2 0x2C84 JUMPI PUSH2 0x2C83 PUSH2 0x3725 JUMP JUMPDEST JUMPDEST PUSH2 0x2C90 DUP6 DUP3 DUP7 ADD PUSH2 0x290C JUMP JUMPDEST SWAP2 POP POP SWAP3 POP SWAP3 SWAP1 POP JUMP JUMPDEST PUSH1 0x0 DUP1 PUSH1 0x0 DUP1 PUSH1 0x80 DUP6 DUP8 SUB SLT ISZERO PUSH2 0x2CB4 JUMPI PUSH2 0x2CB3 PUSH2 0x372A JUMP JUMPDEST JUMPDEST PUSH1 0x0 PUSH2 0x2CC2 DUP8 DUP3 DUP9 ADD PUSH2 0x293A JUMP JUMPDEST SWAP5 POP POP PUSH1 0x20 DUP6 ADD CALLDATALOAD PUSH8 0xFFFFFFFFFFFFFFFF DUP2 GT ISZERO PUSH2 0x2CE3 JUMPI PUSH2 0x2CE2 PUSH2 0x3725 JUMP JUMPDEST JUMPDEST PUSH2 0x2CEF DUP8 DUP3 DUP9 ADD PUSH2 0x290C JUMP JUMPDEST SWAP4 POP POP PUSH1 0x40 DUP6 ADD CALLDATALOAD PUSH8 0xFFFFFFFFFFFFFFFF DUP2 GT ISZERO PUSH2 0x2D10 JUMPI PUSH2 0x2D0F PUSH2 0x3725 JUMP JUMPDEST JUMPDEST PUSH2 0x2D1C DUP8 DUP3 DUP9 ADD PUSH2 0x290C JUMP JUMPDEST SWAP3 POP POP PUSH1 0x60 PUSH2 0x2D2D DUP8 DUP3 DUP9 ADD PUSH2 0x293A JUMP JUMPDEST SWAP2 POP POP SWAP3 SWAP6 SWAP2 SWAP5 POP SWAP3 POP JUMP JUMPDEST PUSH1 0x0 DUP1 PUSH1 0x40 DUP4 DUP6 SUB SLT ISZERO PUSH2 0x2D50 JUMPI PUSH2 0x2D4F PUSH2 0x372A JUMP JUMPDEST JUMPDEST PUSH1 0x0 PUSH2 0x2D5E DUP6 DUP3 DUP7 ADD PUSH2 0x293A JUMP JUMPDEST SWAP3 POP POP PUSH1 0x20 PUSH2 0x2D6F DUP6 DUP3 DUP7 ADD PUSH2 0x293A JUMP JUMPDEST SWAP2 POP POP SWAP3 POP SWAP3 SWAP1 POP JUMP JUMPDEST PUSH1 0x0 DUP1 PUSH1 0x0 PUSH1 0x60 DUP5 DUP7 SUB SLT ISZERO PUSH2 0x2D92 JUMPI PUSH2 0x2D91 PUSH2 0x372A JUMP JUMPDEST JUMPDEST PUSH1 0x0 PUSH2 0x2DA0 DUP7 DUP3 DUP8 ADD PUSH2 0x293A JUMP JUMPDEST SWAP4 POP POP PUSH1 0x20 PUSH2 0x2DB1 DUP7 DUP3 DUP8 ADD PUSH2 0x293A JUMP JUMPDEST SWAP3 POP POP PUSH1 0x40 DUP5 ADD CALLDATALOAD PUSH8 0xFFFFFFFFFFFFFFFF DUP2 GT ISZERO PUSH2 0x2DD2 JUMPI PUSH2 0x2DD1 PUSH2 0x3725 JUMP JUMPDEST JUMPDEST PUSH2 0x2DDE DUP7 DUP3 DUP8 ADD PUSH2 0x290C JUMP JUMPDEST SWAP2 POP POP SWAP3 POP SWAP3 POP SWAP3 JUMP JUMPDEST PUSH1 0x0 PUSH2 0x2DF4 DUP4 DUP4 PUSH2 0x2F47 JUMP JUMPDEST SWAP1 POP SWAP3 SWAP2 POP POP JUMP JUMPDEST PUSH2 0x2E05 DUP2 PUSH2 0x34CE JUMP JUMPDEST DUP3 MSTORE POP POP JUMP JUMPDEST PUSH1 0x0 PUSH2 0x2E16 DUP3 PUSH2 0x33C7 JUMP JUMPDEST PUSH2 0x2E20 DUP2 DUP6 PUSH2 0x33F5 JUMP JUMPDEST SWAP4 POP DUP4 PUSH1 0x20 DUP3 MUL DUP6 ADD PUSH2 0x2E32 DUP6 PUSH2 0x33A2 JUMP JUMPDEST DUP1 PUSH1 0x0 JUMPDEST DUP6 DUP2 LT ISZERO PUSH2 0x2E6E JUMPI DUP5 DUP5 SUB DUP10 MSTORE DUP2 MLOAD PUSH2 0x2E4F DUP6 DUP3 PUSH2 0x2DE8 JUMP JUMPDEST SWAP5 POP PUSH2 0x2E5A DUP4 PUSH2 0x33E8 JUMP JUMPDEST SWAP3 POP PUSH1 0x20 DUP11 ADD SWAP10 POP POP PUSH1 0x1 DUP2 ADD SWAP1 POP PUSH2 0x2E36 JUMP JUMPDEST POP DUP3 SWAP8 POP DUP8 SWAP6 POP POP POP POP POP POP SWAP3 SWAP2 POP POP JUMP JUMPDEST PUSH2 0x2E89 DUP2 PUSH2 0x34E0 JUMP JUMPDEST DUP3 MSTORE POP POP JUMP JUMPDEST PUSH1 0x0 PUSH2 0x2E9A DUP3 PUSH2 0x33D2 JUMP JUMPDEST PUSH2 0x2EA4 DUP2 DUP6 PUSH2 0x3406 JUMP JUMPDEST SWAP4 POP PUSH2 0x2EB4 DUP2 DUP6 PUSH1 0x20 DUP7 ADD PUSH2 0x3551 JUMP JUMPDEST PUSH2 0x2EBD DUP2 PUSH2 0x372F JUMP JUMPDEST DUP5 ADD SWAP2 POP POP SWAP3 SWAP2 POP POP JUMP JUMPDEST PUSH1 0x0 DUP2 SLOAD PUSH2 0x2ED5 DUP2 PUSH2 0x3584 JUMP JUMPDEST PUSH2 0x2EDF DUP2 DUP7 PUSH2 0x3417 JUMP JUMPDEST SWAP5 POP PUSH1 0x1 DUP3 AND PUSH1 0x0 DUP2 EQ PUSH2 0x2EFA JUMPI PUSH1 0x1 DUP2 EQ PUSH2 0x2F0B JUMPI PUSH2 0x2F3E JUMP JUMPDEST PUSH1 0xFF NOT DUP4 AND DUP7 MSTORE DUP2 DUP7 ADD SWAP4 POP PUSH2 0x2F3E JUMP JUMPDEST PUSH2 0x2F14 DUP6 PUSH2 0x33B2 JUMP JUMPDEST PUSH1 0x0 JUMPDEST DUP4 DUP2 LT ISZERO PUSH2 0x2F36 JUMPI DUP2 SLOAD DUP2 DUP10 ADD MSTORE PUSH1 0x1 DUP3 ADD SWAP2 POP PUSH1 0x20 DUP2 ADD SWAP1 POP PUSH2 0x2F17 JUMP JUMPDEST DUP4 DUP9 ADD SWAP6 POP POP POP JUMPDEST POP POP POP SWAP3 SWAP2 POP POP JUMP JUMPDEST PUSH1 0x0 PUSH2 0x2F52 DUP3 PUSH2 0x33DD JUMP JUMPDEST PUSH2 0x2F5C DUP2 DUP6 PUSH2 0x3422 JUMP JUMPDEST SWAP4 POP PUSH2 0x2F6C DUP2 DUP6 PUSH1 0x20 DUP7 ADD PUSH2 0x3551 JUMP JUMPDEST PUSH2 0x2F75 DUP2 PUSH2 0x372F JUMP JUMPDEST DUP5 ADD SWAP2 POP POP SWAP3 SWAP2 POP POP JUMP JUMPDEST PUSH1 0x0 PUSH2 0x2F8B DUP3 PUSH2 0x33DD JUMP JUMPDEST PUSH2 0x2F95 DUP2 DUP6 PUSH2 0x3433 JUMP JUMPDEST SWAP4 POP PUSH2 0x2FA5 DUP2 DUP6 PUSH1 0x20 DUP7 ADD PUSH2 0x3551 JUMP JUMPDEST PUSH2 0x2FAE DUP2 PUSH2 0x372F JUMP JUMPDEST DUP5 ADD SWAP2 POP POP SWAP3 SWAP2 POP POP JUMP JUMPDEST PUSH1 0x0 PUSH2 0x2FC6 PUSH1 0x2D DUP4 PUSH2 0x3433 JUMP JUMPDEST SWAP2 POP PUSH2 0x2FD1 DUP3 PUSH2 0x3740 JUMP JUMPDEST PUSH1 0x40 DUP3 ADD SWAP1 POP SWAP2 SWAP1 POP JUMP JUMPDEST PUSH1 0x0 PUSH2 0x2FE9 PUSH1 0x32 DUP4 PUSH2 0x3433 JUMP JUMPDEST SWAP2 POP PUSH2 0x2FF4 DUP3 PUSH2 0x378F JUMP JUMPDEST PUSH1 0x40 DUP3 ADD SWAP1 POP SWAP2 SWAP1 POP JUMP JUMPDEST PUSH1 0x0 PUSH2 0x300C PUSH1 0x25 DUP4 PUSH2 0x3433 JUMP JUMPDEST SWAP2 POP PUSH2 0x3017 DUP3 PUSH2 0x37DE JUMP JUMPDEST PUSH1 0x40 DUP3 ADD SWAP1 POP SWAP2 SWAP1 POP JUMP JUMPDEST PUSH1 0x0 PUSH2 0x302F PUSH1 0x24 DUP4 PUSH2 0x3433 JUMP JUMPDEST SWAP2 POP PUSH2 0x303A DUP3 PUSH2 0x382D JUMP JUMPDEST PUSH1 0x40 DUP3 ADD SWAP1 POP SWAP2 SWAP1 POP JUMP JUMPDEST PUSH1 0x0 PUSH2 0x3052 PUSH1 0x19 DUP4 PUSH2 0x3433 JUMP JUMPDEST SWAP2 POP PUSH2 0x305D DUP3 PUSH2 0x387C JUMP JUMPDEST PUSH1 0x20 DUP3 ADD SWAP1 POP SWAP2 SWAP1 POP JUMP JUMPDEST PUSH1 0x0 PUSH2 0x3075 PUSH1 0x29 DUP4 PUSH2 0x3433 JUMP JUMPDEST SWAP2 POP PUSH2 0x3080 DUP3 PUSH2 0x38A5 JUMP JUMPDEST PUSH1 0x40 DUP3 ADD SWAP1 POP SWAP2 SWAP1 POP JUMP JUMPDEST PUSH1 0x0 PUSH2 0x3098 PUSH1 0x18 DUP4 PUSH2 0x3433 JUMP JUMPDEST SWAP2 POP PUSH2 0x30A3 DUP3 PUSH2 0x38F4 JUMP JUMPDEST PUSH1 0x20 DUP3 ADD SWAP1 POP SWAP2 SWAP1 POP JUMP JUMPDEST PUSH1 0x0 PUSH2 0x30BB PUSH1 0x21 DUP4 PUSH2 0x3433 JUMP JUMPDEST SWAP2 POP PUSH2 0x30C6 DUP3 PUSH2 0x391D JUMP JUMPDEST PUSH1 0x40 DUP3 ADD SWAP1 POP SWAP2 SWAP1 POP JUMP JUMPDEST PUSH1 0x0 PUSH2 0x30DE PUSH1 0x3D DUP4 PUSH2 0x3433 JUMP JUMPDEST SWAP2 POP PUSH2 0x30E9 DUP3 PUSH2 0x396C JUMP JUMPDEST PUSH1 0x40 DUP3 ADD SWAP1 POP SWAP2 SWAP1 POP JUMP JUMPDEST PUSH2 0x30FD DUP2 PUSH2 0x3538 JUMP JUMPDEST DUP3 MSTORE POP POP JUMP JUMPDEST PUSH1 0x0 PUSH2 0x310F DUP3 DUP5 PUSH2 0x2EC8 JUMP JUMPDEST SWAP2 POP DUP2 SWAP1 POP SWAP3 SWAP2 POP POP JUMP JUMPDEST PUSH1 0x0 PUSH1 0x20 DUP3 ADD SWAP1 POP PUSH2 0x312F PUSH1 0x0 DUP4 ADD DUP5 PUSH2 0x2DFC JUMP JUMPDEST SWAP3 SWAP2 POP POP JUMP JUMPDEST PUSH1 0x0 PUSH1 0x80 DUP3 ADD SWAP1 POP PUSH2 0x314A PUSH1 0x0 DUP4 ADD DUP8 PUSH2 0x2DFC JUMP JUMPDEST PUSH2 0x3157 PUSH1 0x20 DUP4 ADD DUP7 PUSH2 0x2DFC JUMP JUMPDEST PUSH2 0x3164 PUSH1 0x40 DUP4 ADD DUP6 PUSH2 0x30F4 JUMP JUMPDEST DUP2 DUP2 SUB PUSH1 0x60 DUP4 ADD MSTORE PUSH2 0x3176 DUP2 DUP5 PUSH2 0x2E8F JUMP JUMPDEST SWAP1 POP SWAP6 SWAP5 POP POP POP POP POP JUMP JUMPDEST PUSH1 0x0 PUSH1 0x20 DUP3 ADD SWAP1 POP DUP2 DUP2 SUB PUSH1 0x0 DUP4 ADD MSTORE PUSH2 0x319B DUP2 DUP5 PUSH2 0x2E0B JUMP JUMPDEST SWAP1 POP SWAP3 SWAP2 POP POP JUMP JUMPDEST PUSH1 0x0 PUSH1 0x20 DUP3 ADD SWAP1 POP PUSH2 0x31B8 PUSH1 0x0 DUP4 ADD DUP5 PUSH2 0x2E80 JUMP JUMPDEST SWAP3 SWAP2 POP POP JUMP JUMPDEST PUSH1 0x0 PUSH1 0x20 DUP3 ADD SWAP1 POP DUP2 DUP2 SUB PUSH1 0x0 DUP4 ADD MSTORE PUSH2 0x31D8 DUP2 DUP5 PUSH2 0x2F80 JUMP JUMPDEST SWAP1 POP SWAP3 SWAP2 POP POP JUMP JUMPDEST PUSH1 0x0 PUSH1 0x20 DUP3 ADD SWAP1 POP DUP2 DUP2 SUB PUSH1 0x0 DUP4 ADD MSTORE PUSH2 0x31F9 DUP2 PUSH2 0x2FB9 JUMP JUMPDEST SWAP1 POP SWAP2 SWAP1 POP JUMP JUMPDEST PUSH1 0x0 PUSH1 0x20 DUP3 ADD SWAP1 POP DUP2 DUP2 SUB PUSH1 0x0 DUP4 ADD MSTORE PUSH2 0x3219 DUP2 PUSH2 0x2FDC JUMP JUMPDEST SWAP1 POP SWAP2 SWAP1 POP JUMP JUMPDEST PUSH1 0x0 PUSH1 0x20 DUP3 ADD SWAP1 POP DUP2 DUP2 SUB PUSH1 0x0 DUP4 ADD MSTORE PUSH2 0x3239 DUP2 PUSH2 0x2FFF JUMP JUMPDEST SWAP1 POP SWAP2 SWAP1 POP JUMP JUMPDEST PUSH1 0x0 PUSH1 0x20 DUP3 ADD SWAP1 POP DUP2 DUP2 SUB PUSH1 0x0 DUP4 ADD MSTORE PUSH2 0x3259 DUP2 PUSH2 0x3022 JUMP JUMPDEST SWAP1 POP SWAP2 SWAP1 POP JUMP JUMPDEST PUSH1 0x0 PUSH1 0x20 DUP3 ADD SWAP1 POP DUP2 DUP2 SUB PUSH1 0x0 DUP4 ADD MSTORE PUSH2 0x3279 DUP2 PUSH2 0x3045 JUMP JUMPDEST SWAP1 POP SWAP2 SWAP1 POP JUMP JUMPDEST PUSH1 0x0 PUSH1 0x20 DUP3 ADD SWAP1 POP DUP2 DUP2 SUB PUSH1 0x0 DUP4 ADD MSTORE PUSH2 0x3299 DUP2 PUSH2 0x3068 JUMP JUMPDEST SWAP1 POP SWAP2 SWAP1 POP JUMP JUMPDEST PUSH1 0x0 PUSH1 0x20 DUP3 ADD SWAP1 POP DUP2 DUP2 SUB PUSH1 0x0 DUP4 ADD MSTORE PUSH2 0x32B9 DUP2 PUSH2 0x308B JUMP JUMPDEST SWAP1 POP SWAP2 SWAP1 POP JUMP JUMPDEST PUSH1 0x0 PUSH1 0x20 DUP3 ADD SWAP1 POP DUP2 DUP2 SUB PUSH1 0x0 DUP4 ADD MSTORE PUSH2 0x32D9 DUP2 PUSH2 0x30AE JUMP JUMPDEST SWAP1 POP SWAP2 SWAP1 POP JUMP JUMPDEST PUSH1 0x0 PUSH1 0x20 DUP3 ADD SWAP1 POP DUP2 DUP2 SUB PUSH1 0x0 DUP4 ADD MSTORE PUSH2 0x32F9 DUP2 PUSH2 0x30D1 JUMP JUMPDEST SWAP1 POP SWAP2 SWAP1 POP JUMP JUMPDEST PUSH1 0x0 PUSH1 0x20 DUP3 ADD SWAP1 POP PUSH2 0x3315 PUSH1 0x0 DUP4 ADD DUP5 PUSH2 0x30F4 JUMP JUMPDEST SWAP3 SWAP2 POP POP JUMP JUMPDEST PUSH1 0x0 PUSH2 0x3325 PUSH2 0x3336 JUMP JUMPDEST SWAP1 POP PUSH2 0x3331 DUP3 DUP3 PUSH2 0x35B6 JUMP JUMPDEST SWAP2 SWAP1 POP JUMP JUMPDEST PUSH1 0x0 PUSH1 0x40 MLOAD SWAP1 POP SWAP1 JUMP JUMPDEST PUSH1 0x0 PUSH8 0xFFFFFFFFFFFFFFFF DUP3 GT ISZERO PUSH2 0x335B JUMPI PUSH2 0x335A PUSH2 0x36EC JUMP JUMPDEST JUMPDEST PUSH2 0x3364 DUP3 PUSH2 0x372F JUMP JUMPDEST SWAP1 POP PUSH1 0x20 DUP2 ADD SWAP1 POP SWAP2 SWAP1 POP JUMP JUMPDEST PUSH1 0x0 PUSH8 0xFFFFFFFFFFFFFFFF DUP3 GT ISZERO PUSH2 0x338C JUMPI PUSH2 0x338B PUSH2 0x36EC JUMP JUMPDEST JUMPDEST PUSH2 0x3395 DUP3 PUSH2 0x372F JUMP JUMPDEST SWAP1 POP PUSH1 0x20 DUP2 ADD SWAP1 POP SWAP2 SWAP1 POP JUMP JUMPDEST PUSH1 0x0 DUP2 SWAP1 POP PUSH1 0x20 DUP3 ADD SWAP1 POP SWAP2 SWAP1 POP JUMP JUMPDEST PUSH1 0x0 DUP2 SWAP1 POP DUP2 PUSH1 0x0 MSTORE PUSH1 0x20 PUSH1 0x0 KECCAK256 SWAP1 POP SWAP2 SWAP1 POP JUMP JUMPDEST PUSH1 0x0 DUP2 MLOAD SWAP1 POP SWAP2 SWAP1 POP JUMP JUMPDEST PUSH1 0x0 DUP2 MLOAD SWAP1 POP SWAP2 SWAP1 POP JUMP JUMPDEST PUSH1 0x0 DUP2 MLOAD SWAP1 POP SWAP2 SWAP1 POP JUMP JUMPDEST PUSH1 0x0 PUSH1 0x20 DUP3 ADD SWAP1 POP SWAP2 SWAP1 POP JUMP JUMPDEST PUSH1 0x0 DUP3 DUP3 MSTORE PUSH1 0x20 DUP3 ADD SWAP1 POP SWAP3 SWAP2 POP POP JUMP JUMPDEST PUSH1 0x0 DUP3 DUP3 MSTORE PUSH1 0x20 DUP3 ADD SWAP1 POP SWAP3 SWAP2 POP POP JUMP JUMPDEST PUSH1 0x0 DUP2 SWAP1 POP SWAP3 SWAP2 POP POP JUMP JUMPDEST PUSH1 0x0 DUP3 DUP3 MSTORE PUSH1 0x20 DUP3 ADD SWAP1 POP SWAP3 SWAP2 POP POP JUMP JUMPDEST PUSH1 0x0 DUP3 DUP3 MSTORE PUSH1 0x20 DUP3 ADD SWAP1 POP SWAP3 SWAP2 POP POP JUMP JUMPDEST PUSH1 0x0 PUSH2 0x344F DUP3 PUSH2 0x3538 JUMP JUMPDEST SWAP2 POP PUSH2 0x345A DUP4 PUSH2 0x3538 JUMP JUMPDEST SWAP3 POP DUP3 PUSH32 0xFFFFFFFFFFFFFFFFFFFFFFFFFFFFFFFFFFFFFFFFFFFFFFFFFFFFFFFFFFFFFFFF SUB DUP3 GT ISZERO PUSH2 0x348F JUMPI PUSH2 0x348E PUSH2 0x3630 JUMP JUMPDEST JUMPDEST DUP3 DUP3 ADD SWAP1 POP SWAP3 SWAP2 POP POP JUMP JUMPDEST PUSH1 0x0 PUSH2 0x34A5 DUP3 PUSH2 0x3538 JUMP JUMPDEST SWAP2 POP PUSH2 0x34B0 DUP4 PUSH2 0x3538 JUMP JUMPDEST SWAP3 POP DUP3 DUP3 LT ISZERO PUSH2 0x34C3 JUMPI PUSH2 0x34C2 PUSH2 0x3630 JUMP JUMPDEST JUMPDEST DUP3 DUP3 SUB SWAP1 POP SWAP3 SWAP2 POP POP JUMP JUMPDEST PUSH1 0x0 PUSH2 0x34D9 DUP3 PUSH2 0x3518 JUMP JUMPDEST SWAP1 POP SWAP2 SWAP1 POP JUMP JUMPDEST PUSH1 0x0 DUP2 ISZERO ISZERO SWAP1 POP SWAP2 SWAP1 POP JUMP JUMPDEST PUSH1 0x0 PUSH32 0xFFFFFFFF00000000000000000000000000000000000000000000000000000000 DUP3 AND SWAP1 POP SWAP2 SWAP1 POP JUMP JUMPDEST PUSH1 0x0 PUSH20 0xFFFFFFFFFFFFFFFFFFFFFFFFFFFFFFFFFFFFFFFF DUP3 AND SWAP1 POP SWAP2 SWAP1 POP JUMP JUMPDEST PUSH1 0x0 DUP2 SWAP1 POP SWAP2 SWAP1 POP JUMP JUMPDEST DUP3 DUP2 DUP4 CALLDATACOPY PUSH1 0x0 DUP4 DUP4 ADD MSTORE POP POP POP JUMP JUMPDEST PUSH1 0x0 JUMPDEST DUP4 DUP2 LT ISZERO PUSH2 0x356F JUMPI DUP1 DUP3 ADD MLOAD DUP2 DUP5 ADD MSTORE PUSH1 0x20 DUP2 ADD SWAP1 POP PUSH2 0x3554 JUMP JUMPDEST DUP4 DUP2 GT ISZERO PUSH2 0x357E JUMPI PUSH1 0x0 DUP5 DUP5 ADD MSTORE JUMPDEST POP POP POP POP JUMP JUMPDEST PUSH1 0x0 PUSH1 0x2 DUP3 DIV SWAP1 POP PUSH1 0x1 DUP3 AND DUP1 PUSH2 0x359C JUMPI PUSH1 0x7F DUP3 AND SWAP2 POP JUMPDEST PUSH1 0x20 DUP3 LT DUP2 EQ ISZERO PUSH2 0x35B0 JUMPI PUSH2 0x35AF PUSH2 0x368E JUMP JUMPDEST JUMPDEST POP SWAP2 SWAP1 POP JUMP JUMPDEST PUSH2 0x35BF DUP3 PUSH2 0x372F JUMP JUMPDEST DUP2 ADD DUP2 DUP2 LT PUSH8 0xFFFFFFFFFFFFFFFF DUP3 GT OR ISZERO PUSH2 0x35DE JUMPI PUSH2 0x35DD PUSH2 0x36EC JUMP JUMPDEST JUMPDEST DUP1 PUSH1 0x40 MSTORE POP POP POP JUMP JUMPDEST PUSH1 0x0 PUSH2 0x35F2 DUP3 PUSH2 0x3538 JUMP JUMPDEST SWAP2 POP PUSH32 0xFFFFFFFFFFFFFFFFFFFFFFFFFFFFFFFFFFFFFFFFFFFFFFFFFFFFFFFFFFFFFFFF DUP3 EQ ISZERO PUSH2 0x3625 JUMPI PUSH2 0x3624 PUSH2 0x3630 JUMP JUMPDEST JUMPDEST PUSH1 0x1 DUP3 ADD SWAP1 POP SWAP2 SWAP1 POP JUMP JUMPDEST PUSH32 0x4E487B7100000000000000000000000000000000000000000000000000000000 PUSH1 0x0 MSTORE PUSH1 0x11 PUSH1 0x4 MSTORE PUSH1 0x24 PUSH1 0x0 REVERT JUMPDEST PUSH32 0x4E487B7100000000000000000000000000000000000000000000000000000000 PUSH1 0x0 MSTORE PUSH1 0x12 PUSH1 0x4 MSTORE PUSH1 0x24 PUSH1 0x0 REVERT JUMPDEST PUSH32 0x4E487B7100000000000000000000000000000000000000000000000000000000 PUSH1 0x0 MSTORE PUSH1 0x22 PUSH1 0x4 MSTORE PUSH1 0x24 PUSH1 0x0 REVERT JUMPDEST PUSH32 0x4E487B7100000000000000000000000000000000000000000000000000000000 PUSH1 0x0 MSTORE PUSH1 0x32 PUSH1 0x4 MSTORE PUSH1 0x24 PUSH1 0x0 REVERT JUMPDEST PUSH32 0x4E487B7100000000000000000000000000000000000000000000000000000000 PUSH1 0x0 MSTORE PUSH1 0x41 PUSH1 0x4 MSTORE PUSH1 0x24 PUSH1 0x0 REVERT JUMPDEST PUSH1 0x0 DUP1 REVERT JUMPDEST PUSH1 0x0 DUP1 REVERT JUMPDEST PUSH1 0x0 DUP1 REVERT JUMPDEST PUSH1 0x0 DUP1 REVERT JUMPDEST PUSH1 0x0 PUSH1 0x1F NOT PUSH1 0x1F DUP4 ADD AND SWAP1 POP SWAP2 SWAP1 POP JUMP JUMPDEST PUSH32 0x4552433732313A2063616C6C6572206973206E6F7420746F6B656E206F776E65 PUSH1 0x0 DUP3 ADD MSTORE PUSH32 0x72206F7220617070726F76656400000000000000000000000000000000000000 PUSH1 0x20 DUP3 ADD MSTORE POP JUMP JUMPDEST PUSH32 0x4552433732313A207472616E7366657220746F206E6F6E204552433732315265 PUSH1 0x0 DUP3 ADD MSTORE PUSH32 0x63656976657220696D706C656D656E7465720000000000000000000000000000 PUSH1 0x20 DUP3 ADD MSTORE POP JUMP JUMPDEST PUSH32 0x4552433732313A207472616E736665722066726F6D20696E636F727265637420 PUSH1 0x0 DUP3 ADD MSTORE PUSH32 0x6F776E6572000000000000000000000000000000000000000000000000000000 PUSH1 0x20 DUP3 ADD MSTORE POP JUMP JUMPDEST PUSH32 0x4552433732313A207472616E7366657220746F20746865207A65726F20616464 PUSH1 0x0 DUP3 ADD MSTORE PUSH32 0x7265737300000000000000000000000000000000000000000000000000000000 PUSH1 0x20 DUP3 ADD MSTORE POP JUMP JUMPDEST PUSH32 0x4552433732313A20617070726F766520746F2063616C6C657200000000000000 PUSH1 0x0 DUP3 ADD MSTORE POP JUMP JUMPDEST PUSH32 0x4552433732313A2061646472657373207A65726F206973206E6F742061207661 PUSH1 0x0 DUP3 ADD MSTORE PUSH32 0x6C6964206F776E65720000000000000000000000000000000000000000000000 PUSH1 0x20 DUP3 ADD MSTORE POP JUMP JUMPDEST PUSH32 0x4552433732313A20696E76616C696420746F6B656E2049440000000000000000 PUSH1 0x0 DUP3 ADD MSTORE POP JUMP JUMPDEST PUSH32 0x4552433732313A20617070726F76616C20746F2063757272656E74206F776E65 PUSH1 0x0 DUP3 ADD MSTORE PUSH32 0x7200000000000000000000000000000000000000000000000000000000000000 PUSH1 0x20 DUP3 ADD MSTORE POP JUMP JUMPDEST PUSH32 0x4552433732313A20617070726F76652063616C6C6572206973206E6F7420746F PUSH1 0x0 DUP3 ADD MSTORE PUSH32 0x6B656E206F776E6572206F7220617070726F76656420666F7220616C6C000000 PUSH1 0x20 DUP3 ADD MSTORE POP JUMP JUMPDEST PUSH2 0x39C4 DUP2 PUSH2 0x34CE JUMP JUMPDEST DUP2 EQ PUSH2 0x39CF JUMPI PUSH1 0x0 DUP1 REVERT JUMPDEST POP JUMP JUMPDEST PUSH2 0x39DB DUP2 PUSH2 0x34E0 JUMP JUMPDEST DUP2 EQ PUSH2 0x39E6 JUMPI PUSH1 0x0 DUP1 REVERT JUMPDEST POP JUMP JUMPDEST PUSH2 0x39F2 DUP2 PUSH2 0x34EC JUMP JUMPDEST DUP2 EQ PUSH2 0x39FD JUMPI PUSH1 0x0 DUP1 REVERT JUMPDEST POP JUMP JUMPDEST PUSH2 0x3A09 DUP2 PUSH2 0x3538 JUMP JUMPDEST DUP2 EQ PUSH2 0x3A14 JUMPI PUSH1 0x0 DUP1 REVERT JUMPDEST POP JUMP INVALID LOG2 PUSH5 0x6970667358 0x22 SLT KECCAK256 PUSH32 0xCBCF4769C835B8C0DA4B5F118130608369A7D53707B2476C1468261FF7D6F964 PUSH20 0x6F6C634300080600330000000000000000000000 "},"gasEstimates":{"creation":{"codeDepositCost":"2985000","executionCost":"infinite","totalCost":"infinite"},"external":{"BidURI(uint256)":"infinite","_EventTokenSearchIds()":"2519","_SearchedStore(uint256,uint256)":"infinite","_getSearchedTokenURI(uint256)":"infinite","_setBidURI(uint256,string)":"infinite","_setEventURI(uint256,string)":"infinite","_setTokenBid(uint256,uint256,string)":"infinite","_setTokenEvent(uint256,uint256,string)":"infinite","_setTokenURI(uint256,string)":"infinite","approve(address,uint256)":"infinite","balanceOf(address)":"2925","claimToken(string,uint256)":"infinite","createBid(uint256,string,string,uint256)":"infinite","createEvent(string)":"infinite","eventURI(uint256)":"infinite","getApproved(uint256)":"5345","getBidIdByUri(string)":"infinite","getBidsSearchToken(uint256)":"infinite","getGetEventsTokenID(uint256,string)":"infinite","getTotalBid(uint256)":"infinite","gettokenIdByUri(string)":"infinite","gettokenSearchEventTotal(uint256)":"infinite","isApprovedForAll(address,address)":"infinite","name()":"infinite","ownerOf(uint256)":"3135","safeTransferFrom(address,address,uint256)":"infinite","safeTransferFrom(address,address,uint256,bytes)":"infinite","setApprovalForAll(address,bool)":"infinite","supportsInterface(bytes4)":"842","symbol()":"infinite","tokenURI(uint256)":"infinite","totalEvent()":"2527","totalSupply()":"2549","transferFrom(address,address,uint256)":"infinite"}},"methodIdentifiers":{"BidURI(uint256)":"446a92e3","_EventTokenSearchIds()":"144cbca6","_SearchedStore(uint256,uint256)":"b10a5dfa","_getSearchedTokenURI(uint256)":"7cedbc1e","_setBidURI(uint256,string)":"e08033d3","_setEventURI(uint256,string)":"1cd043d6","_setTokenBid(uint256,uint256,string)":"d654e993","_setTokenEvent(uint256,uint256,string)":"3592dd80","_setTokenURI(uint256,string)":"01538868","approve(address,uint256)":"095ea7b3","balanceOf(address)":"70a08231","claimToken(string,uint256)":"44f659b7","createBid(uint256,string,string,uint256)":"0da3c49c","createEvent(string)":"9bc2bc71","eventURI(uint256)":"a0fd0c6a","getApproved(uint256)":"081812fc","getBidIdByUri(string)":"d45fc516","getBidsSearchToken(uint256)":"aed47961","getGetEventsTokenID(uint256,string)":"28520ab7","getTotalBid(uint256)":"5154380a","gettokenIdByUri(string)":"932a196b","gettokenSearchEventTotal(uint256)":"eb1d234d","isApprovedForAll(address,address)":"e985e9c5","name()":"06fdde03","ownerOf(uint256)":"6352211e","safeTransferFrom(address,address,uint256)":"42842e0e","safeTransferFrom(address,address,uint256,bytes)":"b88d4fde","setApprovalForAll(address,bool)":"a22cb465","supportsInterface(bytes4)":"01ffc9a7","symbol()":"95d89b41","tokenURI(uint256)":"c87b56dd","totalEvent()":"7eadfa6a","totalSupply()":"18160ddd","transferFrom(address,address,uint256)":"23b872dd"}},"storageLayout":{"storage":[{"astId":25,"contract":"contracts/MetisERC721.sol:MetisERC721","label":"_name","offset":0,"slot":"0","type":"t_string_storage"},{"astId":27,"contract":"contracts/MetisERC721.sol:MetisERC721","label":"_symbol","offset":0,"slot":"1","type":"t_string_storage"},{"astId":31,"contract":"contracts/MetisERC721.sol:MetisERC721","label":"_owners","offset":0,"slot":"2","type":"t_mapping(t_uint256,t_address)"},{"astId":35,"contract":"contracts/MetisERC721.sol:MetisERC721","label":"_balances","offset":0,"slot":"3","type":"t_mapping(t_address,t_uint256)"},{"astId":39,"contract":"contracts/MetisERC721.sol:MetisERC721","label":"_tokenApprovals","offset":0,"slot":"4","type":"t_mapping(t_uint256,t_address)"},{"astId":45,"contract":"contracts/MetisERC721.sol:MetisERC721","label":"_operatorApprovals","offset":0,"slot":"5","type":"t_mapping(t_address,t_mapping(t_address,t_bool))"},{"astId":2541,"contract":"contracts/MetisERC721.sol:MetisERC721","label":"_tokenIds","offset":0,"slot":"6","type":"t_uint256"},{"astId":2543,"contract":"contracts/MetisERC721.sol:MetisERC721","label":"_bidIds","offset":0,"slot":"7","type":"t_uint256"},{"astId":2545,"contract":"contracts/MetisERC721.sol:MetisERC721","label":"_eventIds","offset":0,"slot":"8","type":"t_uint256"},{"astId":2547,"contract":"contracts/MetisERC721.sol:MetisERC721","label":"_EventTokenIds","offset":0,"slot":"9","type":"t_uint256"},{"astId":2549,"contract":"contracts/MetisERC721.sol:MetisERC721","label":"_TokenBidIds","offset":0,"slot":"10","type":"t_uint256"},{"astId":2553,"contract":"contracts/MetisERC721.sol:MetisERC721","label":"data1","offset":0,"slot":"11","type":"t_array(t_string_storage)2_storage"},{"astId":2555,"contract":"contracts/MetisERC721.sol:MetisERC721","label":"_EventTokenSearchIds","offset":0,"slot":"13","type":"t_uint256"},{"astId":2561,"contract":"contracts/MetisERC721.sol:MetisERC721","label":"AllEventTokens","offset":0,"slot":"14","type":"t_mapping(t_uint256,t_array(t_string_storage)2_storage)"},{"astId":2567,"contract":"contracts/MetisERC721.sol:MetisERC721","label":"AllTokensBids","offset":0,"slot":"15","type":"t_mapping(t_uint256,t_array(t_string_storage)2_storage)"},{"astId":2573,"contract":"contracts/MetisERC721.sol:MetisERC721","label":"_SearchedStore","offset":0,"slot":"16","type":"t_mapping(t_uint256,t_array(t_string_storage)2_storage)"},{"astId":2577,"contract":"contracts/MetisERC721.sol:MetisERC721","label":"_bidURIs","offset":0,"slot":"17","type":"t_mapping(t_uint256,t_string_storage)"},{"astId":2581,"contract":"contracts/MetisERC721.sol:MetisERC721","label":"_tokenURIs","offset":0,"slot":"18","type":"t_mapping(t_uint256,t_string_storage)"},{"astId":2585,"contract":"contracts/MetisERC721.sol:MetisERC721","label":"_eventURIs","offset":0,"slot":"19","type":"t_mapping(t_uint256,t_string_storage)"},{"astId":2589,"contract":"contracts/MetisERC721.sol:MetisERC721","label":"_eventTokens","offset":0,"slot":"20","type":"t_mapping(t_string_memory_ptr,t_string_storage)"}],"types":{"t_address":{"encoding":"inplace","label":"address","numberOfBytes":"20"},"t_array(t_string_storage)2_storage":{"base":"t_string_storage","encoding":"inplace","label":"string[2]","numberOfBytes":"64"},"t_bool":{"encoding":"inplace","label":"bool","numberOfBytes":"1"},"t_mapping(t_address,t_bool)":{"encoding":"mapping","key":"t_address","label":"mapping(address => bool)","numberOfBytes":"32","value":"t_bool"},"t_mapping(t_address,t_mapping(t_address,t_bool))":{"encoding":"mapping","key":"t_address","label":"mapping(address => mapping(address => bool))","numberOfBytes":"32","value":"t_mapping(t_address,t_bool)"},"t_mapping(t_address,t_uint256)":{"encoding":"mapping","key":"t_address","label":"mapping(address => uint256)","numberOfBytes":"32","value":"t_uint256"},"t_mapping(t_string_memory_ptr,t_string_storage)":{"encoding":"mapping","key":"t_string_memory_ptr","label":"mapping(string => string)","numberOfBytes":"32","value":"t_string_storage"},"t_mapping(t_uint256,t_address)":{"encoding":"mapping","key":"t_uint256","label":"mapping(uint256 => address)","numberOfBytes":"32","value":"t_address"},"t_mapping(t_uint256,t_array(t_string_storage)2_storage)":{"encoding":"mapping","key":"t_uint256","label":"mapping(uint256 => string[2])","numberOfBytes":"32","value":"t_array(t_string_storage)2_storage"},"t_mapping(t_uint256,t_string_storage)":{"encoding":"mapping","key":"t_uint256","label":"mapping(uint256 => string)","numberOfBytes":"32","value":"t_string_storage"},"t_string_memory_ptr":{"encoding":"bytes","label":"string","numberOfBytes":"32"},"t_string_storage":{"encoding":"bytes","label":"string","numberOfBytes":"32"},"t_uint256":{"encoding":"inplace","label":"uint256","numberOfBytes":"32"}}},"userdoc":{"kind":"user","methods":{},"version":1}}}}