{
  "_format": "hh-sol-artifact-1",
  "contractName": "MetisERC721",
  "sourceName": "contracts/MetisERC721.sol",
  "abi": [
    {
      "inputs": [
        {
          "internalType": "string",
          "name": "name",
          "type": "string"
        },
        {
          "internalType": "string",
          "name": "symbol",
          "type": "string"
        }
      ],
      "stateMutability": "nonpayable",
      "type": "constructor"
    },
    {
      "anonymous": false,
      "inputs": [
        {
          "indexed": true,
          "internalType": "address",
          "name": "owner",
          "type": "address"
        },
        {
          "indexed": true,
          "internalType": "address",
          "name": "approved",
          "type": "address"
        },
        {
          "indexed": true,
          "internalType": "uint256",
          "name": "tokenId",
          "type": "uint256"
        }
      ],
      "name": "Approval",
      "type": "event"
    },
    {
      "anonymous": false,
      "inputs": [
        {
          "indexed": true,
          "internalType": "address",
          "name": "owner",
          "type": "address"
        },
        {
          "indexed": true,
          "internalType": "address",
          "name": "operator",
          "type": "address"
        },
        {
          "indexed": false,
          "internalType": "bool",
          "name": "approved",
          "type": "bool"
        }
      ],
      "name": "ApprovalForAll",
      "type": "event"
    },
    {
      "anonymous": false,
      "inputs": [
        {
          "indexed": true,
          "internalType": "address",
          "name": "from",
          "type": "address"
        },
        {
          "indexed": true,
          "internalType": "address",
          "name": "to",
          "type": "address"
        },
        {
          "indexed": true,
          "internalType": "uint256",
          "name": "tokenId",
          "type": "uint256"
        }
      ],
      "name": "Transfer",
      "type": "event"
    },
    {
      "inputs": [
        {
          "internalType": "uint256",
          "name": "BidId",
          "type": "uint256"
        }
      ],
      "name": "BidURI",
      "outputs": [
        {
          "internalType": "string",
          "name": "",
          "type": "string"
        }
      ],
      "stateMutability": "view",
      "type": "function"
    },
    {
      "inputs": [],
      "name": "_EventTokenSearchIds",
      "outputs": [
        {
          "internalType": "uint256",
          "name": "",
          "type": "uint256"
        }
      ],
      "stateMutability": "view",
      "type": "function"
    },
    {
      "inputs": [
        {
          "internalType": "uint256",
          "name": "",
          "type": "uint256"
        },
        {
          "internalType": "uint256",
          "name": "",
          "type": "uint256"
        }
      ],
      "name": "_SearchedStore",
      "outputs": [
        {
          "internalType": "string",
          "name": "",
          "type": "string"
        }
      ],
      "stateMutability": "view",
      "type": "function"
    },
    {
      "inputs": [
        {
          "internalType": "uint256",
          "name": "_tokenId",
          "type": "uint256"
        }
      ],
      "name": "_getSearchedTokenURI",
      "outputs": [
        {
          "internalType": "string",
          "name": "",
          "type": "string"
        }
      ],
      "stateMutability": "view",
      "type": "function"
    },
    {
      "inputs": [
        {
          "internalType": "uint256",
          "name": "bidId",
          "type": "uint256"
        },
        {
          "internalType": "string",
          "name": "_bidURI",
          "type": "string"
        }
      ],
      "name": "_setBidURI",
      "outputs": [],
      "stateMutability": "nonpayable",
      "type": "function"
    },
    {
      "inputs": [
        {
          "internalType": "uint256",
          "name": "eventId",
          "type": "uint256"
        },
        {
          "internalType": "string",
          "name": "_eventURI",
          "type": "string"
        }
      ],
      "name": "_setEventURI",
      "outputs": [],
      "stateMutability": "nonpayable",
      "type": "function"
    },
    {
      "inputs": [
        {
          "internalType": "uint256",
          "name": "TokenBidId",
          "type": "uint256"
        },
        {
          "internalType": "uint256",
          "name": "TokenId",
          "type": "uint256"
        },
        {
          "internalType": "string",
          "name": "_BidURI",
          "type": "string"
        }
      ],
      "name": "_setTokenBid",
      "outputs": [],
      "stateMutability": "nonpayable",
      "type": "function"
    },
    {
      "inputs": [
        {
          "internalType": "uint256",
          "name": "EventTokenId",
          "type": "uint256"
        },
        {
          "internalType": "uint256",
          "name": "EventId",
          "type": "uint256"
        },
        {
          "internalType": "string",
          "name": "_tokenURI",
          "type": "string"
        }
      ],
      "name": "_setTokenEvent",
      "outputs": [],
      "stateMutability": "nonpayable",
      "type": "function"
    },
    {
      "inputs": [
        {
          "internalType": "uint256",
          "name": "tokenId",
          "type": "uint256"
        },
        {
          "internalType": "string",
          "name": "_tokenURI",
          "type": "string"
        }
      ],
      "name": "_setTokenURI",
      "outputs": [],
      "stateMutability": "nonpayable",
      "type": "function"
    },
    {
      "inputs": [
        {
          "internalType": "address",
          "name": "to",
          "type": "address"
        },
        {
          "internalType": "uint256",
          "name": "tokenId",
          "type": "uint256"
        }
      ],
      "name": "approve",
      "outputs": [],
      "stateMutability": "nonpayable",
      "type": "function"
    },
    {
      "inputs": [
        {
          "internalType": "address",
          "name": "owner",
          "type": "address"
        }
      ],
      "name": "balanceOf",
      "outputs": [
        {
          "internalType": "uint256",
          "name": "",
          "type": "uint256"
        }
      ],
      "stateMutability": "view",
      "type": "function"
    },
    {
      "inputs": [
        {
          "internalType": "string",
          "name": "_tokenURI",
          "type": "string"
        },
        {
          "internalType": "uint256",
          "name": "_eventid",
          "type": "uint256"
        }
      ],
      "name": "claimToken",
      "outputs": [
        {
          "internalType": "uint256",
          "name": "",
          "type": "uint256"
        }
      ],
      "stateMutability": "nonpayable",
      "type": "function"
    },
    {
      "inputs": [
        {
          "internalType": "uint256",
          "name": "_tokenId",
          "type": "uint256"
        },
        {
          "internalType": "string",
          "name": "_bidURI",
          "type": "string"
        },
        {
          "internalType": "string",
          "name": "_updatedURI",
          "type": "string"
        },
        {
          "internalType": "uint256",
          "name": "_eventid",
          "type": "uint256"
        }
      ],
      "name": "createBid",
      "outputs": [],
      "stateMutability": "nonpayable",
      "type": "function"
    },
    {
      "inputs": [
        {
          "internalType": "string",
          "name": "_eventURI",
          "type": "string"
        }
      ],
      "name": "createEvent",
      "outputs": [
        {
          "internalType": "uint256",
          "name": "",
          "type": "uint256"
        }
      ],
      "stateMutability": "nonpayable",
      "type": "function"
    },
    {
      "inputs": [
        {
          "internalType": "uint256",
          "name": "eventId",
          "type": "uint256"
        }
      ],
      "name": "eventURI",
      "outputs": [
        {
          "internalType": "string",
          "name": "",
          "type": "string"
        }
      ],
      "stateMutability": "view",
      "type": "function"
    },
    {
      "inputs": [
        {
          "internalType": "uint256",
          "name": "tokenId",
          "type": "uint256"
        }
      ],
      "name": "getApproved",
      "outputs": [
        {
          "internalType": "address",
          "name": "",
          "type": "address"
        }
      ],
      "stateMutability": "view",
      "type": "function"
    },
    {
      "inputs": [
        {
          "internalType": "string",
          "name": "_bidURI",
          "type": "string"
        }
      ],
      "name": "getBidIdByUri",
      "outputs": [
        {
          "internalType": "uint256",
          "name": "",
          "type": "uint256"
        }
      ],
      "stateMutability": "view",
      "type": "function"
    },
    {
      "inputs": [
        {
          "internalType": "uint256",
          "name": "TokenID",
          "type": "uint256"
        }
      ],
      "name": "getBidsSearchToken",
      "outputs": [
        {
          "internalType": "string[]",
          "name": "",
          "type": "string[]"
        }
      ],
      "stateMutability": "view",
      "type": "function"
    },
    {
      "inputs": [
        {
          "internalType": "uint256",
          "name": "EventId",
          "type": "uint256"
        },
        {
          "internalType": "string",
          "name": "_tokenURI",
          "type": "string"
        }
      ],
      "name": "getGetEventsTokenID",
      "outputs": [
        {
          "internalType": "uint256",
          "name": "",
          "type": "uint256"
        }
      ],
      "stateMutability": "view",
      "type": "function"
    },
    {
      "inputs": [
        {
          "internalType": "uint256",
          "name": "TokenID",
          "type": "uint256"
        }
      ],
      "name": "getTotalBid",
      "outputs": [
        {
          "internalType": "string[]",
          "name": "",
          "type": "string[]"
        }
      ],
      "stateMutability": "view",
      "type": "function"
    },
    {
      "inputs": [
        {
          "internalType": "string",
          "name": "_tokenURI",
          "type": "string"
        }
      ],
      "name": "gettokenIdByUri",
      "outputs": [
        {
          "internalType": "uint256",
          "name": "",
          "type": "uint256"
        }
      ],
      "stateMutability": "view",
      "type": "function"
    },
    {
      "inputs": [
        {
          "internalType": "uint256",
          "name": "EventID",
          "type": "uint256"
        }
      ],
      "name": "gettokenSearchEventTotal",
      "outputs": [
        {
          "internalType": "string[]",
          "name": "",
          "type": "string[]"
        }
      ],
      "stateMutability": "view",
      "type": "function"
    },
    {
      "inputs": [
        {
          "internalType": "address",
          "name": "owner",
          "type": "address"
        },
        {
          "internalType": "address",
          "name": "operator",
          "type": "address"
        }
      ],
      "name": "isApprovedForAll",
      "outputs": [
        {
          "internalType": "bool",
          "name": "",
          "type": "bool"
        }
      ],
      "stateMutability": "view",
      "type": "function"
    },
    {
      "inputs": [],
      "name": "name",
      "outputs": [
        {
          "internalType": "string",
          "name": "",
          "type": "string"
        }
      ],
      "stateMutability": "view",
      "type": "function"
    },
    {
      "inputs": [
        {
          "internalType": "uint256",
          "name": "tokenId",
          "type": "uint256"
        }
      ],
      "name": "ownerOf",
      "outputs": [
        {
          "internalType": "address",
          "name": "",
          "type": "address"
        }
      ],
      "stateMutability": "view",
      "type": "function"
    },
    {
      "inputs": [
        {
          "internalType": "address",
          "name": "from",
          "type": "address"
        },
        {
          "internalType": "address",
          "name": "to",
          "type": "address"
        },
        {
          "internalType": "uint256",
          "name": "tokenId",
          "type": "uint256"
        }
      ],
      "name": "safeTransferFrom",
      "outputs": [],
      "stateMutability": "nonpayable",
      "type": "function"
    },
    {
      "inputs": [
        {
          "internalType": "address",
          "name": "from",
          "type": "address"
        },
        {
          "internalType": "address",
          "name": "to",
          "type": "address"
        },
        {
          "internalType": "uint256",
          "name": "tokenId",
          "type": "uint256"
        },
        {
          "internalType": "bytes",
          "name": "data",
          "type": "bytes"
        }
      ],
      "name": "safeTransferFrom",
      "outputs": [],
      "stateMutability": "nonpayable",
      "type": "function"
    },
    {
      "inputs": [
        {
          "internalType": "address",
          "name": "operator",
          "type": "address"
        },
        {
          "internalType": "bool",
          "name": "approved",
          "type": "bool"
        }
      ],
      "name": "setApprovalForAll",
      "outputs": [],
      "stateMutability": "nonpayable",
      "type": "function"
    },
    {
      "inputs": [
        {
          "internalType": "bytes4",
          "name": "interfaceId",
          "type": "bytes4"
        }
      ],
      "name": "supportsInterface",
      "outputs": [
        {
          "internalType": "bool",
          "name": "",
          "type": "bool"
        }
      ],
      "stateMutability": "view",
      "type": "function"
    },
    {
      "inputs": [],
      "name": "symbol",
      "outputs": [
        {
          "internalType": "string",
          "name": "",
          "type": "string"
        }
      ],
      "stateMutability": "view",
      "type": "function"
    },
    {
      "inputs": [
        {
          "internalType": "uint256",
          "name": "tokenId",
          "type": "uint256"
        }
      ],
      "name": "tokenURI",
      "outputs": [
        {
          "internalType": "string",
          "name": "",
          "type": "string"
        }
      ],
      "stateMutability": "view",
      "type": "function"
    },
    {
      "inputs": [],
      "name": "totalEvent",
      "outputs": [
        {
          "internalType": "uint256",
          "name": "",
          "type": "uint256"
        }
      ],
      "stateMutability": "view",
      "type": "function"
    },
    {
      "inputs": [],
      "name": "totalSupply",
      "outputs": [
        {
          "internalType": "uint256",
          "name": "",
          "type": "uint256"
        }
      ],
      "stateMutability": "view",
      "type": "function"
    },
    {
      "inputs": [
        {
          "internalType": "address",
          "name": "from",
          "type": "address"
        },
        {
          "internalType": "address",
          "name": "to",
          "type": "address"
        },
        {
          "internalType": "uint256",
          "name": "tokenId",
          "type": "uint256"
        }
      ],
      "name": "transferFrom",
      "outputs": [],
      "stateMutability": "nonpayable",
      "type": "function"
    }
  ],
  "bytecode": "0x60806040523480156200001157600080fd5b5060405162003e0938038062003e098339818101604052810190620000379190620001a3565b818181600090805190602001906200005192919062000075565b5080600190805190602001906200006a92919062000075565b5050505050620003ac565b8280546200008390620002bd565b90600052602060002090601f016020900481019282620000a75760008555620000f3565b82601f10620000c257805160ff1916838001178555620000f3565b82800160010185558215620000f3579182015b82811115620000f2578251825591602001919060010190620000d5565b5b50905062000102919062000106565b5090565b5b808211156200012157600081600090555060010162000107565b5090565b60006200013c620001368462000251565b62000228565b9050828152602081018484840111156200015b576200015a6200038c565b5b6200016884828562000287565b509392505050565b600082601f83011262000188576200018762000387565b5b81516200019a84826020860162000125565b91505092915050565b60008060408385031215620001bd57620001bc62000396565b5b600083015167ffffffffffffffff811115620001de57620001dd62000391565b5b620001ec8582860162000170565b925050602083015167ffffffffffffffff81111562000210576200020f62000391565b5b6200021e8582860162000170565b9150509250929050565b60006200023462000247565b9050620002428282620002f3565b919050565b6000604051905090565b600067ffffffffffffffff8211156200026f576200026e62000358565b5b6200027a826200039b565b9050602081019050919050565b60005b83811015620002a75780820151818401526020810190506200028a565b83811115620002b7576000848401525b50505050565b60006002820490506001821680620002d657607f821691505b60208210811415620002ed57620002ec62000329565b5b50919050565b620002fe826200039b565b810181811067ffffffffffffffff8211171562000320576200031f62000358565b5b80604052505050565b7f4e487b7100000000000000000000000000000000000000000000000000000000600052602260045260246000fd5b7f4e487b7100000000000000000000000000000000000000000000000000000000600052604160045260246000fd5b600080fd5b600080fd5b600080fd5b600080fd5b6000601f19601f8301169050919050565b613a4d80620003bc6000396000f3fe608060405234801561001057600080fd5b50600436106102065760003560e01c806370a082311161011a578063aed47961116100ad578063d45fc5161161007c578063d45fc5161461066d578063d654e9931461069d578063e08033d3146106b9578063e985e9c5146106d5578063eb1d234d1461070557610206565b8063aed47961146105c1578063b10a5dfa146105f1578063b88d4fde14610621578063c87b56dd1461063d57610206565b806395d89b41116100e957806395d89b41146105275780639bc2bc7114610545578063a0fd0c6a14610575578063a22cb465146105a557610206565b806370a08231146104795780637cedbc1e146104a95780637eadfa6a146104d9578063932a196b146104f757610206565b80631cd043d61161019d57806342842e0e1161016c57806342842e0e1461039d578063446a92e3146103b957806344f659b7146103e95780635154380a146104195780636352211e1461044957610206565b80631cd043d61461031957806323b872dd1461033557806328520ab7146103515780633592dd801461038157610206565b8063095ea7b3116101d9578063095ea7b3146102a55780630da3c49c146102c1578063144cbca6146102dd57806318160ddd146102fb57610206565b8063015388681461020b57806301ffc9a71461022757806306fdde0314610257578063081812fc14610275575b600080fd5b61022560048036038101906102209190612c3e565b610735565b005b610241600480360381019061023c9190612b12565b610761565b60405161024e91906131a3565b60405180910390f35b61025f610843565b60405161026c91906131be565b60405180910390f35b61028f600480360381019061028a9190612c11565b6108d5565b60405161029c919061311a565b60405180910390f35b6102bf60048036038101906102ba9190612ad2565b61091b565b005b6102db60048036038101906102d69190612c9a565b610a33565b005b6102e5610b53565b6040516102f29190613300565b60405180910390f35b610303610b59565b6040516103109190613300565b60405180910390f35b610333600480360381019061032e9190612c3e565b610b63565b005b61034f600480360381019061034a91906129bc565b610b8f565b005b61036b60048036038101906103669190612c3e565b610bef565b6040516103789190613300565b60405180910390f35b61039b60048036038101906103969190612d79565b610cc8565b005b6103b760048036038101906103b291906129bc565b610d0c565b005b6103d360048036038101906103ce9190612c11565b610d2c565b6040516103e091906131be565b60405180910390f35b61040360048036038101906103fe9190612bb5565b610dd1565b6040516104109190613300565b60405180910390f35b610433600480360381019061042e9190612c11565b610e27565b6040516104409190613181565b60405180910390f35b610463600480360381019061045e9190612c11565b610fd7565b604051610470919061311a565b60405180910390f35b610493600480360381019061048e919061294f565b61105e565b6040516104a09190613300565b60405180910390f35b6104c360048036038101906104be9190612c11565b611116565b6040516104d091906131be565b60405180910390f35b6104e16111cf565b6040516104ee9190613300565b60405180910390f35b610511600480360381019061050c9190612b6c565b6111d9565b60405161051e9190613300565b60405180910390f35b61052f611248565b60405161053c91906131be565b60405180910390f35b61055f600480360381019061055a9190612b6c565b6112da565b60405161056c9190613300565b60405180910390f35b61058f600480360381019061058a9190612c11565b61130a565b60405161059c91906131be565b60405180910390f35b6105bf60048036038101906105ba9190612a92565b6113af565b005b6105db60048036038101906105d69190612c11565b6113c5565b6040516105e89190613181565b60405180910390f35b61060b60048036038101906106069190612d39565b611575565b60405161061891906131be565b60405180910390f35b61063b60048036038101906106369190612a0f565b611625565b005b61065760048036038101906106529190612c11565b611687565b60405161066491906131be565b60405180910390f35b61068760048036038101906106829190612b6c565b61172c565b6040516106949190613300565b60405180910390f35b6106b760048036038101906106b29190612d79565b61179b565b005b6106d360048036038101906106ce9190612c3e565b6117df565b005b6106ef60048036038101906106ea919061297c565b61180b565b6040516106fc91906131a3565b60405180910390f35b61071f600480360381019061071a9190612c11565b61189f565b60405161072c9190613181565b60405180910390f35b8060126000848152602001908152602001600020908051906020019061075c9291906126ac565b505050565b60007f80ac58cd000000000000000000000000000000000000000000000000000000007bffffffffffffffffffffffffffffffffffffffffffffffffffffffff1916827bffffffffffffffffffffffffffffffffffffffffffffffffffffffff1916148061082c57507f5b5e139f000000000000000000000000000000000000000000000000000000007bffffffffffffffffffffffffffffffffffffffffffffffffffffffff1916827bffffffffffffffffffffffffffffffffffffffffffffffffffffffff1916145b8061083c575061083b82611a4f565b5b9050919050565b60606000805461085290613584565b80601f016020809104026020016040519081016040528092919081815260200182805461087e90613584565b80156108cb5780601f106108a0576101008083540402835291602001916108cb565b820191906000526020600020905b8154815290600101906020018083116108ae57829003601f168201915b5050505050905090565b60006108e082611ab9565b6004600083815260200190815260200160002060009054906101000a900473ffffffffffffffffffffffffffffffffffffffff169050919050565b600061092682610fd7565b90508073ffffffffffffffffffffffffffffffffffffffff168373ffffffffffffffffffffffffffffffffffffffff161415610997576040517f08c379a000000000000000000000000000000000000000000000000000000000815260040161098e906132c0565b60405180910390fd5b8073ffffffffffffffffffffffffffffffffffffffff166109b6611b04565b73ffffffffffffffffffffffffffffffffffffffff1614806109e557506109e4816109df611b04565b61180b565b5b610a24576040517f08c379a0000000000000000000000000000000000000000000000000000000008152600401610a1b906132e0565b60405180910390fd5b610a2e8383611b0c565b505050565b6000610ada82601260008881526020019081526020016000208054610a5790613584565b80601f0160208091040260200160405190810160405280929190818152602001828054610a8390613584565b8015610ad05780601f10610aa557610100808354040283529160200191610ad0565b820191906000526020600020905b815481529060010190602001808311610ab357829003601f168201915b5050505050610bef565b905082601260008781526020019081526020016000209080519060200190610b039291906126ac565b50610b0f818385610cc8565b610b1c600a54868661179b565b600a6000815480929190610b2f906135e7565b919050555060076000815480929190610b47906135e7565b91905055505050505050565b600d5481565b6000600654905090565b80601360008481526020019081526020016000209080519060200190610b8a9291906126ac565b505050565b610ba0610b9a611b04565b82611bc5565b610bdf576040517f08c379a0000000000000000000000000000000000000000000000000000000008152600401610bd6906131e0565b60405180910390fd5b610bea838383611c5a565b505050565b600080600090505b600954811015610cbc57610c0a84611f54565b80519060200120600e6000838152602001908152602001600020600060028110610c3757610c366136bd565b5b01604051610c459190613103565b6040518091039020148015610c9b57508280519060200120600e6000838152602001908152602001600020600160028110610c8357610c826136bd565b5b01604051610c919190613103565b6040518091039020145b15610ca95780915050610cc2565b8080610cb4906135e7565b915050610bf7565b50600090505b92915050565b6040518060400160405280610cdc84611f54565b815260200182815250600e6000858152602001908152602001600020906002610d06929190612732565b50505050565b610d2783838360405180602001604052806000815250611625565b505050565b6060601160008381526020019081526020016000208054610d4c90613584565b80601f0160208091040260200160405190810160405280929190818152602001828054610d7890613584565b8015610dc55780601f10610d9a57610100808354040283529160200191610dc5565b820191906000526020600020905b815481529060010190602001808311610da857829003601f168201915b50505050509050919050565b6000610ddf60065484610735565b610dec6009548385610cc8565b60066000815480929190610dff906135e7565b919050555060096000815480929190610e17906135e7565b9190505550600654905092915050565b60606000600a67ffffffffffffffff811115610e4657610e456136ec565b5b604051908082528060200260200182016040528015610e7957816020015b6060815260200190600190039081610e645790505b5090506000805b600a54811015610fcc57610e9385611f54565b80519060200120600f6000838152602001908152602001600020600060028110610ec057610ebf6136bd565b5b01604051610ece9190613103565b60405180910390201415610fb957600f6000828152602001908152602001600020600160028110610f0257610f016136bd565b5b018054610f0e90613584565b80601f0160208091040260200160405190810160405280929190818152602001828054610f3a90613584565b8015610f875780601f10610f5c57610100808354040283529160200191610f87565b820191906000526020600020905b815481529060010190602001808311610f6a57829003601f168201915b5050505050838381518110610f9f57610f9e6136bd565b5b60200260200101819052508180610fb5906135e7565b9250505b8080610fc4906135e7565b915050610e80565b508192505050919050565b600080610fe38361202c565b9050600073ffffffffffffffffffffffffffffffffffffffff168173ffffffffffffffffffffffffffffffffffffffff161415611055576040517f08c379a000000000000000000000000000000000000000000000000000000000815260040161104c906132a0565b60405180910390fd5b80915050919050565b60008073ffffffffffffffffffffffffffffffffffffffff168273ffffffffffffffffffffffffffffffffffffffff1614156110cf576040517f08c379a00000000000000000000000000000000000000000000000000000000081526004016110c690613280565b60405180910390fd5b600360008373ffffffffffffffffffffffffffffffffffffffff1673ffffffffffffffffffffffffffffffffffffffff168152602001908152602001600020549050919050565b60606010600083815260200190815260200160002060006002811061113e5761113d6136bd565b5b01805461114a90613584565b80601f016020809104026020016040519081016040528092919081815260200182805461117690613584565b80156111c35780601f10611198576101008083540402835291602001916111c3565b820191906000526020600020905b8154815290600101906020018083116111a657829003601f168201915b50505050509050919050565b6000600854905090565b600080600090505b60065481101561123d578280519060200120601260008381526020019081526020016000206040516112139190613103565b6040518091039020141561122a5780915050611243565b8080611235906135e7565b9150506111e1565b50600090505b919050565b60606001805461125790613584565b80601f016020809104026020016040519081016040528092919081815260200182805461128390613584565b80156112d05780601f106112a5576101008083540402835291602001916112d0565b820191906000526020600020905b8154815290600101906020018083116112b357829003601f168201915b5050505050905090565b60006112e860085483610b63565b600860008154809291906112fb906135e7565b91905055506008549050919050565b606060136000838152602001908152602001600020805461132a90613584565b80601f016020809104026020016040519081016040528092919081815260200182805461135690613584565b80156113a35780601f10611378576101008083540402835291602001916113a3565b820191906000526020600020905b81548152906001019060200180831161138657829003601f168201915b50505050509050919050565b6113c16113ba611b04565b8383612069565b5050565b60606000600a67ffffffffffffffff8111156113e4576113e36136ec565b5b60405190808252806020026020018201604052801561141757816020015b60608152602001906001900390816114025790505b5090506000805b600a5481101561156a5761143185611f54565b80519060200120600f600083815260200190815260200160002060006002811061145e5761145d6136bd565b5b0160405161146c9190613103565b6040518091039020141561155757600f60008281526020019081526020016000206001600281106114a05761149f6136bd565b5b0180546114ac90613584565b80601f01602080910402602001604051908101604052809291908181526020018280546114d890613584565b80156115255780601f106114fa57610100808354040283529160200191611525565b820191906000526020600020905b81548152906001019060200180831161150857829003601f168201915b505050505083838151811061153d5761153c6136bd565b5b60200260200101819052508180611553906135e7565b9250505b8080611562906135e7565b91505061141e565b508192505050919050565b6010602052816000526040600020816002811061159157600080fd5b016000915091505080546115a490613584565b80601f01602080910402602001604051908101604052809291908181526020018280546115d090613584565b801561161d5780601f106115f25761010080835404028352916020019161161d565b820191906000526020600020905b81548152906001019060200180831161160057829003601f168201915b505050505081565b611636611630611b04565b83611bc5565b611675576040517f08c379a000000000000000000000000000000000000000000000000000000000815260040161166c906131e0565b60405180910390fd5b611681848484846121d6565b50505050565b60606012600083815260200190815260200160002080546116a790613584565b80601f01602080910402602001604051908101604052809291908181526020018280546116d390613584565b80156117205780601f106116f557610100808354040283529160200191611720565b820191906000526020600020905b81548152906001019060200180831161170357829003601f168201915b50505050509050919050565b600080600090505b600754811015611790578280519060200120601160008381526020019081526020016000206040516117669190613103565b6040518091039020141561177d5780915050611796565b8080611788906135e7565b915050611734565b50600090505b919050565b60405180604001604052806117af84611f54565b815260200182815250600f60008581526020019081526020016000209060026117d9929190612732565b50505050565b806011600084815260200190815260200160002090805190602001906118069291906126ac565b505050565b6000600560008473ffffffffffffffffffffffffffffffffffffffff1673ffffffffffffffffffffffffffffffffffffffff16815260200190815260200160002060008373ffffffffffffffffffffffffffffffffffffffff1673ffffffffffffffffffffffffffffffffffffffff16815260200190815260200160002060009054906101000a900460ff16905092915050565b60606000600a67ffffffffffffffff8111156118be576118bd6136ec565b5b6040519080825280602002602001820160405280156118f157816020015b60608152602001906001900390816118dc5790505b5090506000805b600954811015611a445761190b85611f54565b80519060200120600e6000838152602001908152602001600020600060028110611938576119376136bd565b5b016040516119469190613103565b60405180910390201415611a3157600e600082815260200190815260200160002060016002811061197a576119796136bd565b5b01805461198690613584565b80601f01602080910402602001604051908101604052809291908181526020018280546119b290613584565b80156119ff5780601f106119d4576101008083540402835291602001916119ff565b820191906000526020600020905b8154815290600101906020018083116119e257829003601f168201915b5050505050838381518110611a1757611a166136bd565b5b60200260200101819052508180611a2d906135e7565b9250505b8080611a3c906135e7565b9150506118f8565b508192505050919050565b60007f01ffc9a7000000000000000000000000000000000000000000000000000000007bffffffffffffffffffffffffffffffffffffffffffffffffffffffff1916827bffffffffffffffffffffffffffffffffffffffffffffffffffffffff1916149050919050565b611ac281612232565b611b01576040517f08c379a0000000000000000000000000000000000000000000000000000000008152600401611af8906132a0565b60405180910390fd5b50565b600033905090565b816004600083815260200190815260200160002060006101000a81548173ffffffffffffffffffffffffffffffffffffffff021916908373ffffffffffffffffffffffffffffffffffffffff160217905550808273ffffffffffffffffffffffffffffffffffffffff16611b7f83610fd7565b73ffffffffffffffffffffffffffffffffffffffff167f8c5be1e5ebec7d5bd14f71427d1e84f3dd0314c0f7b2291e5b200ac8c7c3b92560405160405180910390a45050565b600080611bd183610fd7565b90508073ffffffffffffffffffffffffffffffffffffffff168473ffffffffffffffffffffffffffffffffffffffff161480611c135750611c12818561180b565b5b80611c5157508373ffffffffffffffffffffffffffffffffffffffff16611c39846108d5565b73ffffffffffffffffffffffffffffffffffffffff16145b91505092915050565b8273ffffffffffffffffffffffffffffffffffffffff16611c7a82610fd7565b73ffffffffffffffffffffffffffffffffffffffff1614611cd0576040517f08c379a0000000000000000000000000000000000000000000000000000000008152600401611cc790613220565b60405180910390fd5b600073ffffffffffffffffffffffffffffffffffffffff168273ffffffffffffffffffffffffffffffffffffffff161415611d40576040517f08c379a0000000000000000000000000000000000000000000000000000000008152600401611d3790613240565b60405180910390fd5b611d4d8383836001612273565b8273ffffffffffffffffffffffffffffffffffffffff16611d6d82610fd7565b73ffffffffffffffffffffffffffffffffffffffff1614611dc3576040517f08c379a0000000000000000000000000000000000000000000000000000000008152600401611dba90613220565b60405180910390fd5b6004600082815260200190815260200160002060006101000a81549073ffffffffffffffffffffffffffffffffffffffff02191690556001600360008573ffffffffffffffffffffffffffffffffffffffff1673ffffffffffffffffffffffffffffffffffffffff168152602001908152602001600020600082825403925050819055506001600360008473ffffffffffffffffffffffffffffffffffffffff1673ffffffffffffffffffffffffffffffffffffffff16815260200190815260200160002060008282540192505081905550816002600083815260200190815260200160002060006101000a81548173ffffffffffffffffffffffffffffffffffffffff021916908373ffffffffffffffffffffffffffffffffffffffff160217905550808273ffffffffffffffffffffffffffffffffffffffff168473ffffffffffffffffffffffffffffffffffffffff167fddf252ad1be2c89b69c2b068fc378daa952ba7f163c4a11628f55a4df523b3ef60405160405180910390a4611f4f8383836001612399565b505050565b606060006001611f638461239f565b01905060008167ffffffffffffffff811115611f8257611f816136ec565b5b6040519080825280601f01601f191660200182016040528015611fb45781602001600182028036833780820191505090505b509050600082602001820190505b600115612021578080600190039150507f3031323334353637383961626364656600000000000000000000000000000000600a86061a8153600a858161200b5761200a61365f565b5b049450600085141561201c57612021565b611fc2565b819350505050919050565b60006002600083815260200190815260200160002060009054906101000a900473ffffffffffffffffffffffffffffffffffffffff169050919050565b8173ffffffffffffffffffffffffffffffffffffffff168373ffffffffffffffffffffffffffffffffffffffff1614156120d8576040517f08c379a00000000000000000000000000000000000000000000000000000000081526004016120cf90613260565b60405180910390fd5b80600560008573ffffffffffffffffffffffffffffffffffffffff1673ffffffffffffffffffffffffffffffffffffffff16815260200190815260200160002060008473ffffffffffffffffffffffffffffffffffffffff1673ffffffffffffffffffffffffffffffffffffffff16815260200190815260200160002060006101000a81548160ff0219169083151502179055508173ffffffffffffffffffffffffffffffffffffffff168373ffffffffffffffffffffffffffffffffffffffff167f17307eab39ab6107e8899845ad3d59bd9653f200f220920489ca2b5937696c31836040516121c991906131a3565b60405180910390a3505050565b6121e1848484611c5a565b6121ed848484846124f2565b61222c576040517f08c379a000000000000000000000000000000000000000000000000000000000815260040161222390613200565b60405180910390fd5b50505050565b60008073ffffffffffffffffffffffffffffffffffffffff166122548361202c565b73ffffffffffffffffffffffffffffffffffffffff1614159050919050565b600181111561239357600073ffffffffffffffffffffffffffffffffffffffff168473ffffffffffffffffffffffffffffffffffffffff16146123075780600360008673ffffffffffffffffffffffffffffffffffffffff1673ffffffffffffffffffffffffffffffffffffffff16815260200190815260200160002060008282546122ff919061349a565b925050819055505b600073ffffffffffffffffffffffffffffffffffffffff168373ffffffffffffffffffffffffffffffffffffffff16146123925780600360008573ffffffffffffffffffffffffffffffffffffffff1673ffffffffffffffffffffffffffffffffffffffff168152602001908152602001600020600082825461238a9190613444565b925050819055505b5b50505050565b50505050565b600080600090507a184f03e93ff9f4daa797ed6e38ed64bf6a1f01000000000000000083106123fd577a184f03e93ff9f4daa797ed6e38ed64bf6a1f01000000000000000083816123f3576123f261365f565b5b0492506040810190505b6d04ee2d6d415b85acef8100000000831061243a576d04ee2d6d415b85acef810000000083816124305761242f61365f565b5b0492506020810190505b662386f26fc10000831061246957662386f26fc10000838161245f5761245e61365f565b5b0492506010810190505b6305f5e1008310612492576305f5e10083816124885761248761365f565b5b0492506008810190505b61271083106124b75761271083816124ad576124ac61365f565b5b0492506004810190505b606483106124da57606483816124d0576124cf61365f565b5b0492506002810190505b600a83106124e9576001810190505b80915050919050565b60006125138473ffffffffffffffffffffffffffffffffffffffff16612689565b1561267c578373ffffffffffffffffffffffffffffffffffffffff1663150b7a0261253c611b04565b8786866040518563ffffffff1660e01b815260040161255e9493929190613135565b602060405180830381600087803b15801561257857600080fd5b505af19250505080156125a957506040513d601f19601f820116820180604052508101906125a69190612b3f565b60015b61262c573d80600081146125d9576040519150601f19603f3d011682016040523d82523d6000602084013e6125de565b606091505b50600081511415612624576040517f08c379a000000000000000000000000000000000000000000000000000000000815260040161261b90613200565b60405180910390fd5b805181602001fd5b63150b7a0260e01b7bffffffffffffffffffffffffffffffffffffffffffffffffffffffff1916817bffffffffffffffffffffffffffffffffffffffffffffffffffffffff191614915050612681565b600190505b949350505050565b6000808273ffffffffffffffffffffffffffffffffffffffff163b119050919050565b8280546126b890613584565b90600052602060002090601f0160209004810192826126da5760008555612721565b82601f106126f357805160ff1916838001178555612721565b82800160010185558215612721579182015b82811115612720578251825591602001919060010190612705565b5b50905061272e9190612785565b5090565b8260028101928215612774579160200282015b828111156127735782518290805190602001906127639291906126ac565b5091602001919060010190612745565b5b50905061278191906127a2565b5090565b5b8082111561279e576000816000905550600101612786565b5090565b5b808211156127c257600081816127b991906127c6565b506001016127a3565b5090565b5080546127d290613584565b6000825580601f106127e45750612803565b601f0160209004906000526020600020908101906128029190612785565b5b50565b600061281961281484613340565b61331b565b90508281526020810184848401111561283557612834613720565b5b612840848285613542565b509392505050565b600061285b61285684613371565b61331b565b90508281526020810184848401111561287757612876613720565b5b612882848285613542565b509392505050565b600081359050612899816139bb565b92915050565b6000813590506128ae816139d2565b92915050565b6000813590506128c3816139e9565b92915050565b6000815190506128d8816139e9565b92915050565b600082601f8301126128f3576128f261371b565b5b8135612903848260208601612806565b91505092915050565b600082601f8301126129215761292061371b565b5b8135612931848260208601612848565b91505092915050565b60008135905061294981613a00565b92915050565b6000602082840312156129655761296461372a565b5b60006129738482850161288a565b91505092915050565b600080604083850312156129935761299261372a565b5b60006129a18582860161288a565b92505060206129b28582860161288a565b9150509250929050565b6000806000606084860312156129d5576129d461372a565b5b60006129e38682870161288a565b93505060206129f48682870161288a565b9250506040612a058682870161293a565b9150509250925092565b60008060008060808587031215612a2957612a2861372a565b5b6000612a378782880161288a565b9450506020612a488782880161288a565b9350506040612a598782880161293a565b925050606085013567ffffffffffffffff811115612a7a57612a79613725565b5b612a86878288016128de565b91505092959194509250565b60008060408385031215612aa957612aa861372a565b5b6000612ab78582860161288a565b9250506020612ac88582860161289f565b9150509250929050565b60008060408385031215612ae957612ae861372a565b5b6000612af78582860161288a565b9250506020612b088582860161293a565b9150509250929050565b600060208284031215612b2857612b2761372a565b5b6000612b36848285016128b4565b91505092915050565b600060208284031215612b5557612b5461372a565b5b6000612b63848285016128c9565b91505092915050565b600060208284031215612b8257612b8161372a565b5b600082013567ffffffffffffffff811115612ba057612b9f613725565b5b612bac8482850161290c565b91505092915050565b60008060408385031215612bcc57612bcb61372a565b5b600083013567ffffffffffffffff811115612bea57612be9613725565b5b612bf68582860161290c565b9250506020612c078582860161293a565b9150509250929050565b600060208284031215612c2757612c2661372a565b5b6000612c358482850161293a565b91505092915050565b60008060408385031215612c5557612c5461372a565b5b6000612c638582860161293a565b925050602083013567ffffffffffffffff811115612c8457612c83613725565b5b612c908582860161290c565b9150509250929050565b60008060008060808587031215612cb457612cb361372a565b5b6000612cc28782880161293a565b945050602085013567ffffffffffffffff811115612ce357612ce2613725565b5b612cef8782880161290c565b935050604085013567ffffffffffffffff811115612d1057612d0f613725565b5b612d1c8782880161290c565b9250506060612d2d8782880161293a565b91505092959194509250565b60008060408385031215612d5057612d4f61372a565b5b6000612d5e8582860161293a565b9250506020612d6f8582860161293a565b9150509250929050565b600080600060608486031215612d9257612d9161372a565b5b6000612da08682870161293a565b9350506020612db18682870161293a565b925050604084013567ffffffffffffffff811115612dd257612dd1613725565b5b612dde8682870161290c565b9150509250925092565b6000612df48383612f47565b905092915050565b612e05816134ce565b82525050565b6000612e16826133c7565b612e2081856133f5565b935083602082028501612e32856133a2565b8060005b85811015612e6e5784840389528151612e4f8582612de8565b9450612e5a836133e8565b925060208a01995050600181019050612e36565b50829750879550505050505092915050565b612e89816134e0565b82525050565b6000612e9a826133d2565b612ea48185613406565b9350612eb4818560208601613551565b612ebd8161372f565b840191505092915050565b60008154612ed581613584565b612edf8186613417565b94506001821660008114612efa5760018114612f0b57612f3e565b60ff19831686528186019350612f3e565b612f14856133b2565b60005b83811015612f3657815481890152600182019150602081019050612f17565b838801955050505b50505092915050565b6000612f52826133dd565b612f5c8185613422565b9350612f6c818560208601613551565b612f758161372f565b840191505092915050565b6000612f8b826133dd565b612f958185613433565b9350612fa5818560208601613551565b612fae8161372f565b840191505092915050565b6000612fc6602d83613433565b9150612fd182613740565b604082019050919050565b6000612fe9603283613433565b9150612ff48261378f565b604082019050919050565b600061300c602583613433565b9150613017826137de565b604082019050919050565b600061302f602483613433565b915061303a8261382d565b604082019050919050565b6000613052601983613433565b915061305d8261387c565b602082019050919050565b6000613075602983613433565b9150613080826138a5565b604082019050919050565b6000613098601883613433565b91506130a3826138f4565b602082019050919050565b60006130bb602183613433565b91506130c68261391d565b604082019050919050565b60006130de603d83613433565b91506130e98261396c565b604082019050919050565b6130fd81613538565b82525050565b600061310f8284612ec8565b915081905092915050565b600060208201905061312f6000830184612dfc565b92915050565b600060808201905061314a6000830187612dfc565b6131576020830186612dfc565b61316460408301856130f4565b81810360608301526131768184612e8f565b905095945050505050565b6000602082019050818103600083015261319b8184612e0b565b905092915050565b60006020820190506131b86000830184612e80565b92915050565b600060208201905081810360008301526131d88184612f80565b905092915050565b600060208201905081810360008301526131f981612fb9565b9050919050565b6000602082019050818103600083015261321981612fdc565b9050919050565b6000602082019050818103600083015261323981612fff565b9050919050565b6000602082019050818103600083015261325981613022565b9050919050565b6000602082019050818103600083015261327981613045565b9050919050565b6000602082019050818103600083015261329981613068565b9050919050565b600060208201905081810360008301526132b98161308b565b9050919050565b600060208201905081810360008301526132d9816130ae565b9050919050565b600060208201905081810360008301526132f9816130d1565b9050919050565b600060208201905061331560008301846130f4565b92915050565b6000613325613336565b905061333182826135b6565b919050565b6000604051905090565b600067ffffffffffffffff82111561335b5761335a6136ec565b5b6133648261372f565b9050602081019050919050565b600067ffffffffffffffff82111561338c5761338b6136ec565b5b6133958261372f565b9050602081019050919050565b6000819050602082019050919050565b60008190508160005260206000209050919050565b600081519050919050565b600081519050919050565b600081519050919050565b6000602082019050919050565b600082825260208201905092915050565b600082825260208201905092915050565b600081905092915050565b600082825260208201905092915050565b600082825260208201905092915050565b600061344f82613538565b915061345a83613538565b9250827fffffffffffffffffffffffffffffffffffffffffffffffffffffffffffffffff0382111561348f5761348e613630565b5b828201905092915050565b60006134a582613538565b91506134b083613538565b9250828210156134c3576134c2613630565b5b828203905092915050565b60006134d982613518565b9050919050565b60008115159050919050565b60007fffffffff0000000000000000000000000000000000000000000000000000000082169050919050565b600073ffffffffffffffffffffffffffffffffffffffff82169050919050565b6000819050919050565b82818337600083830152505050565b60005b8381101561356f578082015181840152602081019050613554565b8381111561357e576000848401525b50505050565b6000600282049050600182168061359c57607f821691505b602082108114156135b0576135af61368e565b5b50919050565b6135bf8261372f565b810181811067ffffffffffffffff821117156135de576135dd6136ec565b5b80604052505050565b60006135f282613538565b91507fffffffffffffffffffffffffffffffffffffffffffffffffffffffffffffffff82141561362557613624613630565b5b600182019050919050565b7f4e487b7100000000000000000000000000000000000000000000000000000000600052601160045260246000fd5b7f4e487b7100000000000000000000000000000000000000000000000000000000600052601260045260246000fd5b7f4e487b7100000000000000000000000000000000000000000000000000000000600052602260045260246000fd5b7f4e487b7100000000000000000000000000000000000000000000000000000000600052603260045260246000fd5b7f4e487b7100000000000000000000000000000000000000000000000000000000600052604160045260246000fd5b600080fd5b600080fd5b600080fd5b600080fd5b6000601f19601f8301169050919050565b7f4552433732313a2063616c6c6572206973206e6f7420746f6b656e206f776e6560008201527f72206f7220617070726f76656400000000000000000000000000000000000000602082015250565b7f4552433732313a207472616e7366657220746f206e6f6e20455243373231526560008201527f63656976657220696d706c656d656e7465720000000000000000000000000000602082015250565b7f4552433732313a207472616e736665722066726f6d20696e636f72726563742060008201527f6f776e6572000000000000000000000000000000000000000000000000000000602082015250565b7f4552433732313a207472616e7366657220746f20746865207a65726f2061646460008201527f7265737300000000000000000000000000000000000000000000000000000000602082015250565b7f4552433732313a20617070726f766520746f2063616c6c657200000000000000600082015250565b7f4552433732313a2061646472657373207a65726f206973206e6f74206120766160008201527f6c6964206f776e65720000000000000000000000000000000000000000000000602082015250565b7f4552433732313a20696e76616c696420746f6b656e2049440000000000000000600082015250565b7f4552433732313a20617070726f76616c20746f2063757272656e74206f776e6560008201527f7200000000000000000000000000000000000000000000000000000000000000602082015250565b7f4552433732313a20617070726f76652063616c6c6572206973206e6f7420746f60008201527f6b656e206f776e6572206f7220617070726f76656420666f7220616c6c000000602082015250565b6139c4816134ce565b81146139cf57600080fd5b50565b6139db816134e0565b81146139e657600080fd5b50565b6139f2816134ec565b81146139fd57600080fd5b50565b613a0981613538565b8114613a1457600080fd5b5056fea26469706673582212207fcbcf4769c835b8c0da4b5f118130608369a7d53707b2476c1468261ff7d6f964736f6c63430008060033",
  "linkReferences": {},
  "deployedLinkReferences": {}
}